:10200000903132289A1508007E1490310B1F302829
:1020100041019A19901D1028A6315C269031302874
:102020001A1A101E1728A5318E259031302819193B
:102030000F1D2128440140088A003F080A00903102
:10204000302899198F1D2B2844013E088A003D082D
:102050000A0090313028961A8C1E3028A631B026FE
:102060007E100900400190313528FC308400263074
:102070008500F430FE000030FF00A631A426903128
:102080005F308400003085001130FE000030FF001A
:10209000A631A4269031E3308400003085000D3055
:1020A000FE000030FF00A631A42690315A30840093
:1020B000013085001530FE000030FF00A631A42657
:1020C0009031DF308400013085001130FE00003097
:1020D000FF00A631A4269031203084000230850014
:1020E0001B30FE000030FF00A631A4269031A03046
:1020F0008400023085003830FE000030FF00A63139
:10210000A426903120308400033085004030FE004A
:102110000030FF00A631A4269031A03084000330A7
:1021200085004030FE000030FF00A631A4267E105E
:1021300040019131CC29FA00AD29AA307A06031D5D
:102140000800FF30DF00FF30E000EB01013041010B
:10215000E90008007A084101E80040016008F10048
:102160005F08F0007A08F2009B3106237108E00056
:102170007008DF0002304101E900080039307A02BE
:10218000031CC5284101E90108007A08EC00600839
:10219000F1005F08F0007A08F2009B3106239031CD
:1021A0007108E0007008DF006C08031DDB280530B3
:1021B0004101E900080004304101E90008006B0812
:1021C000A03E8600023087007A0881000130A0001E
:1021D0002008EB076008F1005F08F0007A08F200C1
:1021E0009B31062390317108E0007008DF006C0815
:1021F0006B02031C0800D7287A084101E70006306B
:10220000E90008007A08A000A1012008A100A001AF
:10221000200841016704F60040012108F70060082A
:102220007706031D15295F087606031D9B296A089A
:10223000013AF9007908A000A1012008F000210866
:10224000F1003A30F2000030F30099311C21903156
:102250007C30A2002730A30070082207A400710878
:10226000233DA50024088600250887004101680851
:10227000810079084001A000A1012008F000210898
:10228000F1003A30F2000030F30099311C21903116
:102290007D30A2002730A30070082207A400710837
:1022A000233DA50024088600250887006C088100CE
:1022B000F8016C087802031890297808A03E86007F
:1022C000023087000108A0007808A100A201790867
:1022D000A300A4012308F0002408F1003A30F20022
:1022E0000030F30099311C2190317E30A500273059
:1022F000A60070082507A7007108263DA800210840
:102300002707A9002208283DAA00290886002A08D4
:102310008700200881000130A0002008F807592913
:102320007908EA0001304101E60001304301ED0780
:102330000030EE3DC22801304101E5000130E400EB
:102340000030F3000130F400A531B32590310130A5
:102350004301EB070030EC3DC22841016908400110
:10236000A000A1012108003A0319B729C2282008BA
:10237000003A03199D28013A0319AA28033A0319C0
:10238000BE28063A0319DF28013A0319FC28033A4C
:1023900003190229C22808004301A201A20AA301CD
:1023A000A30AA731C1279131A6313D2691311317D8
:1023B000931714111413A5319025913198319C2055
:1023C0009131993152219131993189219131A6313F
:1023D0004726913183304001AF001830B000A5315D
:1023E000D92591318B170B1764304001AF000030B5
:1023F000B000A531F12591310C304001AF0005301E
:10240000B00001309831532091310C304001AF00C1
:102410000530B000023098315320913140011A1735
:1024200002304001DE000430DD00BA30890B162A8C
:10243000DD0B162ADE0B162A000040011A130230AB
:102440004001DE000430DD00BA30890B252ADD0BA7
:10245000252ADE0B252A0000A5304001B5000130F9
:10246000B600953109259131003A03193E2AA5306D
:10247000DA000130DB009331B4239131A43098317C
:102480006B209131003A03194D2A43012408400181
:10249000C200FF30A7310A27913140010D1B622A8B
:1024A00043012203031D622AA201A531A325913114
:1024B000003A031D5D2A01305E2A0030A631332622
:1024C0009131682A40010D1F682A4301A201A20A26
:1024D00040018D1B862A43012303031D862AA30185
:1024E000A531E9259131003A031D7E2A01309A3148
:1024F000BF229131A631292691318C2A00309A31A0
:10250000BF229131A531A82591318C2A40018D1F20
:102510008C2A4301A301A30A94316624913192319C
:10252000CE22913143016F0803199A2AEF019C31A1
:10253000C6249131A63102269131003A031DCA2AE0
:10254000A531E9259131013A0319AA2A0F30430137
:10255000A000AD2A4301A001A00A20084001AF005D
:10256000B0010130983153209131A531A32591312B
:10257000003A031DBF2A0F304301A100C22A4301C4
:10258000A101A10A21084001AF00B0010230983139
:10259000532091319631412691312C2A0030A631B9
:1025A0001F2692313308C3003208C2000230A63120
:1025B0001F2692313308BE003208BD000130A6311B
:1025C0001F2692313308C0003208BF009A313A22E8
:1025D0009231B8009A311B229231C100A531E92510
:1025E00092314001B900BA01420843040319012B9A
:1025F0002E3043021830031942020318012BBA018E
:10260000BA0A0230B2000030B3003A0803190A2BAC
:1026100001300B2B0030B400EF30B5000030B600B5
:102620009B3177239231BB013D083E040319212BD6
:102630002A303E02F83003193D020318212BBB015A
:10264000BB0A0430B2000030B3003B0803192A2B48
:1026500001302B2B0030B4006E30B5000130B600D5
:102660009B3177239231BC013903031D442B3F0872
:1026700040040319442B2A304002F83003193F026A
:102680000318442BBC01BC0A0830B2000030B30070
:102690003C0803194D2B01304E2B0030B4006D3037
:1026A000B5000130B6009B31772392311030B20073
:1026B0000030B3001A3038020318602B0130612B50
:1026C0000030B4006C30B5000130B6009B31772388
:1026D00092312030B2000030B3004B304102031C75
:1026E000732B0130742B0030B4006B30B500013017
:1026F000B6009B317723923164304102031C872B53
:102700004030AF000030B000A631CB2692316E08C9
:102710000319A42B23304302293003194202031862
:10272000A12B420164086504031DA42B00309A31DB
:10273000BF2292310130AF000030B000A631CB266D
:102740009231A531A8259231003042016302323026
:1027500003196202031C080080304001AF00003002
:10276000B000A631CB2608002F2C5B08C8005A0801
:10277000C700A7319A2708005B08C8005A08C7009D
:10278000A7313F2708005B08C8005A08C7009D31E1
:10279000FE2508005B08C8005A08C700A731632758
:1027A00008005B08C8005A08C700A7315127080075
:1027B0005B08C8005A08C7009831262008005B084B
:1027C000C8005A08C7009E318D2608005B08C80063
:1027D0005A08C7009D317B2508005B08C8005A08CD
:1027E000C7009F312F2708005B08C8005A08C700A0
:1027F000A631EA2608005B08C8005A08C700A631BF
:10280000FA2608005B08C8005A08C7009731C3279A
:1028100008005B08C8005A08C7009831112008005A
:102820005B08C8005A08C700A731752708005B0875
:10283000C8005A08C7009831B52008005B08C800D6
:102840005A08C7009D31012508000330C2005A080C
:1028500086005B0887000108A7310A2708005A088C
:1028600086005B0887000108103A0319B52B013A6E
:102870000319BC2B033A0319C32B013A0319CA2BC2
:10288000073A0319D12B013A0319D82B353A03190A
:10289000DF2B013A0319E62B033A0319ED2B123A09
:1028A0000319F42B023A0319FB2B723A0319022C79
:1028B000013A0319092C033A0319102C013A0319A0
:1028C000172C073A03191E2C252C08008B134101E5
:1028D0006E08031D6D2C8B1708004401320840015F
:1028E000D600440131084001D500440134084001BC
:1028F000D800440133084001D700440136084001A4
:10290000DA00440135084001D9004101EE018B177E
:102910001A304001AF008130B0009A317A229431F0
:102920003008D4002F08D300DB010030BE00003097
:10293000BD000330BC00FF30BB005B35553E860058
:102940008701403FC900413FCA004908AF004A081B
:10295000B000B101B2015308B3005408B400B5018E
:10296000B6019B31F72394313208C2003108C1000F
:102970003008C0002F08BF009E31DD2694313E088C
:10298000CE003D08CD003C08CC003B08CB00003019
:10299000BE000030BD000F30BC003C30BB004E0814
:1029A000B2004D08B1004C08B0004B08AF00003039
:1029B000B6000030B5003630B4004C30B3009B3167
:1029C000F72394313208C2003108C1003008C0003A
:1029D0002F08BF009E31DD2694313E08D2003D080D
:1029E000D1003C08D0003B08CF005B352B3E860071
:1029F000023087004F08C03F5008C13F0130C90076
:102A00004908DB0703305B02031C952CA531AD257B
:102A10000800C6018B13410166080319A42D40016B
:102A20006A08C7004708B700B8013708AF00380880
:102A3000B0003A30B1000030B20099313721953101
:102A40007C30B9002730BA002F08390786003008DB
:102A50003A3D87000108BB0035088600360887002C
:102A60003B0881004708B700B8013708AF003808B5
:102A7000B0003A30B1000030B200993137219531C1
:102A80007D30B9002730BA002F083907860030089A
:102A90003A3D87000108BB003508013EBC0000300C
:102AA000363DBD003C0886003D0887003B0881009C
:102AB000C801350886003608870041310108480200
:102AC00003189F2D4808B700B8014708B900BA019C
:102AD0003908AF003A08B0003A30B1000030B20017
:102AE0009931372195317E30BB002730BC002F084B
:102AF0003B07BD0030083C3DBE0037083D0786005F
:102B000038083E3D87000108BF004808C000C101E9
:102B100040083507C2004108363DC3004208023E66
:102B2000C4000030433DC5004408860045088700C6
:102B30003F0881000130B7003708C807592D41010F
:102B4000E6014001C601C60A8B174001460808008D
:102B50000030A6311F2695313308BB003208BA0079
:102B60000130A6311F2695313308BD003208BC0064
:102B70000230A6311F2695313308BF003208BE004F
:102B80009A313A229531C0009A311B229531C10009
:102B9000A531E92595314001C200A531A325953124
:102BA000C300A631802695313008C5002F08C40027
:102BB000C6014203031946144308031D46150D1BA5
:102BC000C6158D1B461644084504031D46176908A3
:102BD000031DC6173708B0003608AF003B08B20027
:102BE0003A08B100A731EB2795313608023EAF0015
:102BF0000030373DB0003D08B2003C08B100A731BD
:102C0000EB2795313608043EAF000030373DB00069
:102C10003F08B2003E08B100A731EB2795313608D6
:102C2000063EB8000030373DB90038088600390844
:102C30008700400881003608073EB8000030373D65
:102C4000B900380886003908870041088100360835
:102C5000083EB8000030373DB90038088600390812
:102C60008700460881003608093EAF000030373D36
:102C7000B0004508B2004408B100A731EB270B3083
:102C800008008B1342016908AB00E9018B172B0880
:102C90000319532E8B134001E90158304201DA0029
:102CA0000230DB008B179A31E222963142015A083A
:102CB0005B04031D0800AC0194316624963120307A
:102CC0004001B6000130B7009531A8259631420188
:102CD000680803197A2EAD012D08203E86000230C7
:102CE00087002D08203E8400013085000008010681
:102CF00003197D2EAC01AC0A872E01304001DC00A7
:102D00005C084201AD070B302D02031C6C2E2C0811
:102D1000031DA8169C318E24963120304001BC0042
:102D20000130BD000B30BE00BF0180309731482715
:102D30009631003A0319B62E4201AD012D08203E0E
:102D40008600023087002D08203E84000130850077
:102D50000008810001304001DC005C084201AD0741
:102D60000B302D02031C9E2EE801E80A8B13400154
:102D70006908031DC02E58304201DA000230C42E0B
:102D80000A304201DA000030DB008B170800AF0088
:102D9000AF1FD12E1A1500000000000040011A11CB
:102DA000D72E1A15000040011A1100000000400142
:102DB0002F1FE12E1A1500000000000040011A111B
:102DC000E72E1A15000040011A1100000000400112
:102DD000AF1EF12E1A1500000000000040011A116C
:102DE000F72E1A15000040011A11000000004001E2
:102DF0002F1E012F1A1500000000000040011A11BB
:102E0000072F1A15000040011A11000000004001B0
:102E1000AF1D112F1A1500000000000040011A110B
:102E2000172F1A15000040011A1100000000400180
:102E30002F1D212F1A1500000000000040011A115B
:102E4000272F1A15000040011A1100000000400150
:102E5000AF1C312F1A1500000000000040011A11AC
:102E6000372F1A15000040011A1100000000400120
:102E70002F1C412F1A1500000000000040011A11FC
:102E800008001A15000040011A1100000000080097
:102E90004101DE00393040013E02031C512F003059
:102EA0000800AA304101A0005E08A10040013E08D0
:102EB0004101A200E20140013E0841016202031803
:102EC000782F6208033EA03E860087016208400119
:102ED000C000C10140083C07840041083D3D850019
:102EE000000881000130C00040084101E2075B2F6B
:102EF00040013E08023EB500A1309B31502397317E
:102F000036084101E100400135084101E00040017F
:102F10003E08033EA03E8600870141016008810013
:102F200040013E08043EA03E860087014101610841
:102F3000810040013E08053E4101DF0040013F089D
:102F4000031DA82FA531BA259731003A03194F2F39
:102F50004101E2015F0862020318C12F4001B10183
:102F6000B10A41016208A03E86008701010898313C
:102F70003C20973101304001C00040084101E20788
:102F8000AA2F013008004708860048088700413111
:102F900001030319D52F0230C200470886004808F4
:102FA00087000108A7310A2708004708860048085B
:102FB000870042315A3001060319E82F0430C2005D
:102FC00047088600480887000108A7310A2708003B
:102FD0000030C200C300C4014708860048088700CB
:102FE00001089D31BB259731D0304001C900C9305F
:102FF000890BF82FC90BF82F0032A731872708005B
:103000008B136908031D09280130E9004201DA0128
:10301000DB0164304201DC000030DD00E9018B1788
:1030200008004708023EC2000030483DC300470880
:1030300086004808870041310108C400470886001F
:103040004808870001089D31BB2508004930B600BB
:103050000030B7009531A8259831D9004930C20019
:103060000030C3005908C40047088600480887009C
:1030700001089D31BB2508004001B2003108031949
:103080004C28A531BA259831003A03194128320855
:10309000AF009A3159220800A531BA259831003A7B
:1030A000031908004728B1003103031D5F282F08CA
:1030B0004101ED00400130084101EC000800023000
:1030C0003106031D08002F084101EB0040013008C4
:1030D0004101EA0008004001AF00B0018B1341013B
:1030E000650803197F2840012F08860001308700FA
:1030F000410164088100E5014001B001B00A8B176D
:10310000400130080800A631152698319931C221B6
:1031100098319831E82098310130F5007508410167
:10312000E30705306302031C9828E301A6310B2650
:1031300001304301EF0008004001EF014101EE01C1
:103140004401AB01AC01AD01AE01AF01B0014530AE
:103150004001AF001E30B000A531E1259831A53106
:1031600093259831903102200800A63180269831AD
:103170003008B4002F08B3004930A6318C269831AE
:103180004930C2000030C3000230C4004708860046
:103190004808870001089D31BB25080040016408EC
:1031A000A03E8600033087000108F1006408013E5C
:1031B0003F39F0007008E4004101991140016308B3
:1031C0000319E4280130E302410199157108080050
:1031D00040016E080319F5284201640865040319CB
:1031E000F5280130E4020030E53B00304201630283
:1031F000323003196202031808000130E207003080
:10320000E33D08008B133508B7003408B600B60953
:10321000B7093608E1053708E2053508B700340874
:10322000B600B609B70936084201E605400137087D
:103230004201E7058B170800F401F501701C2429F1
:103240007208F4077308F53D0130F235F30D890B70
:1032500025290130F136F00C890B2A2970087104F8
:10326000031D1E297508F1007408F0000800B30161
:10327000B4012F1C3F293108B3073208B43D013097
:10328000B135B20D890B40290130B036AF0C890B36
:1032900045292F083004031D39293408B0003308AC
:1032A000AF000800E9014001EB014101E601E50141
:1032B0004001EA014C0110121016AD304001AF0080
:1032C0002730B000A63198269931BD304001AF00BB
:1032D0002630B000A6317426080040304001660256
:1032E000031886296708203E8600033087000108FE
:1032F0004C018D0040016708013E3F39F100710823
:10330000E7000130F0007008E607080041011911DC
:1033100008004001E101E2014201E601E70141014B
:10332000EF014201EE01ED01EC01EB014001EE0184
:103330004201E401E501E201E30143010E18080046
:103340004001621543010E1408007A011D08F200C5
:10335000F3017208F5007308F6001E08F200F3018D
:103360007208F300F2017208F7007308F80075089C
:103370007704F90076087804FA007A08F1007908F1
:10338000F0000800400169080319D52942015C08D2
:103390005D040319D5290130DC020030DD3B5C08F7
:1033A0005D04031DD5290130E90042015A085B0480
:1033B000031908000130DA020030DB3B08008B13F0
:1033C00067084001B200420166084001B100B1093E
:1033D000B20961083105B30062083205B400620821
:1033E0004201E700400161084201E6008B174001FD
:1033F0003408B0003308AF000800B1008B13310867
:103400008600870142015E08C03F5F08C13F40015E
:103410002F088600870143016D08C03F6E08C13F39
:10342000400130088600870143016B08C03F6C08EB
:10343000C13F8B1708009A1768304001B300E43091
:10344000890B202AB30B202A0000003040018C1A7F
:103450000130AF0000308C1B0130B00000300C1B7D
:103460000130B1000C0E01399B319F23B4009A1337
:10347000340808009A1768304001B300E430890B23
:103480003F2AB30B3F2A0000003040018C18013066
:10349000AF0000300C190130B00000308C19013041
:1034A000B1000C0801399B319F23B4009A133408F2
:1034B000080041011919612A40012F084C018D00B3
:1034C000772A400166080319772A6808203E86009B
:1034D000033087002F0881006808013E3F39B000A3
:1034E0003008E8004101191101304001E6024101B4
:1034F0001915080000308B1B0130B3008B132F0807
:1035000079018C004001300879018D0010171014EA
:103510000000000079010F084001B20079010E0897
:103520004001B100330C031C8B1303188B173208B6
:10353000B0003108AF000800F300A52A0A30A32A22
:103540000C30A32A0B30F400B82A7308F100F20102
:103550007208003A0319AD2ABE2A7108013A03190C
:103560009E2A033A0319A02A013A0319A22ABE2A65
:103570007408A5319E259A31A5318C25080040019B
:10358000B00030084201EA0040013003031DD52A93
:10359000991468304001AF00E430890BCD2AAF0B9D
:1035A000CD2A00004001991008001914683040012C
:1035B000AF00E430890BDA2AAF0BDA2A00004001B1
:1035C000191008009931DF219A313008C6002F0800
:1035D000C5004508460403190800C201C20A433069
:1035E000AF000030B0004608B2004508B100A73176
:1035F000EB279A314230BC000030BD000330BE00E2
:10360000BF01BF0A81309731482708007208F300D4
:10361000F4017308F0067408F106F501701C1D2B07
:103620007108F4007008F300F436F30C08307306E8
:10363000F00084307406F100222B0130F136F00CDA
:10364000890B1E2B0130F3007308F5070830750253
:10365000031808000E2B3108B200B3013208AF0680
:103660003308B006B4012F1C422B3008B3002F08DA
:10367000B200B336B20C08303206AF0084303306E5
:10368000B000472B0130B036AF0C890B432B013013
:10369000B2003208B4070830340203180800332B94
:1036A000B800FF30B900FF30BA00BB0135083B025B
:1036B0000318722B3A08B0003908AF003B083807EE
:1036C000B7003708860087010108B1009B312B2322
:1036D0009B313008BA002F08B9000130B700370815
:1036E000BB07562B3A08B6003908B5000800340865
:1036F0000319992B3508860036088700053001022A
:10370000031808000130B700350886003608870026
:10371000370881073508860036088700053001061E
:10372000031D08003308B0003208AF00A631CB26D5
:103730000800350886003608870081010800B200BD
:103740003208031DAE2B2F08031DAE2B3008031DBE
:10375000AE2B3108031DAE2B643008002F08031D6B
:10376000B92B3008031DB92B3108031DB92B4B3081
:1037700008003008031DC12B3108031DC12B323056
:1037800008003108031DC62B19300800003008005E
:103790004001B70010303702031808003708B500A1
:1037A000B6013508AF003608B0000330B100003074
:1037B000B200993137219B3130302F0784002030FF
:1037C000303D80388500003FB800013FB900023F1E
:1037D000BA0039089631C7269B3140013808963126
:1037E000C7269B3140013A089631C72608000030B1
:1037F000BA000030B9000030B8000030B7002F1C0C
:10380000092C3308B7073408B83D3508B93D3608E8
:10381000BA3D0130B335B40DB50DB60D890B0A2C88
:103820000130B236B10CB00CAF0C890B112C320840
:10383000310430042F04031DFF2B3A08B20039086D
:10384000B1003808B0003708AF0008007A01A613AD
:103850008430A600A7011830A8001030A9000F304E
:10386000AD00AE01AF01B0018C018D018E018F0161
:10387000920193019801970196019E019D01990182
:103880009A01A3019F01A101A201A401A501033096
:10389000AB00AC01AA014301E901EA01E701E8013B
:1038A000410190119A1110121A1284307A01A60067
:1038B0000800410199118D304401BD001F30BE0048
:1038C000410119116D304401BF001930C00048306A
:1038D0004C019200903090002630910044308E00D0
:1038E0008F018A304001AF002530B000A631682634
:1038F0009C3196304001AF002530B000A6317426CF
:103900004401B701B8014001E801E7014030E60099
:10391000E501E401E3014101991508004B30400144
:10392000AF004D30B00049309931FD219C3102305B
:103930004001C2004330AF000030B0004A08B2007E
:103940004908B100A731EB279C314530AF0000306A
:10395000B0004C08B2004B08B100A731EB279C31F6
:103960004730AF000030B0004E08B2004D08B10043
:10397000A731EB279C314230BC000030BD0007303E
:10398000BE00BF01813097314827080040016D0813
:10399000031DCD2C41016D08E12C6D0841016C0621
:1039A000031DDA2C40016D0841016A06031DDA2C63
:1039B0000F30EE2C40016D0841016C06031DE72C11
:1039C0000F309B31C8239C3141016B08F22C400120
:1039D0006D0841016A06031DF52C6D089B31C82353
:1039E0009C310F309B31C8239C310A3040016D025D
:1039F0000318FF2C0130BB003B08ED070800ED0168
:103A00000800470886004808870041310230010657
:103A10000319142D0230C2004708860048088700A9
:103A20000108A7310A2708004708023EAF0000300E
:103A3000483DB000A731D6279D313008B5002F088A
:103A4000B400993102219D31A63180269D31300884
:103A5000B4002F08B3004930A6318C269D3149307F
:103A6000C2000030C3000230C40047088600480886
:103A7000870001089D31BB2508004001980199018C
:103A800010309A009C01FF309200DC3093002B3004
:103A90009400083096007D018C011C3096000330A4
:103AA000A0008D01C0309700A101B5018E019801E1
:103AB000A201FF308F00FF309900FF30A300FF30DC
:103AC0009000FF309A00FF30A4000830B800133097
:103AD0007C01C1000E307B01A0007D0191019201AB
:103AE00093019B019C019D01A501A601A701B901BC
:103AF000BA01BB0108004708860048088700413129
:103B0000010303198D2D0230C200470886004808C2
:103B100087000108A7310A270800470886004808DF
:103B20008700423102300102031CA02D0430C20084
:103B300047088600480887000108A7310A270800BF
:103B4000470886004808870042310108A63133261D
:103B50009D31A531A3259D31C9004930C2000030F7
:103B6000C300C401C40A470886004808870001084A
:103B70009D31BB2508004201D80040014408013EA8
:103B8000C500003003180130C6000030460239304D
:103B900003194502031CCE2D3730C40042015808DA
:103BA000A000D90140014408420159020318F02D38
:103BB0005908013E203E8600013087005908400127
:103BC000C500C6014508420784004608433D8500FC
:103BD000000881000130C50045084201D907D22DF7
:103BE00020304001BC000130BD004408013EBE0051
:103BF000BF01BF0AF0309731482708004708860008
:103C000048088700413101030319102E0230C20019
:103C100047088600480887000108A7310A270800DE
:103C2000470886004808870042310108CE0003306B
:103C30004E02031C252E0430C200470886004808A7
:103C400087000108A7310A2708004E08A6311F2661
:103C50009D313308CD003208CC004E08C9004D0814
:103C6000B4004C08B3004A30A6318C269D3149304F
:103C7000C2000030C3000330C40047088600480873
:103C8000870001089D31BB2508009931A5219E318F
:103C900071084001A1007008A000792E210844019C
:103CA000B200400120084401B10002304001EF00A1
:103CB00002309A319C22080021084401B6004001DC
:103CC00020084401B50003304001EF0003309A3171
:103CD0009C22080021084401B4004001200844014E
:103CE000B3004001EF0101304101EE000800EF0197
:103CF00008006F08FB00FC017C08003A0319812EC4
:103D0000772E7B08013A03194E2E033A03195C2ED5
:103D1000013A03196A2E772E0800470886004808E2
:103D200087004131010303199F2E0230C20047086A
:103D30008600480887000108A7310A2708004708BD
:103D4000860048088700423102300102031CB22E6F
:103D50000430C20047088600480887000108A731E0
:103D60000A270800470886004808870042310108F2
:103D70009A31BF229E3147088600480887004231A9
:103D80000103031DC72EA63129269E31CA2EA53157
:103D9000A8259E31A531E9259E314001C900493051
:103DA000C2000030C300C401C40A470886004808A6
:103DB000870001089D31BB2508000030C700003096
:103DC000C6000030C5000030C4003E083D043C047D
:103DD0003B040319262FC801C80ABE1BFB2E013065
:103DE000BB35BC0DBD0DBE0D890BF02E0130C300DF
:103DF0004308C807ED2E0130C435C50DC60DC70DEB
:103E0000890BFC2E3E084202031D102F3D08410283
:103E1000031D102F3C084002031D102F3B083F02DA
:103E2000031C1B2F3B08BF023C08C03B3D08C13BA5
:103E30003E08C23B44140130BE36BD0CBC0CBB0C6A
:103E4000890B1C2F0130C802031DFB2E4708BE0042
:103E50004608BD004508BC004408BB0008004708F0
:103E60008600480887004131033001060319422FBC
:103E70000230C20047088600480887000108A731C1
:103E80000A270800470886004808870042310108D1
:103E9000CB00470886004808870043310108C90065
:103EA000470886004808870044310108CA004B08CB
:103EB0000319662F03304B020318662F1030490296
:103EC0000318662F0B304A02031C702F0430C20007
:103ED00047088600480887000108A7310A2708001C
:103EE0004908AF004A08B0004B08983153209F3171
:103EF00008304001AF000730B000A531F1259F31F7
:103F000000304001C200C300C401470886004808D1
:103F1000870001089D31BB25080040016508AB0002
:103F2000AC01AB35AC0DFC30AD002630AE002B083B
:103F30002D0786002C082E3D87000030C03FC13F72
:103F40004C01901CBE2F40016508AB00AC01AB35A5
:103F5000AC0DFC30AD002630AE002B082D078600DE
:103F60002C082E3D8700011543015F0860040319EA
:103F7000BE2F60088A005F080A009F314C01101DA7
:103F8000DC2F40016508AB00AC01AB35AC0DFC305B
:103F9000AD002630AE002B082D0786002C082E3DE4
:103FA000870081144301610862040319DC2F620851
:103FB0008A0061080A009F314C010C08FC00400196
:103FC0006508013E3F39FD007D0864060319F52FA1
:103FD0006508A03E8600033087007C0881007D08CC
:103FE000E5000130AB002B08E307430163086404DC
:103FF0000319080064088A0063080A009F3108005A
:1040000059341C3400340034CE34183459341A3442
:10401000C1342534BA34253400340034003400343B
:1040200000340034003400340034003400340034F0
:1040300000340034003400340034003400340034E0
:104040000034003400340034983426340034003412
:104050006834263474342634003400340034003498
:10406000FF34003400340034FF34003400340034B2
:10407000FF34FF34FF340034FF340034FF340034A5
:10408000FF34FF34FF34FF34FF3480340034003415
:104090000034803400340034003480348034803480
:1040A0000034803400348034003480348034C034B0
:1040B000C034C03480348034803400340034003460
:1040C000FF3FFF3FFF3FFF3FFF3FFF3FFF3FFF3F00
:1040D000FF3FFF3FFF3FFF3FFF3FFF3FFF3FFF3FF0
:1040E000FF3FFF3FFF3FFF3FFF3FFF3FFF3FFF3FE0
:1040F000FF3FFF3FFF3FFF3FFF3FFF3FFF3FFF3FD0
:104B1000FF3FFF3F0800080026140800101208009D
:104B20004C01901708004101901108004C0110122F
:104B300010160800FB3060018C000800F0007008BF
:104B40007A019F0008004001190E890C0139080004
:104B50008B134001EE018B1708004201E201E301D3
:104B60008B138B1708007408F1007308F000A6314E
:104B7000DA26080066080319BF2D0130080000304E
:104B80000800400163080319C72D013008000030F8
:104B9000080044018F0191010530930092019401B6
:104BA000080030084401BA0040012F084401B90050
:104BB000080030084401BC0040012F084401BB003C
:104BC000080030084301EA0040012F084301E900D2
:104BD000080042016A080319EF2D01300800003077
:104BE000080030084201E10040012F084201E000C6
:104BF00008008B13E90158304201DA000230DB0073
:104C00008B1708004201600861040319092E013066
:104C100008000030080040016F08031D0800013043
:104C2000EF0001309A319C220800420160086104C3
:104C3000031908000130E0020030E13B08004001A8
:104C4000B4003408A7312D273008B3002F08B20074
:104C500008008B130130EE002C304201E4000130DB
:104C6000E5008B170800AF002F03031D3A2E40010B
:104C70009916080040019912080040019310131082
:104C8000931294139910191099129A130800400165
:104C9000E9014201DC01DD01DA01DB01E901E801A2
:104CA000080041010C100B1400304001AF0000302F
:104CB000B000A531D12508009011430169086A04AC
:104CC000031908006A088A0069080A00A63108006A
:104CD0002F0830040319080030084301E2004001A6
:104CE0002F084301E10008002F08300403190800D1
:104CF00030084301E00040012F084301DF000800B5
:104D00008B1340016208B2006108B1008B173208B2
:104D1000B0003108AF000800B500350886008701F3
:104D200033088100350A86008701340881000800B5
:104D30002F0830040319080030084301E400400143
:104D40002F084301E30008006400800101310130B5
:104D5000FE020030FF3B7F087E0403190034A52EBD
:104D600044013B083C040319BA2E3C088A003B0866
:104D70000A00A63141018C1208004C0110121016D5
:104D80004101E9014001EB010030F3000230F40081
:104D9000A531B325080000308B1B0130B1008B1307
:104DA0002F08E1043008E204310C031C8B130318B4
:104DB0008B17080000308B1B0130F2008B1370083A
:104DC0004001E1047108E204720C031C8B13031808
:104DD0008B17080098310020A63100304001C20036
:104DE000C300C401470886004808870001089D31B8
:104DF000BB250800A531F925A63100304001C200CD
:104E0000C300C401470886004808870001089D3197
:104E1000BB250800C3004308C4004208C500443055
:104E2000BC000030BD000230BE00BF01BF0AF1303F
:104E3000973148270800C23043019D009C0159303A
:104E40009F008B304401BB002530BC0041018C1217
:104E50009616873043019E000800B10003303102EE
:104E600003183C2F31352B3E860002308700403F2F
:104E7000AF00413FB0000800AF01B0010800A5310C
:104E8000A325A731C9004930C2000030C300C401C6
:104E9000C40A470886004808870001089D31BB25E1
:104EA00008009A311B22A731C9004930C2000030E6
:104EB000C300C401C40A47088600480887000108E7
:104EC0009D31BB2508009A313A22A731C9004930EB
:104ED000C2000030C300C401C40A47088600480865
:104EE000870001089D31BB2508000230C900CA01B6
:104EF000CB014930C2000030C3000330C400470872
:104F000086004808870001089D31BB2508008B13E7
:104F100079011017F0308D008C01A5308E0010152E
:104F200055309100AA30910090149018952F1011CF
:104F300001000800A531E925A7314001C900493029
:104F4000C2000030C300C401C40A470886004808F4
:104F5000870001089D31BB250800A531C125A73177
:104F6000003A031908009831CE20A731FB00013028
:104F70004201DE070030DF3D7B0890319B20A731E6
:104F8000AD2FA531C925A7319D313D25A7319C31D4
:104F90002624A731A7311B27A7319C315924A731DB
:104FA000A5319A25A731A631512608002F08860081
:104FB0003008870041310108B100B2013108B20068
:104FC000B1012F0886003008870031080104AF00C6
:104FD0003208B00008002F0886003008870031082A
:104FE00081003208B3002F08013EB4000030303D8C
:104FF000B5003408860035088700330881000800B2
:105000004F344634463400344F344E340034FF3F7E
:10501000FF3FFF3FFF3FFF3FFF3FFF3FFF3FFF3FA0
:10502000FF3FFF3FFF3FFF3FFF3FFF3FFF3FFF3F90
:10503000FF3FFF3FFF3FFF3FFF3FFF3FFF3FFF3F80
:10504000FF3FFF3FFF3FFF3FFF3FFF3FFF3FFF3F70
:107FF000FF3FFF3FFF3FFF3FFF3FFF3F833F1F3FED
:020000040001F9
:04000E008C3FE53D01
:04001400F43FFF3F77
:00000001FF
