:10200000903136289A1508007E14903100308600F1
:10201000003087000B1F342841019A19901D1428A5
:10202000A631B826903134281A1A101E1B28A53163
:10203000E0259031342819190F1D2528440148083E
:102040008A0047080A009031342899198F1D2F28DB
:10205000440146088A0045080A0090313428961A3F
:102060008C1E3428A631F4267E10090040019031E0
:1020700039284201A531DD259031EF00FC30840084
:1020800026308500F430FE000030FF00A631E8263F
:102090009031FD0165308400003085000B30FE007A
:1020A0000030FF00A631E8269031E5308400003092
:1020B00085000B30FE000030FF00A631E82690318D
:1020C0005A308400013085001530FE000030FF00DA
:1020D000A631E8269031DF308400013085001130D0
:1020E000FE000030FF00A631E82690312030840049
:1020F000023085002330FE000030FF00A631E826C4
:102100009031A0308400023085003830FE0000306D
:10211000FF00A631E826903120308400033085008E
:102120004030FE000030FF00A631E8269031A0309C
:102130008400033085004030FE000030FF00A631EF
:10214000E8267E1040019131C8294001A400AA2947
:10215000AA3040012406031D0800FF30E500FF30CF
:10216000E600EB0101304101EA00080040012408CB
:102170004201EC0040016608F1006508F000240807
:10218000F2009A31C1227108E6007008E5000230C1
:102190004101EA000800393040012402031CD32821
:1021A0004101EA0108002408EC006608F100650816
:1021B000F0002408F2009A31C12290317108E60043
:1021C0007008E5006C08031DE92805304101EA00AC
:1021D000080004304101EA00080040016B08A03EFD
:1021E000860002308700240881000130EB07660872
:1021F000F1006508F0002408F2009A31C122903104
:102200007108E6007008E5006C086B02031C08000A
:10221000E528400124084201EB0006304101EA00B4
:10222000080040012408F600F7017608F700F601DF
:10223000760842016B044001A0007708A1006608FF
:102240002106031D252965082006031D98296A0813
:10225000013AA3002308F600F7017608F00077089A
:10226000F1003A30F2000030F30099313A21903118
:102270007C30F8002730F900700878078600710874
:10228000793D870042016C08810040012308F60077
:10229000F7017608F0007708F1003A30F2000030DC
:1022A000F30099313A2190317D30F8002730F90060
:1022B0007008780786007108793D87006C088100F6
:1022C000A2016C08220203188D292308F600F701E9
:1022D0007608F0007708F1003A30F2000030F300A1
:1022E00099313A2190317E30F8002730F90070089A
:1022F0007807FA007108793DFB0022087A0786000A
:1023000000307B3D87002208A03E8400023085001B
:10231000000881000130A20761292308EA0001308A
:102320004201EA0001304301E5070030E63DD028D4
:1023300001304201E9000130E8000030F3000130D3
:10234000F400A6310B26903101304301E307003041
:10235000E43DD02841016A08F600F7017708003A09
:102360000319B329D0287608003A0319A828013A9E
:102370000319B628033A0319CB28063A0319ED28A6
:10238000013A03190929033A03191129D028080031
:1023900001304301A2000130A30098315620913151
:1023A000A6318D2691311317931714111413A531EB
:1023B000E225913199310721913199317021913183
:1023C0009931A7219131A7311E27913195304001D4
:1023D000AB001830AC00A631312691318B170B17AA
:1023E00064304001AB000030AC00983100209131E6
:1023F0000C304001AB000530AC0001309831EF20CB
:1024000091310C304001AB000530AC000230983106
:10241000EF20913140011A1702304101E4000430ED
:10242000E300BA30890B122AE30B122AE40B122ABA
:10243000000040011A1302304101E4000430E300BF
:10244000BA30890B212AE30B212AE40B212A000050
:10245000A5304001B1000130B200953182259131A3
:10246000003A03193A2AA530D2000130D300933143
:10247000A5239131A4304001AB009831AB209131BC
:10248000003A03194B2A430124084001BA00FF30E7
:10249000A7315D27913140010D1B602A43012203C2
:1024A000031D602AA201A531FB259131003A031DCD
:1024B0005B2A01305C2A0030A63183269131662ADE
:1024C00040010D1F662A01304301A20040018D1B0F
:1024D000842A43012303031D842AA301A631412634
:1024E0009131003A031D7C2A01309B310723913141
:1024F000A631792691318A2A00309B310723913108
:10250000A631002691318A2A40018D1F8A2A013086
:102510004301A3009431572491319231C722913164
:10252000420164080319982AE4019D310225913182
:10253000A63152269131003A031DC32AA631412605
:102540009131013A0319A62A0F30A72A0130A000C1
:1025500020084001AB00AC0101309831EF209131EF
:10256000A531FB259131003A031DB82A0F30B92A55
:1025700001304301A10021084001AB00AC01023051
:102580009831EF2091319431F8249131282A00308C
:10259000A6316F2692312F08BD002E08BC000230F4
:1025A000A6316F2692312F08B8002E08B7000130EF
:1025B000A6316F2692312F08BA002E08B900A53136
:1025C000EB2592314001B200A531E825923140015E
:1025D000BB00A631412692314001B300B4013C0852
:1025E0003D040319FC2A2E303D02183003193C0229
:1025F0000318FC2A0130B4000230AE000030AF00F6
:1026000034080319052B0130062B0030B0006E3062
:10261000B1009B31B9239231B50137083804031951
:102620001A2B2A303802F8300319370203181A2BF4
:102630000130B5000430AE000030AF00350803199A
:10264000232B0130242B0030B0006D30B1009B31C2
:10265000B9239231B6013303031D3B2B39083A04E9
:1026600003193B2B2A303A02F830031939020318B8
:102670003B2B0130B6000830AE000030AF0036080A
:102680000319442B0130452B0030B000EF30B1006E
:102690009B31B92392311030AE000030AF001A30B8
:1026A00032020318552B0130562B0030B000EE30AB
:1026B000B1009B31B92392312030AE000030AF0021
:1026C0004B303B02031C662B0130672B0030B000FF
:1026D000ED30B1009B31B923923164303B02031CD1
:1026E000782B4030AB000030AC0098311B20923189
:1026F0006E080319952B23303D02293003193C0243
:102700000318922B420162086304031D952B0030CD
:102710009B31072392310130AB000030AC0098317F
:102720001B209231A6310026923100304201610215
:10273000323003196002031C080080304001AB00F6
:102740000030AC0098311B200800202C5308C0003A
:102750005208BF00A731DA2708005308C00052080A
:10276000BF00A731A32708005308C0005208BF00CC
:102770009E31BA2608005308C0005208BF009831A5
:10278000082008005308C0005208BF00A731ED27F9
:1027900008005308C0005208BF00983142200800CA
:1027A0005308C0005208BF009F3102270800530899
:1027B000C0005208BF009E31322608005308C000F6
:1027C0005208BF009F31A22708005308C0005208DA
:1027D000BF00A7313D2708005308C0005208BF00C2
:1027E000A7314D2708005308C0005208BF009D3193
:1027F0003B2508005308C0005208BF0098318020D4
:1028000008005308C0005208BF00A731B5270800D0
:102810005308C0005208BF009731E627080053084C
:10282000C0005208BF009D31F42508000330BA00F3
:1028300052088600530887000108A7315D27080069
:1028400052088600530887000108103A0319A62B86
:10285000013A0319AD2B033A0319B42B013A0319BA
:10286000BB2B073A0319C22B013A0319C92B353A7E
:102870000319D02B013A0319D72B033A0319DE2B86
:10288000123A0319E52B023A0319EC2B723A031999
:10289000F32B013A0319FA2B033A0319012C013ADD
:1028A0000319082C073A03190F2C162C08008B1358
:1028B00041016F08031D5E2C8B170800440132088C
:1028C0004001D100440131084001D00044013408E6
:1028D0004001D300440133084001D20044013608CE
:1028E0004001D500440135084001D4004101EF0109
:1028F0008B171A304001AB008130AC009A315A225C
:1029000094312C08CF002B08CE00D6010030BA003D
:102910000030B9000330B800FF30B7005635503EE4
:1029200086008701403FC400413FC5004408AB001A
:102930004508AC00AD01AE014E08AF004F08B00035
:10294000B101B2019C31372494312E08BE002D080C
:10295000BD002C08BC002B08BB009F3152279431CE
:102960003A08C9003908C8003808C7003708C60047
:102970000030BA000030B9000F30B8003C30B7006A
:102980004908AE004808AD004708AC004608AB0057
:102990000030B2000030B1003630B0004C30AF0033
:1029A0009C31372494312E08BE002D08BD002C0820
:1029B000BC002B08BB009F31522794313A08CD0050
:1029C0003908CC003808CB003708CA0056352B3EF2
:1029D0008600023087004A08C03F4B08C13F0130E3
:1029E000D60703305602031C862CA63105260800A4
:1029F0008B13420167084001E2004201E7018B1797
:102A00004001620803190C2D8B13E9015830420173
:102A1000DA000230DB008B179A317C2294314201BC
:102A20005A085B04031D08004001E3019431572458
:102A300094319B314D2394314201EF009B312A2385
:102A400094314201E60057304001B10096318A26A8
:102A5000943143016B0803193C2D4001E4016408E3
:102A6000203E8600023087006408573E84008501BE
:102A7000000801060319402D01304001E300462DF6
:102A80000130E4070B306402031C2F2D6308031D83
:102A9000DF169C316624943157304001B600003077
:102AA000B7000B30B800B901803097310627943158
:102AB000003A0319712D4001E4016408203E8600AC
:102AC000023087006408573E8400850100088100B9
:102AD0000130E4070B306402031C5D2D013043011B
:102AE000EB008B1340016908031D7B2D5830420118
:102AF000DA0002307F2D0A304201DA000030DB00BC
:102B00008B170800BB018B1342016A080319052EBD
:102B100040016A08BC0031088600320887003C0882
:102B2000B300B4013308AB003408AC003A30AD0058
:102B30000030AE009931552195317C30B5002730F9
:102B4000B6002B08350784002C08363D85000008A8
:102B50008100310886003208870041313C08B3000B
:102B6000B4013308AB003408AC003A30AD0000309B
:102B7000AE009931552195317D30B5002730B60032
:102B80002B08350784002C08363D8500000881009D
:102B9000BD013108860032088700413101083D023D
:102BA0000318002E3D083107B3000030323DB40059
:102BB000330886003408870042313C08B500B6016E
:102BC0003508AB003608AC003A30AD000030AE003E
:102BD0009931552195317E30B7002730B8002B0848
:102BE0003707B9002C08383DBA003D083907840082
:102BF00000303A3D8500000881000130BD07C92D35
:102C00004201EA0101304001BB008B1740013B0843
:102C10000800AB00AB1F132E1A15000000000000C7
:102C200040011A11192E1A15000040011A11000056
:102C3000000040012B1F232E1A1500000000000089
:102C400040011A11292E1A15000040011A11000026
:102C500000004001AB1E332E1A15000000000000DA
:102C600040011A11392E1A15000040011A110000F6
:102C7000000040012B1E432E1A150000000000002A
:102C800040011A11492E1A15000040011A110000C6
:102C900000004001AB1D532E1A150000000000007B
:102CA00040011A11592E1A15000040011A11000096
:102CB000000040012B1D632E1A15000000000000CB
:102CC00040011A11692E1A15000040011A11000066
:102CD00000004001AB1C732E1A150000000000001C
:102CE00040011A11792E1A15000040011A11000036
:102CF000000040012B1C832E1A150000000000006C
:102D000040011A1108001A15000040011A110000B4
:102D1000000008000030A6316F2696312F08B3005E
:102D20002E08B2000130A6316F2696312F08B5006B
:102D30002E08B4000230A6316F2696312F08B70056
:102D40002E08B60042016F084001B8004201660833
:102D50004001B900A631412696314001BA00A531A3
:102D6000FB259631BB00A7310F2796312C08BD00FB
:102D70002B08BC00BE013A0303193E143B08031D97
:102D80003E150D1BBE158D1B3E163C083D04031D54
:102D90003E176908031DBE173108AB003308AD00AC
:102DA0003208AC00A631AD2696313108023EAB00A8
:102DB0003508AD003408AC00A631AD269631310897
:102DC000043EAB003708AD003608AC00A631AD2696
:102DD00096313108063E86008701380881003108A7
:102DE000073E86008701390881003108083E8600C9
:102DF00087013E0881003108093EAB003D08AD0067
:102E00003C08AC00A631AD260B3008004101DE00C5
:102E1000393040013802031C0F2F00300800AA305F
:102E20004101A0005E08A100400138084101A20054
:102E3000E20140013808410162020318312F6208A3
:102E4000033EA03E860087016208400136078400E9
:102E50000030373D85000008810001304101E20764
:102E6000192FA1304001B1003808023EB2009A315A
:102E70003822973132084101E10040013108410117
:102E8000E00040013808033EA03E86008701410172
:102E90006008810040013808043EA03E860087019A
:102EA00041016108810040013808053E4101DF0011
:102EB00040013908031D622FA63112269731003ACE
:102EC00003190D2F4101E2015F0862020318782FF8
:102ED0004001AD01AD0A41016208A03E86008701B4
:102EE00001089831D820973101304101E207642F61
:102EF0000130080040016735FC3E8600870126301E
:102F0000873D67350030873D0030C03FC13F4C01F1
:102F1000901CA52F40016708A500A601A535A60DA8
:102F2000FC30A7002630A8002508270786002608C1
:102F3000283D870001154401370838040319A52FDF
:102F400038088A0037080A0097314C01101DC32F3A
:102F500040016708A500A601A535A60DFC30A70015
:102F60002630A8002508270786002608283D870068
:102F70008114440139083A040319C32F3A088A001E
:102F800039080A0097314C010C084001A900670874
:102F9000013E3F39AA002A087D060319DB2F670886
:102FA000A03E860003308700290881002A08E70038
:102FB00001304101E70743015F086004031908007D
:102FC00060088A005F080A00973108004130AF00AE
:102FD000A7310F2797312C08B1002B08B000A6317C
:102FE000A22697314130BA000030BB000230BC004D
:102FF0003F0886004008870001089D31B62508007B
:103000002C084201DF0040012B084201DE000800CD
:10301000A531EB2598314001C1004130BA000030A4
:10302000BB00BC01BC0A3F088600400887000108BD
:103030009D31B62508000B0D0B0D0139AD008B132A
:103040002B084101E50440012C084101E604400140
:103050002D0C031C8B1303188B170800A63119269F
:103060009831003A031908009831C1209831FC00CA
:1030700001304301E7070030E83D7C089031A5208E
:1030800098312E284130B10096318A269831D100EE
:103090004130BA000030BB005108BC003F08860038
:1030A0004008870001089D31B6250800A631212679
:1030B00098319D31782598319C3198249831A731E9
:1030C0007F2798319C31CC249831A531F225983155
:1030D000A631972608002B0886002C08870041316E
:1030E0000108AD00AE012D08AE00AD012B08860031
:1030F0002C0887002D080104AB002E08AC00080046
:103100003F08023EBA000030403DBB003F08860049
:103110004008870041310108BC003F088600400894
:10312000870001089D31B6250800A6316526983133
:103130009931E02198319931202198310130E5070A
:1031400005306502031CA728E501A6315B26013086
:103150004201E4000800AC018B1342016908031925
:10316000BD2840012B088600013087004201680815
:103170008100E90101304001AC008B1740012C08AF
:1031800008007D08A03E8600033087000108F1009A
:103190007D08013E3F39F0007008FD0041019911A2
:1031A00067080319D5280130E7029915710808004E
:1031B0004001AE002D080319E828A63112269831E7
:1031C000003A0319DD282E08AB009B319423080038
:1031D000A63112269831003A03190800E328AD0001
:1031E0002D03031DFB282B084101EE0040012C0894
:1031F0004101ED00080002302D06031D08002B08D8
:103200004101EC0040012C084101EB0008004001A5
:10321000EF014101EF014401AB01AC01AD01AE0191
:10322000AF01B00172304001AB001E30AC00A631DE
:1032300039269931A531E5259931903102200800D0
:1032400040016E0803192D29420162086304031925
:103250002D290130E2020030E33B003042016102DF
:10326000323003196002031808000130E007003013
:10327000E13D0800F401F501701C42297208F407D1
:103280007308F53D0130F235F30D890B4329013008
:10329000F136F00C890B482970087104031D3C2994
:1032A0007508F1007408F0000800AF01B0012B1C94
:1032B0005D292D08AF072E08B03D0130AD35AE0DAC
:1032C000890B5E290130AC36AB0C890B63292B08C6
:1032D0002C04031D57293008AC002F08AB00080050
:1032E000EA014001EB014201EA01E9014001EA0182
:1032F0004C01101210162E304001AB001830AC00FB
:10330000A631DC26993101304001AB002730AC00FA
:10331000A631D02608004030400168020318A429D5
:1033200041016808203E86000330870001084C01F7
:103330008D0041016808013E3F39F0007008E80047
:1033400001304001E807080041011911080041015E
:10335000E501E6014301E901EA014201EE01ED0167
:103360004301EF01EE01ED014001EE014201E201F6
:10337000E301E001E10143010E1808004101661577
:1033800043010E1408007A011D08F200F3017208CF
:10339000F5007308F6001E08F200F3017208F3004E
:1033A000F2017208F7007308F80075087704F90055
:1033B00076087804FA007A08F1007908F00008002D
:1033C000400169080319F32942015C085D040319EF
:1033D000F3290130DC020030DD3B5C085D04031D95
:1033E000F3290130E70042015A085B040319080081
:1033F0000130DA020030DB3B08008B132B0886001B
:10340000870143016708C03F6808C13F40012C089D
:103410008600870143016508C03F6608C13F40013F
:103420002D088600870143016308C03F6408C13F3F
:103430008B1708008B133108B3003008B200B209B3
:10344000B30932084101E505400133084101E605B1
:1034500040013108B3003008B200B209B3093208A4
:103460004301E905400133084301EA058B170800D1
:10347000FF30B300FF30B400B50132083502031845
:10348000552A3408AC003308AB00310835078600F4
:1034900087010108AD009A31E4229A312C08B4006A
:1034A0002B08B3000130B5073D2A3408B2003308B9
:1034B000B10008000B0D0B0D0139AF008B132B0869
:1034C00079018C0040012C0879018D00101710142F
:1034D0000000000079010F084001AE0079010E08DC
:1034E0004001AD002F0C031C8B1303188B172E0803
:1034F000AC002D08AB0008009B3170239A312C08DA
:10350000BE002B08BD003D083E0403190800013031
:10351000BA003B30AB003E08AD003D08AC00A63120
:10352000AD269A313A30B6000030B7000330B8000B
:10353000B901B90A8130973106270800F300A72A9C
:103540000A30A52A0C30A52A0B30F400BA2A7308D9
:10355000F100F2017208003A0319AF2AC02A71087B
:10356000013A0319A02A033A0319A22A013A0319BE
:10357000A42AC02A7408A531F6259A31A531DE2582
:1035800008007208F300F4017308F0067408F106ED
:10359000F501701CD82A7108F4007008F300F436A5
:1035A000F30C08307306F00084307406F100DD2A55
:1035B0000130F136F00C890BD92A0130F5070830BB
:1035C000750203180800C92A2D08AE00AF012E08A5
:1035D000AB062F08AC06B0012B1CFB2A2C08AF0051
:1035E0002B08AE00AF36AE0C08302E06AB00843090
:1035F0002F06AC00002B0130AC36AB0C890BFC2A3B
:103600000130B0070830300203180800EC2A4001EE
:10361000AC002C084301EC0040012C03031D1D2BC2
:10362000991468304001AB00E430890B152BAB0BCB
:10363000152B000040019910080019146830400152
:10364000AB00E430890B222BAB0B222B0000400196
:103650001910080040019A1703304001B0000830EB
:10366000AF007730890B322BAF0B322BB00B322BE4
:10367000003040018C1A0130AB0000308C1B01304F
:10368000AC0000300C1B0130AD000C0E01399B3139
:10369000DF23B1009A133108080040019A17033064
:1036A0004001B0000830AF007730890B552BAF0BCD
:1036B000552BB00B552B003040018C180130AB005E
:1036C00000300C190130AC0000308C190130AD0015
:1036D0000C0801399B31DF23B1009A13310808002F
:1036E0008B1343016A084001AE00430169084001A1
:1036F000AD00AD09AE094101650840012D05AF00DF
:103700004101660840012E05B000410166084301F1
:10371000EA00410165084301E9008B1740013008C8
:10372000AC002F08AB000800410119199C2B400187
:103730002B084C018D00B62B400168080319B62BED
:1037400041016908203E86000330870040012B08B4
:10375000810041016908013E3F394001AC002C085D
:103760004101E900191101304001E8024101191538
:10377000080030080319D92B310886000130870072
:103780000530010203180800310886000130870067
:1037900001308107310886000130870005300106BD
:1037A000031D08002F08AC002E08AB0098311B2029
:1037B0000800310886000130870081010800AE0052
:1037C0002E08031DEE2B2B08031DEE2B2C08031DCA
:1037D000EE2B2D08031DEE2B643008002B08031D73
:1037E000F92B2C08031DF92B2D08031DF92B4B3049
:1037F00008002C08031D012C2D08031D012C32305C
:1038000008002D08031D062C1930080000300800A0
:103810004001B30010303302031808003308B10030
:10382000B2013108AB003208AC000330AD0000300B
:10383000AE00993155219C3130302B078400203067
:103840002C3D80388500003FB400013FB500023FA9
:10385000B6003508963109269C314001340896316E
:1038600009269C31400136089631092608000030AF
:10387000B6000030B5000030B4000030B3002B1C9F
:10388000492C2F08B3073008B43D3108B53D320844
:10389000B63D0130AF35B00DB10DB20D890B4A2CDC
:1038A0000130AE36AD0CAC0CAB0C890B512C2E0894
:1038B0002D042C042B04031D3F2C3608AE003508C4
:1038C000AD003408AC003308AB0008004130AB0059
:1038D0004330AC004530AD009931FD219C310230C0
:1038E0004001BA003B30AB004208AD004108AC00DB
:1038F000A631AD269C313D30AB004408AD004308F5
:10390000AC00A631AD269C313F30AB004608AD007F
:103910004508AC00A631AD269C313A30B6000030E7
:10392000B7000730B800B901813097310627080089
:103930007A01A6138430A600A7011830A800103021
:10394000A9000F30AD00AE01AF01B0018C018D01B7
:103950008E018F01920193019801970196019E01BA
:103960009D0199019A01A3019F01A101A201A40156
:10397000A5010330AB00AC01AA014301E101E20162
:103980004401C101C201410190119A1110121A1291
:1039900084307A01A6000800410199117A3044016F
:1039A000C5001730C600410119118B304401C70012
:1039B0001930C80048304C019200903090002630F9
:1039C000910044308E008F01DB304001AB00253088
:1039D000AC00A631C4269C31EE304001AB0025304E
:1039E000AC00A631D0264401BD01BE014101E90170
:1039F000E80140304001E800E701FD014101E70135
:103A00009915080040016D08031D092D41016E083C
:103A10001D2D6D0841016D06031D162D40016D0819
:103A200041016B06031D162D0F302A2D40016D0834
:103A300041016D06031D232D0F309C3108249D315B
:103A400041016C082E2D40016D0841016B06031DDC
:103A5000312D6E089C3108249D310F309C31082493
:103A60009D310A3040016D020318392D0130ED07F8
:103A70000800ED0108003F0886004008870041313A
:103A8000010303194D2D0230BA003F08860040089B
:103A900087000108A7315D2708003F08860040081D
:103AA000870042315A3001060319602D0430BA00F4
:103AB0003F088600400887000108A7315D270800FD
:103AC0000030BA00BB00BC013F08860040088700F8
:103AD00001089D31B6259D31D0304001C100C9306B
:103AE000890B702DC10B702D0032A731C72708003C
:103AF00040019801990110309A009C01FF3092001A
:103B0000DC3093002B309400083096007D018C014E
:103B10001C3096000330A0008D01C0309700A10139
:103B2000B5018E019801A201FF308F00FF3099008E
:103B3000FF30A300FF309000FF309A00FF30A40058
:103B40000830B80013307C01C1000E307B01A000AA
:103B50007D019101920193019B019C019D01A501B1
:103B6000A601A701B901BA01BB0108004201D800B2
:103B700040013C08013EBD00003003180130BE008A
:103B800000303E02393003193D02031CC92D373085
:103B9000BC0042015808A000D90140013C08420184
:103BA00059020318E62D5908013E203E86000130D7
:103BB0008700590840013A07840000303B3D8500EA
:103BC0000008810001304201D907CD2D203040018D
:103BD000B6000130B7003C08013EB800B901B90A8F
:103BE000F0309731062708003F088600400887001C
:103BF0004131023001060319072E0230BA003F0896
:103C00008600400887000108A7315D2708003F08AB
:103C1000023EAB000030403DAC0098316B209D313E
:103C20002C08B1002B08B0009A311A229D31413086
:103C30004001AF00A7310F279D312C08B1002B08A0
:103C4000B000A631A2269D314130BA000030BB0041
:103C50000230BC003F0886004008870001089D3103
:103C6000B62508003F08860040088700413101035F
:103C70000319442E0230BA003F088600400887002E
:103C80000108A7315D2708003F088600400887002B
:103C9000423102300102031C572E0430BA003F08A3
:103CA0008600400887000108A7315D2708003F080B
:103CB00086004008870042310108A63183269E31E4
:103CC000A531FB259E31C1004130BA000030BB0058
:103CD000BC01BC0A3F0886004008870001089D31EE
:103CE000B62508009931C3219E3171084001A10019
:103CF0007008A000A62E21084401B200400120084F
:103D00004401B10002304001EF0002309A319E229E
:103D1000080021084401B600400120084401B50014
:103D200003304001EF0003309A319E220800210841
:103D30004401B400400120084401B3004001EF01F8
:103D400001304101EF000800EF0108006F08FB009F
:103D5000FC017C08003A0319AE2EA42E7B08013A20
:103D600003197B2E033A0319892E013A0319972E62
:103D7000A42E08003F088600400887004131010357
:103D80000319CC2E0230BA003F0886004008870095
:103D90000108A7315D2708003F088600400887001A
:103DA00042310108C60003304602031CE12E0430F4
:103DB000BA003F088600400887000108A7315D2748
:103DC00008004608A6316F269E312F08C5002E0830
:103DD000C4004608C1004230AF004508B1004408A5
:103DE000B000A631A2269E314130BA000030BB009F
:103DF0000330BC003F0886004008870001089D3161
:103E0000B62508003F0886004008870041310103BD
:103E10000319142F0230BA003F08860040088700BB
:103E20000108A7315D2708003F0886004008870089
:103E3000423102300102031C272F0430BA003F0830
:103E40008600400887000108A7315D2708003F0869
:103E5000860040088700423101089B3107239F31CB
:103E60003F0886004008870042310103031D3C2FB4
:103E7000A63179269F313F2FA63100269F31A631EA
:103E800041269F314001C1004130BA000030BB00E3
:103E9000BC01BC0A3F0886004008870001089D312C
:103EA000B62508000030C2000030C1000030C0005C
:103EB0000030BF003A083904380437040319992F39
:103EC0000130C300BA1B6E2F0130B735B80DB90DE4
:103ED000BA0D890B652F0130C307622F0130BF3542
:103EE000C00DC10DC20D890B6F2F3A083E02031D94
:103EF000832F39083D02031D832F38083C02031D20
:103F0000832F37083B02031C8E2F3708BB0238086B
:103F1000BC3B3908BD3B3A08BE3B3F140130BA36C2
:103F2000B90CB80CB70C890B8F2F0130C302031DDD
:103F30006E2F4208BA004108B9004008B8003F0897
:103F4000B70008003F088600400887004131033071
:103F500001060319B52F0230BA003F088600400859
:103F600087000108A7315D2708003F088600400848
:103F7000870042310108C3003F08860040088700DF
:103F800043310108C1003F088600400887004431E2
:103F90000108C20043080319D92F03304302031854
:103FA000D92F103041020318D92F0B304202031CC5
:103FB000E32F0430BA003F0886004008870001085C
:103FC000A7315D2708004108AB004208AC00430858
:103FD0009831EF209F3108304001AB000730AC0032
:103FE000983100209F3100304001BA00BB00BC0175
:103FF0003F0886004008870001089D31B62508006B
:10400000CC341C3400340034C134183494341B34A0
:104010001934263412342634003400340034003489
:1040200000340034003400340034003400340034F0
:1040300000340034003400340034003400340034E0
:104040000034003400340034DC34263400340034CE
:10405000C4342634D03426340034003400340034E0
:10406000FF34003400340034FF34003400340034B2
:10407000FF34FF34FF340034FF340034FF340034A5
:10408000FF34FF34FF34FF34FF3480340034003415
:104090000034803400340034003480348034803480
:1040A0000034803400348034003480348034C034B0
:1040B000C034C03480348034803400340034003460
:1040C000FF3FFF3FFF3FFF3FFF3FFF3FFF3FFF3F00
:1040D000FF3FFF3FFF3FFF3FFF3FFF3FFF3FFF3FF0
:1040E000FF3FFF3FFF3FFF3FFF3FFF3FFF3FFF3FE0
:1040F000FF3FFF3FFF3FFF3FFF3FFF3FFF3FFF3FD0
:104BB000FF3FFF3FFF3F0800080064342614080051
:104BC000101208004C0190170800410190110800D4
:104BD00042016608080042016F0808004C011012EB
:104BE00010160800FB3060018C000800F00070080F
:104BF0007A019F0008004001190E890C0139080054
:104C00008B134001EE018B1708004201E001E10126
:104C10008B138B1708007408F1007308F000A7319C
:104C20002D27080068080319172E013008000030EE
:104C300008004101670803191F2E013008000030E9
:104C4000080044018F019101053093009201940105
:104C500008002C084401C00040012B084401BF009B
:104C600008002C084401C40040012B084401C30083
:104C700008002C084301E20040012B084301E10039
:104C8000080043016C080319472E0130080000306A
:104C900008008B13E90158304201DA000230DB00D2
:104CA0008B17080042015E085F040319592E01307A
:104CB00008000030080040016F08031D08000130A3
:104CC000EF0001309A319E22080042015E085F0425
:104CD000031908000130DE020030DF3B080040010C
:104CE000B0003008A73191272C08AF002B08AE0088
:104CF00008008B130130EE002C304201E20001303D
:104D0000E3008B170800AB002B03031D8A2E400124
:104D100099160800400199120800400193101310E1
:104D2000931294139910191099129A1308004101C3
:104D30000C100B1400304001AB000030AC00A63169
:104D4000292608002F0886008701300881002F0AD5
:104D5000860087013108810008002B088600870142
:104D60002C0881002B0A860087012D08810008008D
:104D700090114301610862040319080062088A0067
:104D800061080A00A63108002B082C04031908004A
:104D90002C084401BA0040012B084401B900080066
:104DA0002B082C04031908002C084401B80040010A
:104DB0002B084401B70008002B082C040319080035
:104DC0002C084301E00040012B084301DF000800EC
:104DD0006400800101310130FE020030FF3B7F089A
:104DE0007E0403190034E92E4401430844040319E6
:104DF000FE2E44088A0043080A00A63141018C12A5
:104E000008004C01101210164101EA014001EB01AB
:104E10000030F3000230F400A6310B2608008B139B
:104E2000410166084001AE00410165084001AD0046
:104E30008B172E08AC002D08AB0008004001E901DB
:104E40004201DC01DD01DA01DB01E7014301EB0195
:104E500064304201EF00E60108000B0D0B0D013933
:104E6000F2008B1370084101E5047108E604720C2E
:104E7000031C8B1303188B170800A7316E27A7316B
:104E800000304001BA00BB00BC013F08860040086A
:104E9000870001089D31B6250800A6314926A731B3
:104EA00000304001BA00BB00BC013F08860040084A
:104EB000870001089D31B6250800BB003B08BC00F7
:104EC0003A08BD003C30B6000030B7000230B800F0
:104ED000B901B90AF1309731062708008B13690828
:104EE000031D772F0130E9004201DA01DB01643054
:104EF0004201DC000030DD00E7018B170800C23002
:104F000043019D009C0159309F00DC304401C300E7
:104F10002530C40041018C129616873043019E0053
:104F20000800AD0003302D020318A02F2D352B3EB5
:104F3000860002308700403FAB00413FAC000800D4
:104F4000AB01AC010800A531FB25A731C100413000
:104F5000BA000030BB00BC01BC0A3F088600400814
:104F6000870001089D31B62508000230C100C2014A
:104F7000C3014130BA000030BB000330BC003F0821
:104F800086004008870001089D31B62508008B1374
:104F900079011017F0308D008C01A5308E001015AE
:104FA00055309100AA30910090149018D52F10110F
:104FB00001000800A6314126A7314001C10041305F
:104FC000BA000030BB00BC01BC0A3F0886004008A4
:104FD000870001089D31B6250800A531E825A731D5
:104FE0004001C1004130BA000030BB00BC01BC0A26
:104FF0003F0886004008870001089D31B62508005B
:105000004F344634463400344F344E340034FF3F7E
:10501000FF3FFF3FFF3FFF3FFF3FFF3FFF3FFF3FA0
:10502000FF3FFF3FFF3FFF3FFF3FFF3FFF3FFF3F90
:10503000FF3FFF3FFF3FFF3FFF3FFF3FFF3FFF3F80
:10504000FF3FFF3FFF3FFF3FFF3FFF3FFF3FFF3F70
:107FF000FF3FFF3FFF3FFF3FFF3FFF3F143F7F3FFC
:020000040001F9
:04000E008C3FE53D01
:04001400F43FFF3F77
:00000001FF
