:1020000090313228261408007E1490310B1F30289E
:1020100041019A19901D1028A031062090313028D6
:102020001A1A101E1728A0310820903130281919CB
:102030000F1D2128430164088A0063080A009031BB
:10204000302899198F1D2B28430162088A006108E6
:102050000A0090313028961A8C1E3028A031912029
:102060007E100900400190313528703084002730FF
:1020700085008030FE000030FF00A03185209031C7
:102080005D308400003085001330FE000030FF001A
:10209000A031852090314201E801E901EA01EB011C
:1020A000EC01ED01EE01A0308400013085003F30ED
:1020B000FE000030FF00A0318520903120308400E8
:1020C000023085005030FE000030FF00A031852036
:1020D0009031A0308400023085004030FE00003096
:1020E000FF00A0318520903120308400033085002E
:1020F0004030FE000030FF00A03185209031A0303C
:102100008400033085004030FE000030FF00A03125
:1021100085207E10400199314029CC003030860066
:102120000130870010304101EE0000301E00EE0B40
:1021300096284D308600013087001030EE000030C8
:102140001E00EE0BA02820308600013087001030E2
:10215000EE0000301E00EE0BAA285E30D900AB3036
:10216000DA003030DB000130DC004D30DD000130C2
:10217000DE002030DF000130E00042014C08A131D8
:102180001B2190313630A000AB30A10030309831A7
:102190000120903120082104031D8F292030A13116
:1021A00059219031200821040319DE282030A7315D
:1021B0002127903126084201E000E0284201E00199
:1021C000A9304101A000AB30A1004D309831012071
:1021D000903120082104031D08290530A000420188
:1021E00060084101A1000130A13186219031083001
:1021F0004001DD000730DE0099304101C600AA3001
:10220000C700A930C800AB30C900A031BA2008000F
:102210009230A000AB30A1004D30983101209031B8
:1022200020082104031D2F290A30A0004201600864
:102230004101A1000130A1318621903108304001D7
:10224000DD000730DE0099304101C600AA30C7002A
:102250009230C800AB30C900A031BA2008007F30EE
:10226000A000AB30A1004D30983101209031200802
:102270002104031D56290D30A000420160084101D0
:10228000A1000130A1318621903108304001DD00EC
:102290000730DE0099304101C600AA30C7007F3008
:1022A000C800AB30C900A031BA2008009830A000A7
:1022B000AB30A1004D30983101209031200821042D
:1022C000031D7D290F30A000420160084101A100DB
:1022D0000130A1318621903108304001DD00073006
:1022E000DE0099304101C600AA30C7009830C8000E
:1022F000AB30C900A031BA2008001130C600AA30A6
:10230000C7004D30C8000130C900A031BA2090315B
:102310006530C600A830C700A031BA2008004030A0
:10232000A000AB30A100303098310120903120085E
:102330002104031D5C2A2030A1315921903120084D
:1023400021040319AB292030A73121279031260819
:102350004201E000AD294201E001A9304101A000A5
:10236000AB30A1004D30983101209031200821047C
:10237000031DD5290530A000420160084101A100DC
:102380000230A1318621903108304001DD00073054
:10239000DE00AE304101C600AA30C700A930C80037
:1023A000AB30C900A031BA2008009230A000AB3099
:1023B000A1004D3098310120903120082104031DE7
:1023C000FC290A30A000420160084101A10002304E
:1023D000A13186219031AE304101C600AA30C7003C
:1023E0009230C800AB30C900A031BA20083040019B
:1023F000DD000730DE0008007F30A000AB30A10018
:102400004D3098310120903120082104031D232AEA
:102410000D30A000420160084101A1000230A1314D
:102420008621903108304001DD000730DE00AE30FB
:102430004101C600AA30C7007F30C800AB30C900D8
:10244000A031BA2008009830A000AB30A1004D3078
:1024500098310120903120082104031D4A2A0F30B1
:10246000A000420160084101A1000230A131862193
:10247000903108304001DD000730DE00AE30410110
:10248000C600AA30C7009830C800AB30C900A031E0
:10249000BA2008001130C600AA30C7004D30C8006D
:1024A0000130C900A031BA209031B430C600A83044
:1024B000C700A031BA2008004A30A000AB30A1000C
:1024C000303098310120903120082104031D242B45
:1024D000CB30A000AB30A1004D30983101209031BD
:1024E00020082104031D8E2AA2319922903121084F
:1024F0004201C100410120084201C000C330410136
:10250000C600AA30C700420141084101C90042018A
:1025100040084101C800A031BA200800C930A0001D
:10252000AB30A1004D3098310120903120082104BA
:102530000319A62AB630A000AB30A1004D30983167
:102540000120903120082104031DD02A0030A3313E
:102550000223903105304101EF000F30EE00F130E1
:10256000890BB02AEE0BB02AEF0BB02AA2319922C8
:10257000903121084201C300410120084201C200FC
:10258000C3304101C600AA30C700420143084101DF
:10259000C900420142084101C800A031BA20080028
:1025A0003E30A000AB30A1004D3098310120903179
:1025B000200821040319E82ABA30A000AB30A1009A
:1025C0004D3098310120903120082104031D122B39
:1025D0000130A3310223903105304101EF000F306B
:1025E000EE00F130890BF22AEE0BF22AEF0BF22A01
:1025F000A2319922903121084201C50041012008F1
:102600004201C400C3304101C600AA30C7004201E4
:1026100045084101C900420144084101C800A031F8
:10262000BA2008001130C600AA30C7004D30C800DB
:102630000130C900A031BA2090318E30C600A930D7
:10264000C700A031BA200800A430A000AB30A10020
:10265000303098310120903120082104031DEC2BEB
:10266000CB30A000AB30A1004D309831012090312B
:1026700020082104031D562BA1319E2190312108F1
:102680004201C700410120084201C6000D3041014E
:10269000C600AB30C700420147084101C9004201F2
:1026A00046084101C800A031BA200800C930A00086
:1026B000AB30A1004D309831012090312008210429
:1026C00003196E2BB630A000AB30A1004D3098310D
:1026D0000120903120082104031D982B0030A031E7
:1026E0006220903105304101EF000F30EE00F130F3
:1026F000890B782BEE0B782BEF0B782BA1319E21D9
:10270000903121084201C900410120084201C8005E
:102710000D304101C600AB30C700420149084101FC
:10272000C900420148084101C800A031BA20080090
:102730003E30A000AB30A1004D30983101209031E7
:10274000200821040319B02BBA30A000AB30A1003F
:102750004D3098310120903120082104031DDA2BDF
:102760000130A0316220903105304101EF000F307F
:10277000EE00F130890BBA2BEE0BBA2BEF0BBA2B14
:10278000A1319E21903121084201CB004101200856
:102790004201CA000D304101C600AB30C700420102
:1027A0004B084101C90042014A084101C800A0315B
:1027B000BA2008001130C600AA30C7004D30C8004A
:1027C0000130C900A031BA209031B830C600A9301C
:1027D000C700A031BA2008006730A000AB30A100CC
:1027E000303098310120903120082104031D7F2CC6
:1027F0005430A000AB30A1004D3098310120903111
:1028000020082104031D1F2C0030A33177239031B1
:1028100021084201DF00410120084201DE0057305B
:102820004101C600AA30C70042015F084101C9004A
:1028300042015E084101C800A031BA2008009E3064
:10284000A000AB30A1004D3098310120903120081C
:102850002104031D462C0130A33177239031210838
:102860004201DF00410120084201DE00D830410171
:10287000C600AA30C70042015F084101C9004201F9
:102880005E084101C800A031BA2008006F30A000E6
:10289000AB30A1004D309831012090312008210447
:1028A000031D6D2C0230A3317723903121084201A2
:1028B000DF00410120084201DE0084304101C600F2
:1028C000AA30C70042015F084101C90042015E0809
:1028D0004101C800A031BA2008001130C600AA305A
:1028E000C7004D30C8000130C900A031BA20903176
:1028F000FB30C600A830C700A031BA2008008C30D9
:10290000A000AB30A1003030983101209031200878
:102910002104031DBF2CCB30A000AB30A1004D30F3
:1029200098310120903120082104031DAD2CA331E2
:102930004F2390314201DD00FC304101C600AA3036
:10294000C70042015D084101EE00EF016E08C800BA
:102950006F08C900A031BA2008001130C600AA30A3
:10296000C7004D30C8000130C900A031BA209031F5
:102970004030C600AA30C700A031BA200800863017
:10298000A000AB30A10030309831012090312008F8
:102990002104031DFF2CCB30A000AB30A1004D3033
:1029A00098310120903120082104031DED2CA33122
:1029B000272390314201DD00EB304101C600AA30EF
:1029C000C70042015D084101EE00EF016E08C8003A
:1029D0006F08C900A031BA2008001130C600AA3023
:1029E000C7004D30C8000130C900A031BA20903175
:1029F0002930C600AA30C700A031BA2008002B3009
:102A0000A000AB30A1003030983101209031200877
:102A10002104031D212DF830C600A930C700A031C4
:102A2000BA20903103304101EF000830EE007730DA
:102A3000890B182DEE0B182DEF0B182DA131082145
:102A400008006E30C600AA30C7003030C800013020
:102A5000C900A031BA2090310030C600A830C700AC
:102A6000A031BA20080023088039AD002335B30017
:102A7000A21B3314330803194A2D330A031D482DB2
:102A80000030A3000030A2000030A1000030A00000
:102A9000A217522D0030A3000030A2000030A10088
:102AA0000030A00027088039A8002808AD06273587
:102AB000AE00A61B2E142E0803196B2D2E0A031D23
:102AC000692D0030A7000030A6000030A5000030BE
:102AD000A400A617732D0030A7000030A600003018
:102AE000A5000030A4002E08031D3308031D812D0E
:102AF0000030A3000030A2000030A1000030A00090
:102B000008002008F0002608A2317A2295317108C9
:102B1000B9007008B8003808A800A901AA01AB01E3
:102B20002B08B2002A08B1002908B0002808AF001D
:102B30003908A800A901AA01AB012B08B7002A088F
:102B4000B6002908B5002808B4002108F0002508BF
:102B5000A2317A2295317108B9007008B80038089E
:102B6000A800A901AA01AB012808AF072908B03DB8
:102B70002A08B13D2B08B23D3908A800A901AA01D5
:102B8000AB012808B4072908B53D2A08B63D2B0833
:102B9000B73D2208F0002408A2317A22953171084D
:102BA000B9007008B8003808A800A901AA01AB0153
:102BB0002808AF072908B03D2A08B13D2B08B23DCF
:102BC0003908A800A901AA01AB012808B4072908FF
:102BD000B53D2A08B63D2B08B73D0830AF35B00DDE
:102BE000B10DB20D890BEE2D2108F0002408A231A1
:102BF0007A2295317108B9007008B8003808AF071B
:102C00003908B03D0030B13DB23D2008F000250844
:102C1000A2317A2295317108B9007008B8003808DD
:102C2000AF073908B03D0030B13DB23D0830AF3597
:102C3000B00DB10DB20D890B172E2008F00024083D
:102C4000A2317A2295317108B9007008B8003808AD
:102C5000AF073908B03D0030B13DB23D2108F0006A
:102C60002608A2317A2295317108B9007008B8009F
:102C70003808B4073908B53D0030B63DB73D2208E5
:102C8000F0002508A2317A2295317108B900700848
:102C9000B8003808B4073908B53D0030B63DB73D37
:102CA0002208F0002608A2317A2295317108B90075
:102CB0007008B8003808A8003908A900AA01AB01BB
:102CC0000830A835A90DAA0DAB0D890B612E280877
:102CD000B4072908B53D2A08B63D2B08B73D320890
:102CE000A800A901AA01AB012808B4072908B53D2D
:102CF0002A08B63D2B08B73D0830AF35B00DB10DF1
:102D0000B20D890B7D2E33082E07A800A901A90D4D
:102D10002808823EB800FF30293DB900B61BA52E19
:102D20000130B435B50DB60DB70D890B912EB21B20
:102D300034140130AF35B00DB10DB20D890B9A2EA0
:102D4000FF30B807FF30B93D8E2EAE01B21FBE2E48
:102D5000FF302F05A800FF303005A900FF303105F6
:102D6000AA007F303205AB002B082A04290428046E
:102D700003193418BC2EBE2EAE01AE0A2E0803195C
:102D8000E72E0130B4070030B53D0030B63D0030CD
:102D9000B73D371CE72E3408A8003508A9003608CF
:102DA000AA003708AB000130AC00AB37AA0CA90C65
:102DB000A80CAC0BD52E2B08B7002A08B6002908A2
:102DC000B5002808B4000130B8070030B93D390813
:102DD000803AA80080302802031DF02EFF30380210
:102DE000031CFC2E7F304001B7008030B60000305D
:102DF000B5000030B400222F40013908803AA80005
:102E000080302802031D062F013038020318132FCB
:102E100000304001B7000030B6000030B50000308F
:102E2000B400AD01222F40013808B300FF30B405D3
:102E3000FF30B5057F30B6050030B7053318B6173B
:102E40003336B7002D08A8002808B7043708A300B8
:102E50003608A2003508A1003408A0000800F800D8
:102E60007808031DF31F442F7009FA007109FB0055
:102E70007209FC007309FD00FA0A0319FB0A031921
:102E8000FC0A0319FD0A4C2F7308FD007208FC00B0
:102E90007108FB007008FA00730872047104700472
:102EA000031D5B2F0030F3000030F2000030F10012
:102EB0000030F00008009630F900FE307D0503195F
:102EC000802F0130F4007408F9070130FD36FC0C46
:102ED000FB0CFA0C890B662F5D2F0130F40074088F
:102EE000F9070130FA070030FB3D0030FC3D0030AF
:102EF000FD3D0130FD36FC0CFB0CFA0C890B7A2FE2
:102F0000FF307D050319922F6D2F02307902031CCB
:102F1000942F0130F9020130FA35FB0DFC0DFD0D47
:102F2000890B8C2FFC1F852F79189E2FFF30FA05F7
:102F3000FF30FB057F30FC05FF30FD050310F90C69
:102F40007908F400F501F601F7011830F435F50DB4
:102F5000F60DF70D890BA62F7408FA047508FB040B
:102F60007608FC047708FD047808031DF31FB92FC9
:102F7000FD177D08F3007C08F2007B08F1007A0859
:102F8000F000080040019801990110309A009C015E
:102F9000FF309200DC3093002B3094000830960014
:102FA0007D018C011C3096000330A0008D01C030E3
:102FB0009700A101B5018E019801A201FF308F0099
:102FC000FF309900FF30A300FF309000FF309A00DF
:102FD000FF30A4000830B80013307C01C1000E306F
:102FE0007B01A0007D019101920193019B019C0155
:102FF0009D01A501A601A701B901BA01BB01080005
:103000000800A30012282308860001308700010869
:10301000031920280130A2002208A3070130A007CD
:103020000030A13D20088400210885000008A2008E
:1030300023088600013087000108220603190328AF
:1030400023088600013087002008840021088500BD
:1030500000080102A000A101031CA1030800BA009E
:103060003A08A231DF229831420169084101B900D2
:10307000420168084101B800BB01BC0141013808A8
:103080003904031D8E2841013A08A7319027983151
:103090002708BE002608BD003D0A031D62283E0A1F
:1030A000031D6228420168086904031D5C28410170
:1030B0003B083C04031D9A2841013E08B5003D0829
:1030C000B400080020303D063E0403196E28F73096
:1030D0003D07B60005303602031878283E08A100E7
:1030E0003D08A0003A08A200A431902498319A2803
:1030F00034083504031984283B08340786003C084B
:10310000353D87003D0881000130BB070030BC3DE4
:1031100001304301C7070030C83D3E283C08803AD3
:10312000B6003908803A3602031D982838083B0259
:10313000031C43284101340835040319A7283B0820
:10314000340786003C08353D87000030810040018F
:103150006308031DAD280130AE2800304101B600E0
:10316000B7013608B4003708B5000800F000F01FBA
:10317000C12840011A1500000000000040011A118A
:10318000C82840011A15000040011A110000000073
:10319000701FD22840011A150000000000004001F5
:1031A0001A11D92840011A15000040011A11000017
:1031B0000000F01EE32840011A1500000000000086
:1031C00040011A11EA2840011A15000040011A11A5
:1031D00000000000701EF42840011A1500000000D5
:1031E000000040011A11FB2840011A15000040019F
:1031F0001A1100000000F01D052940011A150000F9
:103200000000000040011A110C2940011A150000AD
:1032100040011A1100000000701D162940011A1506
:1032200000000000000040011A111D2940011A157C
:10323000000040011A1100000000F01C2729400185
:103240001A1500000000000040011A112E2940014B
:103250001A15000040011A1100000000701C3829E6
:1032600040011A1500000000000040011A1108007A
:1032700040011A15000040011A110000000008006A
:10328000A13144219931A031582099311317931756
:1032900014111413A0310A209931C8304101A00043
:1032A0002030A100A031362099318B170B176430E4
:1032B0004001DD000030DE000C304101A00005308F
:1032C000A1000130A131862199310C304101A000CB
:1032D0000530A1000230A1318621993140011A1731
:1032E000DD304101C600A930C700A031BA209931B4
:1032F00002304201E2000430E100BA30890B7E293D
:10330000E10B7E29E20B7E29000040011A130230F6
:103310004201E2000430E100BA30890B8D29E10B53
:103320008D29E20B8D290000A03146209931003A09
:103330000319E529A2315D2299314201E7000D30E0
:103340006706031DB9290D30A031AC2099310A3030
:10335000A031AC20993142016E08A03E86000230B7
:1033600087008101A03090318D2099314201EE011A
:10337000E52908306706031DD2296E080319E529DF
:103380000130EE026E08A03E860002308700810107
:103390000830A031AC2099312030A031AC209931D7
:1033A0000830E2293F306E020318E5296E08A03E7E
:1033B000860002308700670881000130E100610863
:1033C000EE076708A031AC20993140010D1BFF29A1
:1033D00042016303031DFF29E301A0311A20993143
:1033E0004201E5006508031DFA290130A031622081
:1033F0009931052A0030A03162209931052A400117
:103400000D1F052A4201E301E30A40018D1B1F2A1B
:1034100042016403031D1F2AE401A031F720993102
:103420004201E6006608031D1A2A0130A331022377
:103430009931252A0030A33102239931252A4001F0
:103440008D1F252A4201E401E40A40015D085E0463
:10345000031D9429A031F72099314201E600660846
:10346000031D342A0F30382A6603031D3B2A03301C
:103470004101A0003E2A4101A001A00AA1010130A2
:10348000A13186219931A0311A2099314201E500FC
:103490006508031D542A0F304101A000A10102302C
:1034A000A1318621993194294101A001A00AA101ED
:1034B0000230A1318621993194291A30F0008130EF
:1034C000F100A23140229A3171084001D500700804
:1034D000D4000A30A1312F219A317C084001DB0051
:1034E0007B08DA004430BD007F30BC00C030BB0038
:1034F0000030BA005408F0005508F100F201F30161
:10350000003097312F279A317308A3007208A20068
:103510007108A1007008A0005A08F0005B08F100D3
:10352000F201F301003097312F279A317308A70079
:103530007208A6007108A5007008A4009531332513
:103540009A312308C1002208C0002108BF002008CA
:10355000BE009D3117259A313D08D9003C08D8009E
:103560003B08D7003A08D6005908A7005808A6001B
:103570005708A5005608A4004030A3006430A200FC
:103580001A30A1004230A000953133259A3123082A
:10359000BD002208BC002108BB002008BA00A631EB
:1035A00057269A313B08E0003A08DF000C30A13181
:1035B0002F219A317C084001DB007B08DA0044307F
:1035C000BD007F30BC00C030BB000030BA005408E2
:1035D000F0005508F100F201F301003097312F2778
:1035E0009A317308A3007208A2007108A100700844
:1035F000A0005A08F0005B08F100F201F30100306E
:1036000097312F279A317308A7007208A600710816
:10361000A5007008A400953133259A312308C10014
:103620002208C0002108BF002008BE009D311725D8
:103630009A313D08D9003C08D8003B08D7003A0829
:10364000D6005908A7005808A6005708A500560834
:10365000A4004030A3006430A2001A30A100423020
:10366000A000953133259A312308BD002208BC0003
:103670002108BB002008BA00A63157269A313B0822
:103680004301DE0040013A084301DD000B30A13167
:103690002F219A317C084001DB007B08DA0044309E
:1036A000BD007F30BC00C030BB000030BA00540801
:1036B000F0005508F100F201F301003097312F2797
:1036C0009A317308A3007208A2007108A100700863
:1036D000A0005A08F0005B08F100F201F30100308D
:1036E00097312F279A317308A7007208A600710836
:1036F000A5007008A400953133259A312308C10034
:103700002208C0002108BF002008BE009D311725F7
:103710009A313D08D9003C08D8003B08D7003A0848
:10372000D6005908A7005808A6005708A500560853
:10373000A4004030A3006430A2001A30A10042303F
:10374000A000953133259A312308BD002208BC0022
:103750002108BB002008BA00A63157263B084301C8
:10376000DC0040013A084301DB0008002E08860017
:103770008701403FB000413FB1003008840031086C
:1037800085001200253A031DFD2C2E0886008701B6
:103790000130810741310318810A4301C301C4018B
:1037A00003100030031801304001E100FF304301F5
:1037B000C500FF30C60041012E0886008701403F4A
:1037C000B600413FB7003608840037088500120074
:1037D000643A0319F32B3608840037088500120079
:1037E000693A031D732C2F088600870101088400A5
:1037F000850102308107003FB900013FBA00360859
:10380000013EB0000030373DB1002E088600870130
:103810003008C03F3108C13F2030BD00BA1F122C14
:103820000130132C0030B800182C3D080319472C28
:103830000130BD023D08203E8600023087000A307C
:10384000A0000030A1003A08A3003908A200A4316A
:10385000CD249B312108A8002008A700A0319E207C
:103860009B312708303E81000A30A0000030A100C3
:103870003A08A3003908A200A5315C259B31210834
:10388000BA002008B90039083A04031D152C3D0878
:103890000319562C38080319562C0130BD023D0877
:1038A000203E8600023087002D30810020303D060A
:1038B000031908003D08203E8600023087000108F9
:1038C000B000B1013008A3003108A4002D08A60003
:1038D0002C08A500A531AD259B3101304101B00078
:1038E0003008BD07562CB8012E0886008701403FDE
:1038F000B000413FB100300884003108850012005B
:10390000733A031D882C2E08860087010130BF2CD6
:103910002E0886008701403FB000413FB1003008CB
:1039200084003108850012006C3A031DC52C2E0856
:1039300086008701403FB000413FB10001303007B1
:10394000840031080318310A850012006C3A031D07
:10395000C52C2E0886008701403FB000413FB100D2
:1039600002303007840031080318310A8500120044
:10397000733A031DC52C2E0886008701033081078A
:1039800041310318810AB801B80A38080319F32C29
:103990002F08860087010108840085010230810715
:1039A000003FB400013FB5003408840035088500AD
:1039B0001200031908003408840035088500000847
:1039C000B000B1013008A3003108A4002D08A60002
:1039D0002C08A500A531AD259B3101304101B4076C
:1039E0000030B53DD42C41012E08860087010130FE
:1039F000810741310318810A08002E0886008701DB
:103A0000403FB000413FB1003008840031088500DC
:103A10000008B200B3013208A3003308A4002D0847
:103A2000A6002C08A500A531AD259B31F32C41083B
:103A30008039CB004135D200C01B52145208031903
:103A40002F2D520A031D2C2D0030C1000030C00064
:103A50000030BF000030BE00C017C101372D00305C
:103A6000C1000030C0000030BF000030BE003D0883
:103A70008039C2004208CB063D35D300BC1B53142D
:103A800053080319512D530A031D4E2D0030BD005C
:103A90000030BC000030BB000030BA00BC17BD01D4
:103AA000592D0030BD000030BC000030BB0000309C
:103AB000BA003D083C043B043A04031D782D003055
:103AC000C1000030C0000030BF000030BE008030B8
:103AD000C0047F30C1044B08C2004208C104410841
:103AE000BD004008BC003F08BB003E08BA0008000B
:103AF0005208031D842D0030BD000030BC00003092
:103B0000BB000030BA0008005208C200C3014308DD
:103B1000C50053084202C400031CC50344087F3E8D
:103B2000CC000030453DCD004108CA004008C90026
:103B30003F08C8003E08C7000030C1000030C00088
:103B40000030BF000030BE000030D1000030D00097
:103B50000030CF000030CE00D3011A3053020318DA
:103B6000E92D53080319CB2D0130C735C80DC90DF8
:103B7000CA0D890BB52D0130BE35BF0DC00DC10D6D
:103B8000890BBC2DD11B3E140130CE35CF0DD00D8D
:103B9000D10D890BC52D3D084A02031DD92D3C08C6
:103BA0004902031DD92D3B084802031DD92D3A08AF
:103BB0004702031CE42D51173A08C7023B08C83BD3
:103BC0003C08C93B3D08CA3B0130C2004208D3074C
:103BD000AD2D4A08490448044704031D4E14C01B78
:103BE000062E0130BE35BF0DC00DC10D890BF22D63
:103BF000D11B3E140130CE35CF0DD00DD10D890B28
:103C0000FB2DFF30CC07FF30CD3DEF2DD301D11F71
:103C10001F2EFF304E05C200FF304F05C300FF309E
:103C20005005C4007F305105C500450844044304D5
:103C3000420403193E181D2E1F2ED301D30A530828
:103C40000319482E0130BE070030BF3D0030C03D93
:103C50000030C13D411C482E3E08C2003F08C30051
:103C60004008C4004108C5000130C600C537C40C77
:103C7000C30CC20CC60B362E4508C1004408C00058
:103C80004308BF004208BE000130CC070030CD3DE4
:103C90004D08803AC20080304202031D512EFF3091
:103CA0004C02031C602EFF304001CC000030CD00E0
:103CB0000030C1000030C0000030BF000030BE0046
:103CC00040014D08803AC20080304202031D6A2E36
:103CD00001304C020318782E4001CC01CD01003098
:103CE000C1000030C0000030BF000030BE00CB017A
:103CF00040014C08D200521C7F2EC017832E7F300B
:103D0000C2004208C0055236C1006B2DCB003F08EF
:103D100086008701403FC100413FC2004108840046
:103D2000420885001200253A031D632F3F088600D4
:103D300087010130810741310318810A00304201B7
:103D4000E800E900680869040319A82E0130A92ECB
:103D500000304001E30041013F0886008701403FF9
:103D6000C100413FC20041088400420885001200A2
:103D7000733A0319D12E3F0886008701403FA00007
:103D8000413FA100B230A200AB30A3000330A40039
:103D90000030A500A53112259E3120082104031D05
:103DA000152F3F0886008701403FC100413FC200F8
:103DB00041088400420885001200733A0319E22E7C
:103DC0000330E32E0130C9000030CA003F088600EE
:103DD00087014908810741314A08813D7F3140010F
:103DE0006308031D052F4101400886008701010873
:103DF0008400850102308107003FC500013FC600F5
:103E00004608B5004508B400092F00304101B40050
:103E1000B5004B0898312F203508C8003408C7007A
:103E20004808C0004708BF0008003F088600870117
:103E3000403FC100413FC200410884004208850064
:103E40001200253A031D5A2F4B08A231DF229E3162
:103E500041014B08A73190279E312708CD00260845
:103E6000CC0025304C064D04031D472F3F0886002B
:103E700087010130810741310318810A0130430174
:103E8000C7070030C83D4101BF01C00108004C0A0E
:103E900003194D0A0319542F4D08A1004C08A00026
:103EA0004B08A200A4319024FE304101BF00FF3036
:103EB000C00008003F0886008701013081074131BA
:103EC0000318810A432F4B08A73190279E312708FA
:103ED000CD002608CC003F0886008701403FC10086
:103EE000413FC20041088400420885001200203A88
:103EF00003198C2F3F0886008701403FC100413FD6
:103F0000C20041088400420885000008F73EC30053
:103F1000053043020318DF2F3F0886008701013078
:103F2000810741310318810A3F0886008701403F1D
:103F3000C100413FC20041088400420885001200D0
:103F4000203A03198C2F3F0886008701403FC100AB
:103F5000413FC20041088400420885000008F73E46
:103F6000C300053043020318C42F8C2F01304301D6
:103F7000C7070030C83D41014B08A73190279E314B
:103F80002708CD002608CC0020304C064D0403192C
:103F9000B62FF7304C07C10005304102031CB62F85
:103FA0004C0A03194D0A0319432F4D08A1004C0870
:103FB000A0004B08A200A43190249E31432F3F085B
:103FC00086008701403FC100413FC2004108840094
:103FD000420885000008C300C4014D084406031DC3
:103FE000F32F4C0843060319362F4C0A031D4C2FA0
:103FF0004D0A031D4C2FFF30BF00FF30C0000800EA
:10400000FF3FFF3FFF3FFF3FFF3F080090110800C9
:10401000101208004C01901708004C0110121016E5
:104020000800FB3060018C000800F00070087A0185
:104030009F0008004001190E890C01390800031087
:104040007A01261C03140030093D080044018F0149
:104050009101053093009201940108002108430169
:10406000D400410120084301D30008002108430186
:10407000E000410120084301DF000800400167081B
:10408000031944280130080000300800400164088A
:1040900003194C28013008000030080041010C10C1
:1040A0000B140030A0000030A100A0312E20080029
:1040B0004001931013109312941399101910991230
:1040C0009A1308004101A0002003031D6A28400143
:1040D00099160800400199120800200821040319CC
:1040E000080021084201ED00410120084201EC00D6
:1040F0000800200821040319080021084201EB00F0
:10410000410120084201EA000800640080010131F9
:104110000130FE020030FF3B7F087E0403190034AB
:10412000862843015F08600403199B2860088A0001
:104130005F080A00A03141018C120800A81F080086
:104140002709A9002809AA00A90A0319AA0A290807
:10415000A7002A08A80008004101A200A0313E20C3
:10416000A031003A0319AE2841012208A000A23173
:10417000BC220800C830CA000030BE00BF0047089B
:10418000C1004608C000CA30C200A131B8210800F1
:10419000A1316F21A031A331F623A0315D085E0467
:1041A000031908000130DD020030DE3B0800A031B9
:1041B0004620A031003A0319D728A2315D22A4007D
:1041C000A5012408A2002508A3000800C23043016D
:1041D0009D009C0159309F000030DF001830E00046
:1041E00041018C129616873043019E000800400161
:1041F0006A08031DFD2800300800233060022930C2
:1042000003195F02031C0629023008000130080070
:104210008B1379011017F0308D008C01A5308E00C2
:10422000101555309100AA3091009014901816295D
:104230001011010008004101E100DB30E2006108DB
:10424000E300E501E601EA01EB015A08CF00590855
:10425000CE00E230D000E330A63102260800FD0097
:104260007D08A0311520A13190310220A131A0316B
:104270001F20A131003A03193729A23124227108E5
:10428000FC007008FB000800A0312620A131973106
:10429000C227A131A4312824A131A031E620A131C7
:1042A000A4315B24A131A0311120A131A0314E20D5
:1042B0000800A4002408A300240886000130870019
:1042C0000108031968290130A2002208A4075C290B
:1042D00023082402A000A101A01BA10308004001A3
:1042E0006B080319772905306B06031D7A299A316B
:1042F0005D22A1310A3040016B020318842901308C
:10430000DC005C08EB070800EB010800A2002203B8
:10431000031D922920084001EF00410121084001BE
:10432000EE00080002302206031D080020084001AC
:10433000ED00410121084001EC000800A0311A20E5
:10434000A1314101A2002208031DAB29B630A00013
:10435000AB30A10008002203031DB329BA30A0002E
:10436000AB30A10008001D30A000AB30A100080058
:104370004108C5004008C400440884004508850081
:1043800012000319CF293F08AD003E08AC00C4302D
:10439000AE004208AF009B31B623A131BC29BE015B
:1043A000BF010800F401F501701CDA297208F40756
:1043B0007308F53D0130F235F30D890BDB2901302F
:1043C000F136F00C890BE02970087104031DD42923
:1043D0007508F1007408F0000800A401A501201C74
:1043E000F5292208A4072308A53D0130A235A30D15
:1043F000890BF6290130A136A00C890BFB29200876
:104400002104031DEF292508A1002408A0000800AD
:104410004030400167020318212A6808203E8600C8
:104420000330870001084C018D0040016808013EFF
:104430003F39F1007108E8000130F0007008E7072B
:1044400008004101191108001D08F200F30172086B
:10445000F5007308F6001E08F200F3017208F3007D
:10446000F2017208F7007308F80075087704F90084
:1044700076087804FA007A08F1007908F00008005C
:1044800000308B1B0130F4008B13700879018C0015
:1044900071088D00101710140000000079010F083A
:1044A000F3000E08F200740C031C8B1303188B1717
:1044B0007308F1007208F00008006508A03E86004D
:1044C0000330870001084101A10040016508013E59
:1044D0003F394101A00020084001E5004101991148
:1044E000400164080319762A0130E402410199155C
:1044F00021080800F800F401F5017008F200F3014A
:104500007208F6007308F700781C8A2A7608F40708
:104510007708F53D0130F635F70D890B8B2A03102E
:10452000F80C7808031D842A7508F1007408F0005F
:104530000800A031F720A2314101A2002208031D8A
:10454000A62AB630A000AB30A10008002203031D4C
:10455000AE2A7730A000AB30A1000800023022065E
:10456000031DB72ABA30A000AB30A10008001D30EF
:10457000A000AB30A10008001919C22A20084C0184
:104580008D00DC2A400167080319DC2A6908203EF7
:10459000860003308700410120088100400169083E
:1045A000013E3F394101A10021084001E9004101DC
:1045B000191101304001E702410119150800B1004D
:1045C0003108A7319027A2312708B3002608B2008E
:1045D000320A0319330A0319080020303206330463
:1045E0000319E02AF7303207B00005303002031C0F
:1045F000E02A3308A1003208A0003108A200A4314B
:10460000902408004101A10021084001EA00410175
:104610002103031D192B4001991468304101A000AA
:10462000E430890B112BA00B112B000040019910D5
:1046300008004001191468304101A000E430890BE2
:104640001F2BA00B1F2B0000400119100800400178
:104650009A1768304101A400E430890B2D2BA40B7C
:104660002D2B0000003040018C1A01304101A000C8
:10467000003040018C1B01304101A100003040019D
:104680000C1B01304101A20040010C0E0139A33185
:10469000A023A50040019A1341012508080040010C
:1046A0009A1768304101A400E430890B552BA40B04
:1046B000552B0000003040018C1801304101A00052
:1046C000003040010C1901304101A10000304001CF
:1046D0008C1901304101A20040010C080139A331BD
:1046E000A023A50040019A13410125080800A2005B
:1046F0002208031D842B400160084101A1004001F4
:104700005F084101A000080002302206031D912B22
:1047100043015E084101A10043015D084101A00081
:1047200008002203031D9D2B43015C084101A100E9
:1047300043015B084101A0000800A001A10108009D
:104740004101A3002308031DB02B2008031DB02B3B
:104750002108031DB02B2208031DB02B6430080074
:104760002008031DBB2B2108031DBB2B2208031DA2
:10477000BB2B4B3008002108031DC32B2208031D4F
:10478000C32B323008002208031DC82B1930080043
:1047900000300800F800103078020318080078088C
:1047A000F600F7017608F0007708F1000330F20018
:1047B0000030F300A131D221A3315E3070078400B4
:1047C0002930713D80388500003FF900013FFA0033
:1047D000023FFB007A089831B620A331790898315E
:1047E000B620A3317B089831B62008006B08031D62
:1047F000FB2B6F080A2C6B086E06031D052C6B083B
:104800006C06031D052C0F30152C6B086E06031D5E
:10481000102C0F30A331CA23A33140016D08192C8D
:104820006B086C06031D1C2C6F08A331CA23A3312F
:104830000F30A331CA23A3310A3040016B020318A1
:10484000262C0130FC007C08EB070800EB01080077
:104850007A01A6138430A600A7011830A8001030F2
:10486000A9000F30AD00AE01AF01B0018C018D0188
:104870008E018F01920193019801970196019E018B
:104880009D0199019A01A3019F01A101A201A40127
:10489000A5010330AB00AC01AA014301D701D80147
:1048A000D501D601410190119A1110121A128430CB
:1048B0007A01A600080041019911B8304301E100D6
:1048C0002630E2004101191108304301E300223093
:1048D000E40048304C019200903090002630910066
:1048E00044308E008F0105304101A0002030A1002E
:1048F000A0316D20A4310D304101A0002030A10075
:10490000A03179204301D101D2014001E901E80140
:104910004030E700E601E501E40141019915080096
:10492000200A0319210A031908002208031DAB2CD1
:10493000033040016206031908006208C03E860089
:10494000013087004101200881000130A3002308C5
:104950004001E20708002208073E86008701160092
:10496000033AA3001600A304031908002208073E17
:104970008600870101082207A3002308043E860061
:104980008701200881002208073E86008701013048
:10499000810741310318810A0800A601A31FD72C03
:1049A000A209A309A20A0319A30AA601A60AA11F24
:1049B000DE2CA009A109A00A0319A10A20082104DC
:1049C0000319052DA501A50AA11BF02C0130A03566
:1049D000A10D890BE72C0130A4002408A507E42CC5
:1049E00021082302031DF62C20082202031CFC2CA4
:1049F0002008A2022108A33B0130A136A00C890B9C
:104A0000FD2C0130A502031DF02C260803190D2DE5
:104A1000A209A309A20A0319A30A2308A1002208D4
:104A2000A00008000130A4020030A53B240A031DA9
:104A3000442D250A031D442DA001A10108002208D0
:104A4000840023088500120003194B2D2408250437
:104A500003194B2D22088400230885000008A600B6
:104A6000200884002108850000082606031D4B2D20
:104A70000130A0070030A13D0130A2070030A33D66
:104A80000130A4020030A53B2008840021088500E5
:104A90001200031D1F2D2008840021088500000836
:104AA000A600220884002308850000082602A00032
:104AB000A101031CA1030800A601A11F662DA009E6
:104AC000A109A00A0319A10AA601A60AA31F712D14
:104AD000A209A309A20A0319A30A0130A400240809
:104AE000A606A701A801200821040319A02DA501ED
:104AF000A50AA11B852D0130A035A10D890B7C2DA8
:104B00000130A4002408A507792D0130A735A80D90
:104B1000890B862D21082302031D902D20082202D7
:104B2000031C972D2008A2022108A33B2714013063
:104B3000A136A00C890B982D0130A502031D852DEF
:104B400026080319A82DA709A809A70A0319A80A66
:104B50002808A1002708A00008002508260403193A
:104B6000B52D25082604031DB92D2308A031AC203E
:104B70000800250886002608870049311600010430
:104B80000319E02D25088600260887004931403F9B
:104B9000A700413FA800250886002608870042316B
:104BA000403FA900413FAA002A08803AAB002808EC
:104BB000803A2B02031DDE2D270829020318080066
:104BC0004101250886002608870042312508840017
:104BD00026088500403F0007A7000131413F003D06
:104BE000A8002708860028088700230881002508D8
:104BF00086002608870042310130810741310318C1
:104C0000810A0800D4004F08D8004E08D70043019D
:104C1000C701C801C901CA014C084101D3004301C1
:104C20004B084101D2004101570884005808850013
:104C300012000319352E4301CB01CC01D7304101BD
:104C4000BF005008C00054089E318626A631400897
:104C5000D6003F08D500D61B352E55084301C9079D
:104C6000410156084301CA3D132E53084301CC00AD
:104C7000410152084301CB004101550A031D4E2E4C
:104C8000560A031D4E2E430149084A04031D4E2EA9
:104C900041015608CF005508CE00080043014A08DC
:104CA0004101CF00430149084101CE000800031033
:104CB0003C0D3D0DC3004308031D672E0030BD00B1
:104CC0000030BC000030BB000030BA0008003A08D9
:104CD000BE003B08BF003C08C0003D08C1001F30BB
:104CE000C136C00CBF0CBE0C890B702E3E08C20032
:104CF000BC17FF30BA05FF30BB05FF30BC050030E4
:104D0000BD059630C302C31F982E4308803A973ED4
:104D1000031C5E2E0130BD36BC0CBB0CBA0C890BDB
:104D20008B2E0130BE003E08C3070319A92E8A2E20
:104D30002030430203185E2E43080319A92E0130C8
:104D4000BA35BB0DBC0DBD0D890BA02E0130C302C1
:104D50009C2E420803190800BA09BB09BC09BD0909
:104D6000BA0A0319BB0A0319BC0A0319BD0A0800D1
:104D700040016608F000F101F035F10D7030F200ED
:104D80002730F3007008720786007108733D8700B2
:104D90000030C03FC13F4C01901CE92E4001660825
:104DA000F000F101F035F10D7030F2002730F30022
:104DB0007008720786007108733D87000115420173
:104DC0006A086B040319E92E6B088A006A080A0056
:104DD000A6314C01101D072F40016608F000F101BB
:104DE000F035F10D7030F2002730F30070087207D3
:104DF00086007108733D8700811442016C086D04C0
:104E00000319072F6D088A006C080A00A7314C01AE
:104E10000C08F40040016608013E3F39F5007508B2
:104E20006506031908006608A03E86000330870067
:104E3000740881007508E6000130F0007008E4078E
:104E40000800AD00AB01AC01AA012D0886000130BD
:104E5000870020300106031D322F0130A8002808EA
:104E6000AD07252F2D08860001308700F730010798
:104E7000A80005302802031C2D2F2D0886000130C4
:104E800087002D300106031D482FAA01AA0A772F9B
:104E90002D088600013087002B3001060319772F7B
:104EA0002D08860001308700D0300107A8000A30A5
:104EB000280203187C2F2D088600013087002C085B
:104EC000A1002B08A0000A30A2000030A300A131ED
:104ED000ED21A7312108A90001082002A800031C28
:104EE000A9032808303EAB000030293DAC0001305A
:104EF000A8002808AD07502F2A08031D8B2F2B0967
:104F0000A8002C09A900A80A0319A90A2808A600C4
:104F10002908A70008002C08A7002B08A6000800F5
:104F2000AF002F08031DAF2F40016208031DA02F03
:104F3000A031D720A7312308AE002208AD00FB2FF7
:104F40000130E2026208C03E86000130870001089D
:104F50004101A800A9012808AD002908D22F2F0877
:104F6000073E86008701160001040319D42F2F087D
:104F7000073E86008701FF3081074131FF30813DC8
:104F80007F31403FA800413FA90028082F07AA0011
:104F90002A08043E860087010108AB00AC012B08FB
:104FA000AD002C08AE00FB2F2F08860087012F08CC
:104FB000023E8400850100080107A8002808860039
:104FC000023087000108A900AA012908AD002A08BB
:104FD000AE002D082E04031DF22FFF30AD00FF3070
:104FE000AE00FB2F2F08023E8600870101308107AB
:104FF00041310318810A2E08A7002D08A6000800D9
:1050000049346D3470346C3465346D3465346E34C9
:10501000743465346434203463346F346D346D34E7
:1050200061346E34643473342034613472346534E2
:1050300020344E3445344F34503449345834453498
:105040004C3431342C3420344E3445344F345034C5
:105050004934583445344C3432342C3420344834B8
:105060004F3455345334453448344F344C3444343D
:105070002C342034503455344D3450342C342034B6
:1050800056344F344C3454344134473445342C3442
:105090002034573441345434453452342C34203481
:1050A000573441345334543445342C34203442344E
:1050B0004F344F3454344C344F34413444344534F9
:1050C00052342E340D340A3400344F347034743476
:1050D00069346F346E34733420346134723465341F
:1050E00020344E3445344F345034493458344534E8
:1050F0004C34313420343C3463346F346C346F348A
:1051000072343A3420346334793461346E342C345C
:1051100020346F346C346934763465342C34203464
:10512000733469346C347634653472342C342034FE
:1051300062346C34613463346B343E3420343C3438
:1051400064347534743479346334793463346C344E
:1051500065343A3420343C3430342D3431343034F6
:105160003E340D340A3400345534733465342034FD
:105170004E3445344F3450344934583445344C342B
:10518000323420343C3463346F346C346F347234D2
:105190003A3420346334793461346E342C3420341E
:1051A0006F346C346934763465342C342034733481
:1051B00069346C347634653472342C34203462347F
:1051C0006C34613463346B343E3420343C346434A6
:1051D0007534743479346334793463346C346534BD
:1051E0003A3420343C3430342D34313430343E348D
:1051F0000D340A3400345534733465342034563455
:105200004F344C34543441344734453420343C34E6
:105210006334683461346E346E3465346C343A34DB
:10522000203468346F3475347334653468346F34C3
:105230006C3464342C3420346D34613469346E340D
:1052400073342C34203473347434613472347434D1
:10525000653472343E340D340A3400345B34243403
:10526000003400345D342234BC34223446342034DB
:105270003E34203400340034003400340034003430
:10528000003400340034003400340034003400347E
:10529000003400340034003400340034003400346E
:1052A0000034003400340034003400346D342034D1
:1052B000793420340034003400340034FF340034B6
:1052C00000340034FF34003400340034FF34FF3441
:1052D000FF340034FF340034FF340034FF34FF3433
:1052E000FF34FF34FF348034003400340034803421
:1052F000003400340034803480348034003480340E
:1053000000348034003480348034C034C034C0343D
:1053100080348034803400340034003455347334A5
:105320006534203448344F3455345334453448348C
:105330004F344C34443420343C347334743461344A
:10534000743465343A3420343F342C3420343034CF
:105350002C34203431342C3420344F344634463409
:105360002C3420344F344E343E340D340A3400345F
:105370005534733465342034503455344D345034FE
:1053800020343C34733474346134743465343A34C6
:1053900020343F342C34203430342C342034313415
:1053A0002C3420344F34463446342C3420344F349B
:1053B0004E343E340D340A340034433461346D3499
:1053C000703465347234203449346E347434653446
:1053D0007234663461346334653420345234753445
:1053E0006E346E3469346E3467340D340A340034EC
:1053F00042344F344F3454344C344F3441344434B9
:1054000045345234203465346E3474346534723427
:1054100069346E3467342E342E342E340D340A340D
:10542000003455346E346B346E346F3477346E34EC
:10543000203470346134723461346D3465347434C2
:10544000653472343A342034253473340D340A34DC
:105450000034553473346534203457344134533474
:105460005434453420343C347334743461347434EB
:1054700065343A3420343F343E340D340A34003439
:1054800055347334653420345734413454344534FE
:10549000523420343C34733474346134743465349D
:1054A0003A3420343F343E340D340A340034563418
:1054B0004F344C3454344134473445342034683408
:1054C0006F3475347334653468346F346C346434D9
:1054D0003D34253464340D340A34003455346E348C
:1054E0006B346E346F3477346E34203463346F34FD
:1054F0006D346D3461346E3464343A342034253480
:1055000073340D340A34003456344F344C3454342C
:105510004134473445342034733474346134723444
:105520007434653472343D34253464340D340A34B3
:1055300000344E3445344F345034493458344534B3
:105540004C343134203473347434613474346534FD
:105550003D34253473340D340A3400344E3445342C
:105560004F3450344934583445344C343234203478
:10557000733474346134743465343D342534733495
:105580000D340A34003448344F34553453344534E0
:1055900048344F344C3444342034733474346134DC
:1055A000743465343D34253473340D340A34003496
:1055B00056344F344C345434413447344534203419
:1055C0006D34613469346E3473343D34253464345D
:1055D0000D340A3400345734413453345434453490
:1055E0002034763461346C34753465343D3425347C
:1055F00064340D340A34003457344134543445345F
:1056000052342034763461346C34753465343D342E
:10561000253464340D340A340034503455344D3458
:1056200050342034733474346134743465343D340C
:10563000253473340D340A34003455346E346B34ED
:105640006E346F3477346E34203473347434613490
:1056500074346534003442344F344F3454344C3451
:105660004F34413444344534523400344E3445349C
:105670004F3450344934583445344C343134003488
:105680004E3445344F3450344934583445344C3416
:105690003234003448344F3455345334453448346C
:1056A0004F344C344434003468346F3475347334BC
:1056B000653468346F346C346434003425347334A6
:1056C0002034253473342034253473340034563474
:1056D0004F344C34543441344734453400347334FB
:1056E0007434613472347434653472340034503438
:1056F00045344E34443449344E34473400347334E2
:1057000069346C347634653472340034573441343F
:1057100053345434453400345734413454344534CC
:10572000523400346F346C34693476346534003468
:1057300062346C34613463346B3400346D346134FE
:1057400069346E3473340034503455344D3450342D
:1057500000346334793461346E34003442341A34A2
:10576000643440346C346C34733400344F34463415
:10577000463400344F344E340034143481341234FF
:1057800081341A348134E0342E3418342E342834E1
:105790002334303400343F340034FF3FFF3FFF3FB9
:1057A000FF3FFF3FFF3FFF3FFF3FFF3FFF3FFF3F09
:1057B000FF3FFF3FFF3FFF3FFF3FFF3FFF3FFF3FF9
:1057C000FF3FFF3FFF3FFF3FFF3FFF3FFF3FFF3FE9
:1057D000FF3FFF3FFF3FFF3FFF3FFF3FFF3FFF3FD9
:107FF000FF3FFF3FFF3FFF3FFF3FFF3F823F183FF5
:020000040001F9
:04000E008C3FE53D01
:04001400F43FFF3F77
:00000001FF
