:10200000903136289A1508007E14903100308600F1
:10201000003087000B1F342841019A19901D1428A5
:10202000A7310C27903134281A1A101E1B28A6310C
:102030002D269031342819190F1D252844014008F8
:102040008A003F080A009031342899198F1D2F28E3
:1020500044013E088A003D080A0090313428961A4F
:102060008C1E3428A73154277E100900400190317E
:1020700039284201A6312A269031EE0070308400C2
:10208000273085008030FE000030FF00A731482750
:10209000903160308400003085001030FE00003048
:1020A000FF00A73148279031E330840000308500DD
:1020B0000D30FE000030FF00A731482790315A3024
:1020C0008400013085001430FE000030FF00A7318D
:1020D00048279031E1308400013085000E30FE0049
:1020E0000030FF00A73148279031203084000230B3
:1020F00085001B30FE000030FF00A73148279031DB
:10210000A0308400023085003A30FE000030FF002D
:10211000A7314827903120308400033085004030BB
:10212000FE000030FF00A73148279031A030840026
:10213000033085004030FE000030FF00A731482703
:102140007E1040019031A42801304301A3000130EA
:10215000A40098319B209031A631E12690311317CD
:10216000931714111413A6312F269031993107219A
:1021700090319A310E2290319A312B229031A73131
:102180006127903185304001A4001930A500A631A7
:102190007D2690318B170B1764304001A40000306E
:1021A000A500A631952690310C304001A4000530E1
:1021B000A500013099311F2190310C304001A4005D
:1021C0000530A500023099311F219031A6313B2600
:1021D00090314301A00040011A1703304001DF0095
:1021E0000830DE007730890BF328DE0BF328DF0B95
:1021F000F32840011A1368304001DE00E430890BF7
:10220000FF28DE0BFF28000007304301A600400135
:102210001A17430120084001DE004301260A40014D
:102220001229DE36890B11295E1C24290230400157
:10223000DF000430DE00BA30890B1C29DE0B1C29BC
:10224000DF0B1C2900002D2934304001DE00F13065
:10225000890B2829DE0B2829003240011A13683027
:102260004001DE00E430890B3329DE0B3329000006
:10227000FF304301A607A61F072940011A170330A4
:102280004001DF000830DE007730890B4529DE0B86
:102290004529DF0B452940011A13A7304001A4004E
:1022A0000130A5009D3183259031003A03195F2943
:1022B000A730CB000130CC0093319A239031A53068
:1022C0004001A4009831DA209031003A03197C29AA
:1022D000430125084001B300FF30A731BA279031F0
:1022E00043012503031D7C2900304001A700013074
:1022F000A800A6315E269031A7318B279031003A95
:10230000031989290030A7000230A800A6315E26F3
:1023100090310D1B9D2943012303031D9D29A3011A
:10232000A63147269031003A031D9829013099299A
:102330000030A631D7269031A32940010D1FA329D3
:1023400001304301A30040018D1BC1294301240337
:10235000031DC129A401A6318D269031003A031D29
:10236000B92901309B313A239031A631CD269031E5
:10237000C72900309B313A239031A6314C26903149
:10238000C72940018D1FC72901304301A4009431A2
:102390004C24903192310522903142016208031998
:1023A000D529E2019D310D259031A631A626903127
:1023B000003A031D012AA6318D269031013A0319F6
:1023C000E3290F30E42901304301A1002108400135
:1023D000A400A501013099311F219031A631472673
:1023E0009031003A031DF6290F30F72901304301DF
:1023F000A20022084001A400A501023099311F214A
:1024000090319431EB2490314D290030A631C32610
:1024100092312808B6002708B5000230A631C3263D
:1024200092312808B1002708B0000130A631C32638
:1024300092312808B3002708B200A631382692311D
:102440004001AB00A631352692314001B400A631DF
:102450008D2692314001AC00AD01350836040319D8
:102460003A2A2E30360218300319350203183A2A58
:102470000130AD000230A7000030A8002D0803197C
:10248000432A0130442A0030A9006D30AA009B3154
:10249000C7239231AE01300831040319582A2A307B
:1024A0003102F830031930020318582A0130AE0007
:1024B0000430A7000030A8002E080319612A01305B
:1024C000622A0030A9006C30AA009B31C7239231E8
:1024D000AF012C03031D792A320833040319792A2A
:1024E0002A303302F830031932020318792A0130F6
:1024F000AF000830A7000030A8002F080319822A77
:102500000130832A0030A9006B30AA009B31C72319
:1025100092311030A7000030A8001A302B020318A7
:10252000932A0130942A0030A9006A30AA009B3116
:10253000C72392312030A7000030A8004B3034026E
:10254000031CA42A0130A52A0030A9006930AA0082
:102550009B31C723923164303402031CB62A4030C9
:10256000A4000030A5009831742092316D08031941
:10257000D32A233036022930031935020318D02A12
:10258000420160086104031DD32A00309B313A23C5
:1025900092310130A4000030A500983174209231AE
:1025A000A6314C26923100304101640232300319C9
:1025B0006302031C080080304001A4000030A50025
:1025C000983174200800732BAA307B06031D732BEF
:1025D00040016A08031D732BFF30E000FF30E1006B
:1025E000EB0101304101EA0005304001E900732BA5
:1025F0007B084501A00040016108F1006008F0007F
:102600007B08F2009A31F42292317108E1007008DF
:10261000E00002302B2B39307B02031C142B4101CC
:10262000EA014001E901732B7B084501A10040014B
:102630006108F1006008F0007B08F2009A31F42292
:1026400092317108E1007008E0007B08031D2A2B1D
:1026500004302B2B03304101532BA230F600023003
:10266000F70040016B08760786000030773D870051
:102670007B0881000130EB076108F1006008F00081
:102680007B08F2009A31F42292317108E10070085F
:10269000E0004501210840016B020318282B732B31
:1026A0007B08E9000530EA00732B7B08F600F70190
:1026B0007608F700F60176086904F9007708FA0051
:1026C000400161087A06031D672B60087906031D27
:1026D0006C2B0130EA000F2B01304101E800013082
:1026E000E7000F2BEA01A63165269231003A031963
:1026F0000800993137219231FB006A08F600F70192
:102700007708003A0319852B722B7608003A0319D3
:10271000E42A013A0319F82A033A03190B2B013A68
:1027200003192D2B073A0319502B013A0319552B86
:10273000722B732B152C4C08B9004B08B80098313C
:102740003B2008004C08B9004B08B8009831042021
:1027500008004C08B9004B08B8009E31BA260800A2
:102760004C08B9004B08B8009831612008004C08AB
:10277000B9004B08B80098314E2008004C08B90049
:102780004B08B8009831872008004C08B9004B0866
:10279000B8009F31022708004C08B9004B08B80068
:1027A0009E317A2608004C08B9004B08B8009F31CA
:1027B000A22708004C08B9004B08B800A7319A2797
:1027C00008004C08B9004B08B800A731AA27080038
:1027D0004C08B9004B08B8009D31462508004C084C
:1027E000B9004B08B8009831C52008004C08B90062
:1027F0004B08B8009831162008004C08B9004B0867
:10280000B80099319F2108004C08C0004B08BF0058
:102810009E313C2608000330B3004B0886004C086C
:1028200087000108A731BA2708004B0886004C082A
:1028300087000108103A03199B2B013A0319A22BB8
:10284000033A0319A92B013A0319B02B073A0319CC
:10285000B72B013A0319BE2B353A0319C52B013AA0
:102860000319CC2B033A0319D32B123A0319DA2B91
:10287000023A0319E12B723A0319E82B013A0319C2
:10288000EF2B033A0319F62B013A0319FD2B073AF4
:102890000319042C0B2C08008B1340016E08031D38
:1028A000532C8B170800440132084001CA00440130
:1028B00031084001C900440134084001CC00440102
:1028C00033084001CB00440136084001CE004401EA
:1028D00035084001CD00EE018B171A30A40081307D
:1028E000A5009A318D2294312508C8002408C7001C
:1028F000CF010030B3000030B2000330B100FF3030
:10290000B0004F35493E86008701403FBD00413F42
:10291000BE003D08A4003E08A500A601A701470887
:10292000A8004808A900AA01AB019C3145249431B4
:102930002708B7002608B6002508B5002408B4000B
:102940009F31522794313308C2003208C100310848
:10295000C0003008BF000030B3000030B2000F30BC
:10296000B1003C30B0004208A7004108A600400872
:10297000A5003F08A4000030AB000030AA003630AC
:10298000A9004C30A8009C31452494312708B70099
:102990002608B6002508B5002408B4009F31522748
:1029A00094313308C6003208C5003108C40030082D
:1029B000C3004F352B3E8600023087004308C03FDE
:1029C0004408C13F0130CF0703304F02031C792C6C
:1029D000A631512608008B13420166084001DB0036
:1029E0004201E6018B1740015B080319FF2C8B1392
:1029F000E80158304201DA000230DB008B179A31CF
:102A0000AF22943142015A085B04031D08004001C3
:102A1000DC0194314C2494319B3180239431420168
:102A2000EE009B315D2394314201E40050304001BF
:102A3000AA009531F52594314201650803192F2D1F
:102A40004001DD015D08203E8600023087005D0800
:102A5000503E84008501000801060319332D013022
:102A60004001DC00392D0130DD070B305D02031C15
:102A7000222D5C08031DD8165030AF000030B00086
:102A80000B30B100B2018030963171269431003A9A
:102A90000319632D4001DD015D08203E86000230F0
:102AA00087005D08503E84008501000881000130E8
:102AB000DD070B305D02031C4C2DDF304401A805FF
:102AC00001304201E5008B1340016808031D6D2DA4
:102AD00058304201DA000230712D0A304201DA002A
:102AE0000030DB008B170800A400A41F7E2D1A15F0
:102AF00000000000000040011A11842D1A1500008A
:102B000040011A11000000004001241F8E2D1A15EB
:102B100000000000000040011A11942D1A15000059
:102B200040011A11000000004001A41E9E2D1A153C
:102B300000000000000040011A11A42D1A15000029
:102B400040011A11000000004001241EAE2D1A158C
:102B500000000000000040011A11B42D1A150000F9
:102B600040011A11000000004001A41DBE2D1A15DD
:102B700000000000000040011A11C42D1A150000C9
:102B800040011A11000000004001241DCE2D1A152D
:102B900000000000000040011A11D42D1A15000099
:102BA00040011A11000000004001A41CDE2D1A157E
:102BB00000000000000040011A11E42D1A15000069
:102BC00040011A11000000004001241CEE2D1A15CE
:102BD00000000000000040011A1108001A15000052
:102BE00040011A110000000008000030A631C32681
:102BF00095312808AC002708AB000130A631C32668
:102C000095312808AE002708AD000230A631C32652
:102C100095312808B0002708AF0042016E08400136
:102C2000B100420164084001B200A6318D26953101
:102C30004001B300A63147269531B400A7317C2767
:102C400095312508B6002408B500B70133030319F0
:102C500037143408031D37150D1BB7158D1B371698
:102C600035083604031D37176808031DB7172A08EF
:102C7000A4002C08A6002B08A500A7310127953138
:102C80002A08023EA4002E08A6002D08A500A731A0
:102C9000012795312A08043EA4003008A6002F0819
:102CA000A500A731012795312A08063E8600870135
:102CB000310881002A08073E86008701320881001A
:102CC0002A08083E86008701370881002A08093E45
:102CD000A4003608A6003508A500A73101270B304F
:102CE00008004101DE00393040013102031C7A2E18
:102CF00000300800AA304101A0005E08A100400198
:102D000031084101A200E2014001310841016202A3
:102D100003189C2E6208033EA03E860087016208CD
:102D200040012F0784000030303D850000088100FD
:102D300001304101E207842EA1304001AA00310890
:102D4000023EAB009A316B2296312B084101E10023
:102D500040012A084101E00040013108033EA03E45
:102D60008600870141016008810040013108043E6E
:102D7000A03E8600870141016108810040013108C1
:102D8000053E4101DF0040013208031DCD2EA63172
:102D900057269631003A0319782E4101E2015F0867
:102DA00062020318E32E4001A601A60A410162084F
:102DB000A03E8600870101089831F020963101304D
:102DC0004101E207CF2E0130080040016435703E1A
:102DD000860087012730873D64350030873D00300D
:102DE000C03FC13F4C01901C102F40016408A0005F
:102DF000A101A035A10D7030A2002730A30020084A
:102E0000220786002108233D870001154301610840
:102E100062040319102F62088A0061080A009731C2
:102E20004C01101D2E2F40016408A000A101A03507
:102E3000A10D7030A2002730A300200822078600D1
:102E40002108233D870081144301630864040319AA
:102E50002E2F64088A0063080A0097314C010C0881
:102E6000FC0040016408013E3F39FD007D08630617
:102E70000319452F6408A03E8600033087007C08B4
:102E800081007D08E4000130E20743016508660423
:102E90000319080066088A0065080A0097310800CF
:102EA000B501B6010030A631C32697312808AF001E
:102EB0002708AE000230A631C32697312808B1009A
:102EC0002708B0000130A631C32697312808B30087
:102ED0002708B200A631382697314001AC00A63150
:102EE000352697314001B400A6318D269731400137
:102EF000AD002E082F040319842F2E302F02183016
:102F000003192E02031CB5143008310403198F2F46
:102F10002A303102F83003193002031C35152D0315
:102F2000031D9D2F3208330403199D2F2A303302CD
:102F3000F83003193202031CB5151A302C02031C99
:102F400035164B3034020318B516643034020318BA
:102F50003517003041016402323003196302031C4B
:102F6000B32F4001B51740013608AB003508AA0061
:102F700008009931D421973171084001A1007008EF
:102F8000A000EC2F21084401B200400120084401B8
:102F9000B10002304001EF0002309A31D122080026
:102FA00021084401B600400120084401B500033067
:102FB0004001EF0003309A31D1220800210844017A
:102FC000B400400120084401B3004001EF0101308A
:102FD000EE000800EF0108006F08FB00FC017C0810
:102FE000003A0319F42FEA2F7B08013A0319C22F84
:102FF000033A0319D02F013A0319DE2FEA2F0800F4
:10300000FB3060018C000800A63147269831BA00D9
:103010003A30B3000030B400B501B50A3808860074
:103020003908870001089D31FE2508000230BA00EA
:10303000BB01BC013A30B3000030B4000330B5002E
:10304000380886003908870001089D31FE250800F0
:103050008B1379011017F0308D008C01A5308E0094
:10306000101555309100AA30910090149018362810
:10307000101101000800A6318D2698314001BA00D8
:103080003A30B3000030B400B501B50A3808860004
:103090003908870001089D31FE250800A631352634
:1030A00098314001BA003A30B3000030B400B501A5
:1030B000B50A380886003908870001089D31FE25C9
:1030C0000800A631382698314001BA003A30B300E2
:1030D0000030B400B501B50A380886003908870009
:1030E00001089D31FE2508000B0D0B0D0139A600CE
:1030F0008B1324084101E504400125084101E60441
:103100004001260C031C8B1303188B1708003A3060
:10311000AA009531F5259831CA003A30B300003045
:10312000B4004A08B500380886003908870001084D
:103130009D31FE250800A6316D2698319D31C025B0
:1031400098319C31A5249831A731DC2798319C31E6
:10315000D8249831983100209831A631EB26080008
:10316000240886002508870041310108A600A70130
:103170002608A700A601240886002508870026083F
:103180000104A4002708A50008003808023EB30087
:103190000030393DB40038088600390887004131D5
:1031A0000108B500380886003908870001089D31FC
:1031B000FE250800A5018B13410168080319EC28BE
:1031C0004001240886000130870041016708810022
:1031D000E80101304001A5008B17400125080800D7
:1031E0004001A700260803190029A6315726983167
:1031F000003A0319F5282708A4009A314A2208004A
:10320000A63157269831003A03190800FB284001DF
:10321000EF01EE014401AB01AC01AD01AE01AF0124
:10322000B001B9304001A4001730A500A6318526B1
:103230009931A63132269931903102200800A6003A
:103240002603031D2B2924084101EE004001250817
:103250004101ED00080002302606031D0800240885
:103260004101EC00400125084101EB00080040014C
:103270006308A03E8600033087000108F100630860
:10328000013E3F39F0007008E3004101991140010F
:10329000620803194D290130E202410199157108B4
:1032A0000800403040016502031868296608203E86
:1032B00086000330870001084C018D00400166083C
:1032C000013E3F39F0007008E6000130E5070800D4
:1032D00041011911080040016D08031978294201C4
:1032E00060086104031978290130E0020030E13BF5
:1032F00000304101640232300319630203180800F0
:103300000130E3070030E43D0800A631B9269931C9
:103310009931F121993199316B219931A7316E277A
:10332000993101304201E30705306302031C9B29F8
:10333000E301A631AF2601304201E20008003A3035
:10334000A800A7317C2799312508AA002408A900E4
:10335000A631F62699313A30B3000030B40002307D
:10336000B500380886003908870001089D31FE2520
:103370000800A801A901241CC1292608A8072708BC
:10338000A93D0130A635A70D890BC2290130A5360C
:10339000A40C890BC72924082504031DBB2929086F
:1033A000A5002808A40008007A011D08F200F30116
:1033B0007208F5007308F6001E08F200F3017208A7
:1033C000F300F2017208F7007308F800750877043B
:1033D000F90076087804FA007A08F1007908F0001C
:1033E0000800400168080319042A42015C085D04D2
:1033F0000319042A0130DC020030DD3B5C085D0467
:10340000031D042A0130E60042015A085B04031937
:1034100008000130DA020030DB3B0800EA0140011D
:10342000EB01EA014101E8014201E7014001E90144
:103430004C0110121016E3304001A4001230A50018
:10344000A7313C279A3118304001A4002730A5004D
:10345000A7313027080043010E084101EF003F303B
:1034600043018E004101E501E6014301ED01EE015A
:103470004201ED01EC01EB01EA01E9014001ED013E
:103480004201E001E1014101E301E4016F1808009C
:103490006615080041011919522A400124084C01FF
:1034A0008D00682A400165080319682A6708203ED4
:1034B000860003308700240881006708013E3F39F9
:1034C000A5002508E7004101191101304001E5027E
:1034D000410119150800FF30AC00FF30AD00AE010E
:1034E0002B082E020318882A2D08A5002C08A400FA
:1034F0002A082E07860087010108A6009B311723A2
:103500009A312508AD002408AC000130AE07702ABE
:103510002D08AB002C08AA0008000B0D0B0D01397B
:10352000A8008B13240879018C004001250879013B
:103530008D00101710140000000079010F084001E1
:10354000A70079010E084001A600280C031C8B136C
:1035500003188B172708A5002608A40008009B3134
:10356000A3239A312508B7002408B600360837048B
:10357000031908000130B3003430A4003708A60056
:103580003608A500A73101279A313330AF0000304B
:10359000B0000330B100B201B20A81309631712619
:1035A0000800F300DA2A0A30D82A0C30D82A0B3067
:1035B000F400ED2A7308F100F2017208003A0319D1
:1035C000E22AF32A7108013A0319D32A033A0319AC
:1035D000D52A013A0319D72AF32A7408A6314226BC
:1035E0009A31A6312B2608007208F300F401730803
:1035F000F0067408F106F501701C0B2B7108F4003D
:103600007008F300F436F30C08307306F0008430D1
:103610007406F100102B0130F136F00C890B0C2BE5
:103620000130F5070830750203180800FC2A260847
:10363000A700A8012708A4062808A506A901241C9C
:103640002E2B2508A8002408A700A836A70C0830B0
:103650002706A40084302806A500332B0130A536A8
:10366000A40C890B2F2B0130A9070830290203185D
:1036700008001F2B4001A50025084201E800400179
:103680002503031D502B991468304001A400E43039
:10369000890B482BA40B482B00004001991008000F
:1036A000191468304001A400E430890B552BA40B99
:1036B000552B000040011910080040019A170330F3
:1036C0004001A9000830A8007730890B652BA80BB2
:1036D000652BA90B652B003040018C1A0130A4002A
:1036E00000308C1B0130A50000300C1B0130A600FF
:1036F0000C0E01399B31ED23AA009A132A08080009
:1037000040019A1703304001A9000830A800773023
:10371000890B882BA80B882BA90B882B0030400124
:103720008C180130A40000300C190130A5000030C5
:103730008C190130A6000C0801399B31ED23AA0039
:103740009A132A0808008B1343016E084001A70052
:1037500043016D084001A600A609A70941016508BB
:1037600040012605A8004101660840012705A9007F
:10377000410166084301EE00410165084301ED0087
:103780008B1740012908A5002808A4000800290873
:103790000319E72B2A088600013087000530010253
:1037A000031808002A0886000130870001308107CD
:1037B0002A0886000130870005300106031D080035
:1037C0002808A5002708A4009831742008002A08BA
:1037D00086000130870081010800A7002708031D2B
:1037E000FC2B2408031DFC2B2508031DFC2B26089D
:1037F000031DFC2B643008002408031D072C25083A
:10380000031D072C2608031D072C4B300800250834
:10381000031D0F2C2608031D0F2C3230080026082C
:10382000031D142C19300800003008004001AC00C2
:1038300010302C02031808002C08AA00AB012A083B
:10384000A4002B08A5000330A6000030A700993182
:10385000B9219C313030240784002030253D803848
:103860008500003FAD00013FAE00023FAF002E08D3
:10387000953174259C3140012D08953174259C317A
:1038800040012F089531742508000030AF0000304A
:10389000AE000030AD000030AC00241C572C2808CE
:1038A000AC072908AD3D2A08AE3D2B08AF3D0130DD
:1038B000A835A90DAA0DAB0D890B582C0130A736E0
:1038C000A60CA50CA40C890B5F2C27082604250444
:1038D0002404031D4D2C2F08A7002E08A6002D0838
:1038E000A5002C08A4000800973150279C312B0814
:1038F000BC002A08BB003C08BA003B08B900B90963
:10390000BA0937083905BD0038083A05BE008B13DF
:103910003E08BA003D08B900B909BA0939084101A1
:10392000E50540013A084101E60540013E08BA00BC
:103930003D08B900B909BA0939084301ED0540014C
:103940003A084301EE058B1708007A01A61384306C
:10395000A600A7011830A8001030A9000F30AD0054
:10396000AE01AF01B0018C018D018E018F0192017A
:1039700093019801970196019E019D0199019A0179
:10398000A3019F01A101A201A401A5010330AB0085
:10399000AC01AA014301EB01EC01E901EA0141019B
:1039A00090119A1110121A1284307A01A6000800A0
:1039B00041019911E5304401BD001630BE004101BE
:1039C000191151304401BF001930C00048304C017A
:1039D0009200903090002630910044308E008F018C
:1039E00028304001A4002630A500A73124279C31AF
:1039F0003E304001A4002630A500A7313027440105
:103A0000B701B8014001E701E6014030E500E401FB
:103A1000E301E20141019915080040016C08031D12
:103A2000142D41016E08282D6C0841016D06031DFF
:103A3000212D40016C0841016B06031D212D0F3023
:103A4000352D40016C0841016D06031D2E2D0F30F0
:103A50009C3116249D3141016C08392D40016C08C0
:103A600041016B06031D3C2D6E089C3116249D31CF
:103A70000F309C3116249D310A3040016C0203182E
:103A8000442D0130EC070800EC01080038088600DE
:103A900039088700413101030319582D0230B30062
:103AA00038088600390887000108A731BA270800BE
:103AB000380886003908870042315A300106031958
:103AC0006B2D0430B30038088600390887000108E0
:103AD000A731BA2708000030B300B400B501380898
:103AE00086003908870001089D31FE259D31D030C0
:103AF0004001BA00C930890B7B2DBA0B7B2D0032F7
:103B0000983128200800AA018B136A080319BD2DDB
:103B1000450121084001AB002408860025088700E4
:103B200045012008810040012408860025088700FF
:103B300041312B088100AC012B082C020318BA2D4F
:103B40002C082407A6000030253DA7002608860083
:103B5000270887004231A230A8000230A9002C08B3
:103B6000280784000030293D8500000881000130CD
:103B7000AC079C2DEA010130AA008B172A08080027
:103B800040019801990110309A009C01FF30920089
:103B9000DC3093002B309400083096007D018C01BE
:103BA0001C3096000330A0008D01C0309700A101A9
:103BB000B5018E019801A201FF308F00FF309900FE
:103BC000FF30A300FF309000FF309A00FF30A400C8
:103BD0000830B80013307C01C1000E307B01A0001A
:103BE0007D019101920193019B019C019D01A50121
:103BF000A601A701B901BA01BB0108004201D80022
:103C000040013508013EB600003003180130B7000E
:103C100000303702393003193602031C112E3730B9
:103C2000B50042015808A000D90140013508420101
:103C3000590203182E2E5908013E203E86000130FD
:103C4000870059084001330784000030343D850067
:103C50000008810001304201D907152E20304001B3
:103C6000AF000130B0003508013EB100B201B20A28
:103C7000F0309631712608003F0886004008870022
:103C800041310230010603194F2E0230B3003F08C4
:103C90008600400887000108A731BA2708003F08BE
:103CA000023EA4000030403DA5009831B0209E3176
:103CB0002508B8002408B7009C3174249E31413097
:103CC0004001A800A7317C279E312508AA002408BE
:103CD000A900A631F6269E314130B3000030B40071
:103CE0000230B5003F0886004008870001089D317A
:103CF000FE25080038088600390887004131010395
:103D000003198C2E0230B30038088600390887006A
:103D10000108A731BA27080038088600390887004B
:103D2000423102300102031C9F2E0430B3003808D8
:103D30008600390887000108A731BA27080038082B
:103D400086003908870042310108A631D7269E3106
:103D5000A63147269E31BA003A30B3000030B40095
:103D6000B501B50A380886003908870001089D3179
:103D7000FE25080038088600390887004131010314
:103D80000319CC2E0230B3003808860039088700AA
:103D90000108A731BA2708003808860039088700CB
:103DA00042310108BF0003303F02031CE12E043002
:103DB000B30038088600390887000108A731BA2700
:103DC00008003F08A631C3269E312808BE002708F8
:103DD000BD003F08BA003B30A8003E08AA003D08DD
:103DE000A900A631F6269E313A30B3000030B40067
:103DF0000330B500380886003908870001089D3176
:103E0000FE25080038088600390887004131010383
:103E10000319142F0230B3003808860039088700D0
:103E20000108A731BA27080038088600390887003A
:103E3000423102300102031C272F0430B30038083E
:103E40008600390887000108A731BA27080038081A
:103E5000860039088700423101089B313A239F319F
:103E6000380886003908870042310103031D3C2FC2
:103E7000A631CD269F313F2FA6314C269F31A6314A
:103E80008D269F314001BA003A30B3000030B400B3
:103E9000B501B50A380886003908870001089D3148
:103EA000FE2508000030BB000030BA000030B90029
:103EB0000030B80033083204310430040319992F5C
:103EC0000130BC00B31B6E2F0130B035B10DB20D07
:103ED000B30D890B652F0130BC07622F0130B83557
:103EE000B90DBA0DBB0D890B6F2F33083702031DB7
:103EF000832F32083602031D832F31083502031D3C
:103F0000832F30083402031C8E2F3008B40231088E
:103F1000B53B3208B63B3308B73B38140130B336F3
:103F2000B20CB10CB00C890B8F2F0130BC02031DF9
:103F30006E2F3B08B3003A08B2003908B1003808C8
:103F4000B000080038088600390887004131033086
:103F500001060319B52F0230B3003808860039086E
:103F600087000108A731BA270800380886003908F9
:103F7000870042310108BC003808860039088700F4
:103F800043310108BA0038088600390887004431F7
:103F90000108BB003C080319D92F03303C02031869
:103FA000D92F10303A020318D92F0B303B02031CD3
:103FB000E32F0430B3003808860039088700010871
:103FC000A731BA2708003A08A4003B08A5003C081E
:103FD00099311F219F3108304001A4000730A5000E
:103FE000A63195269F3100304001B300B400B501E1
:103FF000380886003908870001089D31FE25080031
:10400000D8341C3400340034373419344A341A3468
:1040100065342634573426340034003400340034F8
:1040200000340034003400340034003400340034F0
:1040300000340034003400340034003400340034E0
:1040400000340034003400343C342734003400346D
:10405000243427343034273400340034003400341E
:10406000FF34003400340034FF34003400340034B2
:10407000FF34FF34FF340034FF340034FF340034A5
:10408000FF34FF34FF34FF34FF3480340034003415
:104090000034803400340034003480348034803480
:1040A0000034803400348034003480348034C034B0
:1040B000C034C03480348034803400340034003460
:1040C000FF3FFF3FFF3FFF3FFF3FFF3FFF3FFF3F00
:1040D000FF3FFF3FFF3FFF3FFF3FFF3FFF3FFF3FF0
:1040E000FF3FFF3FFF3FFF3FFF3FFF3FFF3FFF3FE0
:1040F000FF3FFF3FFF3FFF3FFF3FFF3FFF3FFF3FD0
:104C500008000800643426140800101208004C01F3
:104C600090170800410190110800420164080800F3
:104C700042016E08080041016F0808004C01101243
:104C800010160800F00070087A019F00080040012B
:104C9000190E890C013908008B134001ED018B17A7
:104CA00008004101E301E4018B138B17080065083C
:104CB00003195C2E01300800003008002808A50008
:104CC0002708A400983174200800400162080319E5
:104CD0006B2E013008000030080044018F01910163
:104CE0000530930092019401080025084401BA00A0
:104CF000400124084401B900080025084401BC0013
:104D0000400124084401BB00080025084301EC00D1
:104D1000400124084301EB00080042016808031920
:104D2000932E013008000030080025084201DF0002
:104D3000400124084201DE0008008B13E8015830CE
:104D40004201DA000230DB008B17080042015E08E6
:104D50005F040319AD2E0130080000300800400147
:104D60006F08031D08000130EF0001309A31D12295
:104D7000080042015E085F04031908000130DE02EA
:104D80000030DF3B08004001A9002908A731EE27C9
:104D90002508A8002408A70008008B130130ED00A7
:104DA0002C304201E0000130E1008B170800A40024
:104DB0002403031DDE2E40019916080040019912BC
:104DC00008004001931013109312941399101910B6
:104DD00099129A13080041010C100B140030400185
:104DE000A4000030A500A63175260800280886001A
:104DF000870129088100280A860087012A08810086
:104E0000080024088600870125088100240A8600FE
:104E10008701260881000800901143016B086C048B
:104E2000031908006C088A006B080A00A731080003
:104E30004C01101210164101EA014001EB01E90199
:104E400001304201E7000800240825040319080086
:104E500025084301E400400124084301E300080061
:104E6000240825040319080025084301E200400135
:104E700024084301E1000800240825040319080060
:104E800025084301E600400124084301E50008002D
:104E90006400800101310130FE020030FF3B7F08D9
:104EA0007E0403190034492F44013B083C040319D4
:104EB0005E2F3C088A003B080A00A73141018C1292
:104EC00008004001E8014201DC01DD01DA01DB01FB
:104ED000E601E5016430EE00E401080040016908E4
:104EE000031908000130E9026908031D08004101A7
:104EF000EA014001EB0108008B1341016608400103
:104F0000A700410165084001A6008B172708A500EE
:104F10002608A40008004001A4018B134201670881
:104F20000319962FE70101304001A4008B174001BF
:104F300024080800A731CB27A73100304001B30077
:104F4000B400B501380886003908870001089D3192
:104F5000FE250800A6319D26A73100304001B30090
:104F6000B400B501380886003908870001089D3172
:104F7000FE250800B4003408B5003308B60035300B
:104F8000AF000030B0000230B100B201B20AF1301F
:104F90009631712608008B136808031DD42F013049
:104FA000E8004201DA01DB0164304201DC0000303C
:104FB000DD00E6018B170800C23043019D009C0113
:104FC00059309F0029304401BB002630BC0041010C
:104FD0008C129616873043019E000800A60003300D
:104FE00026020318FD2F26352B3E8600023087004F
:104FF000403FA400413FA5000800A401A50108000E
:105000004F344634463400344F344E340034FF3F7E
:10501000FF3FFF3FFF3FFF3FFF3FFF3FFF3FFF3FA0
:10502000FF3FFF3FFF3FFF3FFF3FFF3FFF3FFF3F90
:10503000FF3FFF3FFF3FFF3FFF3FFF3FFF3FFF3F80
:10504000FF3FFF3FFF3FFF3FFF3FFF3FFF3FFF3F70
:107FF000FF3FFF3FFF3FFF3FFF3FFF3F5C3F253F0E
:020000040001F9
:04000E008C3FE53D01
:04001400F43FFF3F77
:00000001FF
