:1000000080315228080064347E148031003086002C
:10001000003087000B1F0D280E28502841019A1D23
:10002000122813281B28901D162817281B289331E7
:10003000F823803150281A1E1E281F282728101E3A
:100040002228232827289231FC2280315028191D8C
:100050002A282B2836280F1D2E282F283628440121
:1000600052088A0051080A0080315028991D392809
:100070003A2845288F1D3D283E2845284401500830
:100080008A004F080A0080315028961E48284928C7
:1000900050288C1E4C284D2850289431162480312D
:1000A0007E100900803154284201803103208031C4
:1000B000EF00FC30840026308500F430FE00003074
:1000C000FF009331DE238031FD0159308400003080
:1000D00085000B30FE000030FF009331DE238031BD
:1000E0004101E801E901EA01EB01EC01ED015C30BD
:1000F0008400013085001330FE000030FF00933192
:10010000DE238031E1308400013085000F30FE00B5
:100110000030FF009331DE23803120308400023034
:1001200085002D30FE000030FF009331DE2380314A
:10013000A0308400023085003830FE000030FF001F
:100140009331DE238031203084000330850040303D
:10015000FE000030FF009331DE238031A0308400A8
:10016000033085004030FE000030FF009331DE2375
:1001700080317E1040018031BD2801304301A40050
:100180000130A5008B014101960197019801990169
:100190009A018C018D018E018F0190014C0190011B
:1001A000910143019E0195319325803193318D2337
:1001B0008031400113179317141114139231FF2249
:1001C00080319631392680319631A9268031973198
:1001D0009D27803194318024803103304301A00079
:1001E00093310E2380314301A100A0304001B600BD
:1001F0000130B7000230B800B901B90A81308E3140
:10020000F12680311F304001AB001630AC00933135
:100210004C2380318B170B1764304001AB0000304A
:10022000AC009331702380310C304001AB000530BD
:10023000AC00013096318C2680310C304001AB008F
:100240000530AC00023096318C26803140011A1303
:1002500002304001D8000430D700BA30890B2E2973
:10026000D70B2E29D80B2E29000040011A17023077
:100270004001D8000430D700BA30890B3D29D70B94
:100280003D29D80B3D29000040011A1302304001DE
:10029000D8000430D700BA30890B4C29D70B4C2931
:1002A000D80B4C290000A7304001B1000130B2004A
:1002B0008F3171278031003A03195F29602968293D
:1002C000A7304201DA000130DB0084315124803153
:1002D000A6304001AB00963106268031003A031962
:1002E000722973297B29430126084001BA00FF3097
:1002F0009431C424803140010D1B7F298029952928
:1003000043012403031D852986299529A4019331DE
:100310001A238031003A03198E299029013091293E
:1003200000309331D22380319D2940010D1F99293E
:100330009A299D2901304301A40040018D1BA12968
:10034000A229C12943012503031DA729A829C129E1
:10035000A501933167238031003A031DB029B129EB
:10036000B929013088312820803193319723803199
:10037000C929003088312820803193311F238031F2
:10038000C92940018D1FC529C629C929013043014A
:10039000A5008531472580318331492380314201D1
:1003A00060080319D429D529D929E0018C31F42416
:1003B0008031933183238031003A031DE029E12904
:1003C0000F2A933167238031013A0319E829E9297B
:1003D000ED290F304301A200F02901304301A200B2
:1003E00022084001AB00AC01013096318C268031EF
:1003F00093311A238031003A031DFF29002A042A71
:100400000F304301A300072A01304301A300230852
:100410004001AB00AC01023096318C268031863130
:10042000972680315329803152284001A4002B2B7C
:10043000AA3040012406031D1E2A1F2A482BFF3024
:10044000D900FF30DA00DF0101304201E900482B1A
:10045000400124084201E80040015A08F10059080F
:10046000F0002408F200893109218231710840012D
:10047000DA007008D90002304201E900482B393017
:1004800040012402031C452A462A492A4201E90167
:10049000482B2408E0005A08F1005908F00024080D
:1004A000F20089310921823171084001DA007008B7
:1004B000D9006008031D5D2A5E2A622A05304201C8
:1004C000E900482B04304201E900482B40015F0855
:1004D000A03E860002308700240881000130DF073B
:1004E0005A08F1005908F0002408F2008931092166
:1004F000823171084001DA007008D90060085F029B
:10050000031C832A842A482B5E2A400124084201C6
:10051000E7000630E900482B40012408F600F70107
:100520007608F700F6017608420167044001A00052
:100530007708A1005A082106031DA02A59082006A1
:10054000031DA32AA42A192B5E08013AA30023083D
:10055000F600F7017608F0007708F1003A30F20073
:100560000030F3009731202782317C30F8002730AB
:10057000F9007008780786007108793D870042010C
:100580006808810040012308F600F7017608F000B2
:100590007708F1003A30F2000030F300973120275D
:1005A00082317D30F8002730F90070087807860026
:1005B0007108793D8700400160088100A201082B85
:1005C0002308F600F7017608F0007708F1003A30CA
:1005D000F2000030F3009731202782317E30F8009E
:1005E0002730F90070087807FA007108793DFB00A0
:1005F000400122087A07860000307B3D87002208F0
:10060000A03E840002308500000881000130A2076E
:1006100060082202031C0D2B0E2BE02A2308DE00AB
:1006200001304201E60001304401C9070030CA3DF3
:10063000462A01304201E5000130E4000030F300B9
:100640000130F40093312A23823101304401C7077D
:100650000030C83D462A42016908F600F7017708D4
:10066000003A0319342B462A7608003A0319182A4F
:10067000013A0319282A033A03193F2A063A0319B3
:10068000662A013A0319852A033A03198C2A462A55
:10069000080000309331C623833140012F08BD008C
:1006A0002E08BC0002309331C623833140012F084D
:1006B000B8002E08B70001309331C62383314001C2
:1006C0002F08BA002E08B90093310B238331400163
:1006D000B2009331082383314001BB00933167237B
:1006E00083314001B300B4013C083D040319792B68
:1006F0007A2B852B2E303D02183003193C0203184B
:10070000822B832B852B0130B4000230AE000030E9
:10071000AF003408031D8D2B8F2B0130902B003040
:10072000B000EF30B1008931AA2183314001B50119
:100730003708380403199D2B9E2BA92B2A30380229
:10074000F830031937020318A62BA72BA92B013069
:10075000B5000430AE000030AF003508031DB12BEA
:10076000B32B0130B42B0030B000EE30B100893132
:10077000AA2183314001B6013303031DC02BC12BD5
:10078000D22B39083A040319C62BC72BD22B2A3097
:100790003A02F830031939020318CF2BD02BD22B91
:1007A0000130B6000830AE000030AF003608031D3F
:1007B000DA2BDC2B0130DD2B0030B000ED30B10046
:1007C0008931AA21833110304001AE000030AF00E2
:1007D0001A303202031CED2BEF2B0130F02B0030CE
:1007E000B000EC30B1008931AA21833120304001C2
:1007F000AE000030AF004B303B020318002C022C3F
:100800000130032C0030B000EB30B1008931AA2157
:100810008331643040013B02031C0F2C102C172C39
:100820004030AB000030AC009431D724833140011C
:10083000620803191C2C1D2C3E2C23303D0229304C
:1008400003193C02031C252C262C2A2C93311F2330
:1008500083313E2C42015E085F04031D302C312C95
:100860003E2C003088312820833101304001AB001C
:100870000030AC009431D7248331262C0030420163
:100880005D02323003195C02031C472C482C502CAB
:1008900080304001AB000030AC009431D72483316C
:1008A00008000F2D5B084101E70042015A08410191
:1008B000E600953115258431462D5B084101E7009E
:1008C00042015A084101E60095312A258431462D1E
:1008D0005B084101E70042015A084101E6008C3102
:1008E0009E248431462D5B084101E70042015A08ED
:1008F0004101E600953154258431462D5B084101C4
:10090000E70042015A084101E60095313F25843154
:10091000462D5B084101E70042015A084101E6000B
:10092000963153268431462D5B084101E700420190
:100930005A084101E6008D31A4258431462D5B081B
:100940004101E70042015A084101E6008C31502480
:100950008431462D5B084101E70042015A084101FC
:10096000E6008E3104268431462D5B084101E70004
:1009700042015A084101E600943190248431462D09
:100980005B084101E70042015A084101E600943149
:10099000A1248431462D5B084101E70042015A0839
:1009A0004101E6008B3172238431462D5B08410101
:1009B000E70042015A084101E6009531D62584310D
:1009C000462D5B084101E70042015A084101E6005B
:1009D00095317E258431462D5B084101E7004201B7
:1009E0005A084101E6009631E4268431462D5B0821
:1009F0004101E70042015A084101E6008C3105241B
:100A00008431462D03304001BA0042015A08860065
:100A10005B08870001089431C4248431462D4201CB
:100A20005A0886005B0887000108103A0319522C07
:100A3000013A03195D2C033A0319682C013A031992
:100A4000732C073A03197E2C013A0319892C353A85
:100A50000319942C013A03199F2C033A0319AA2C69
:100A6000123A0319B52C023A0319C02C723A031931
:100A7000CB2C013A0319D62C033A0319E12C013A85
:100A80000319EC2C073A0319F72C022D08008B13DD
:100A900041016D08031D4D2D4E2D502D8B17F12D4D
:100AA000440132084001D100440131084001D00026
:100AB000440134084001D300440133084001D2000E
:100AC000440136084001D500440135084001D400F6
:100AD0004101ED018B171A304001AB008130AC00B1
:100AE0009731DD27853140012C08CF002B08CE003F
:100AF000D6010030BA000030B9000330B800FF3032
:100B0000B7005635503E86008701403FC400413F44
:100B1000C5004408AB004508AC00AD01AE014E086D
:100B2000AF004F08B000B101B2018A313E228531D9
:100B300040012E08BE002D08BD002C08BC002B086B
:100B4000BB008D314B25853140013A08C900390879
:100B5000C8003808C7003708C6000030BA000030A7
:100B6000B9000F30B8003C30B7004908AE00480863
:100B7000AD004708AC004608AB000030B2000030C2
:100B8000B1003630B0004C30AF008A313E228531A2
:100B900040012E08BE002D08BD002C08BC002B080B
:100BA000BB008D314B25853140013A08CD00390815
:100BB000CC003808CB003708CA0056352B3E8600DB
:100BC000023087004A08C03F4B08C13F0130D607BA
:100BD00003305602031CED2DEE2D792D9331242385
:100BE0008531080000309331C623853140012F083C
:100BF000B4002E08B30001309331C6238531400183
:100C00002F08B6002E08B50002309331C623853177
:100C100040012F08B8002E08B70042016F084001BC
:100C2000B900420162084001BA009331672385315F
:100C30004001BB0093311A2385314001BC0094313F
:100C40004324853140012C08BE002B08BD00BF01A4
:100C50003B03031D2C2E2D2E2E2E3F143C08031972
:100C6000322E332E342E3F150D1F372E382E392EAF
:100C7000BF158D1F3C2E3D2E3E2E3F163D083E04D7
:100C80000319432E442E452E3F175D080319492EA4
:100C90004A2E4B2EBF173208AC003108AB00340887
:100CA000AE003308AD009431522485314001310843
:100CB000023EAB000030323DAC003608AE003508D5
:100CC000AD0094315224853140013108043EAB001F
:100CD0000030323DAC003808AE003708AD0094312A
:100CE00052248531400131088600320887004631A0
:100CF00039088100310886003208870047313A08F8
:100D00008100310886003208870048313F088100A1
:100D10003108093EAB000030323DAC003E08AE0069
:100D20003D08AD009431522485310B3008008B13FF
:100D300042016308AB00E3018B172B080319A12EB6
:100D4000A22EAB2E8B134001DD0158304301E10090
:100D50000230E2008B17893181218631430161081D
:100D60006204031DB42EB52E362F4201AC0185312D
:100D7000472586318831722086314201EF00883163
:100D80004D2086314201E20020304001B1000130A7
:100D9000B2008531F2258631430169080319D12E4D
:100DA000D22EE42E4201AD012D08203E86000230F5
:100DB00087002D08203E84000130850000080106D0
:100DC0000319E32EE42EE82E01304201AC00F02E90
:100DD0000130AD070B302D02031CEF2EF02ED42E68
:100DE0002C080319F42EF52EF62EA8168A3172223D
:100DF000863120304001B6000130B7000B30B8001A
:100E0000B90180308E31F1268631003A0319092F5D
:100E10000A2F232F4201AD012D08203E860002300B
:100E200087002D08203E84000130850000088100E5
:100E30000130AD070B302D02031C1F2F202F0C2F6C
:100E400001304301E9008B1340015D08031D292F88
:100E50002A2F302F58304301E1000230E200352FB5
:100E60000A304301E1000030E2008B170800400126
:100E7000AB00AB1F3C2F3D2F442F1A150000000084
:100E8000000040011A114A2F1A15000040011A11E2
:100E90000000000040012B1F4E2F4F2F562F1A1518
:100EA00000000000000040011A115C2F1A1500001C
:100EB00040011A11000000004001AB1E602F612F9D
:100EC000682F1A1500000000000040011A116E2F53
:100ED0001A15000040011A110000000040012B1EED
:100EE000722F732F7A2F1A150000000000004001A6
:100EF0001A11802F1A15000040011A11000000007D
:100F00004001AB1D842F852F8C2F1A150000000087
:100F1000000040011A11922F1A15000040011A1109
:100F20000000000040012B1D962F972F9E2F1A15B1
:100F300000000000000040011A11A42F1A15000043
:100F400040011A11000000004001AB1CA82FA92F7E
:100F5000B02F1A1500000000000040011A11B62F32
:100F60001A15000040011A110000000040012B1C5E
:100F7000BA2FBB2FC22F1A1500000000000040013D
:100F80001A11C82F1A15000040011A1100000000A4
:100F900008004101991178304401CF000E30D00093
:100FA00041011911C6304401D1001630D200483039
:100FB0004C019200903090002630910044308E0019
:100FC0008F01F8304001AB001230AC009431252481
:100FD000873111304001AB001330AC009431342420
:100FE00087314401BF01C0014101EC01EB014030F8
:100FF0004001DC00DB01FD014101EA019915080017
:10100000FB3060018C0008008B134301680840012D
:10101000AE00430167084001AD00AD09AE094101D2
:10102000680840012D05AF004101690840012E0507
:10103000B000410169084301E8004101680843012B
:10104000E7008B1740013008AC002F08AB00080008
:101050004001AC002C084301EA0040012C03031DB1
:10106000322833284028991468304001AB00E4301E
:10107000890B3828AB0B38280000400199104C2808
:10108000191468304001AB00E430890B4528AB0BE4
:101090004528000040011910080040019A1703304C
:1010A0004001B0000830AF007730890B5528AF0BF6
:1010B0005528B00B5528003040018C1A0130AB0088
:1010C00000308C1B0130AC0000300C1B0130AD0037
:1010D0000C0E01398A31ED2288314001B1009A139A
:1010E0003108080040019A1703304001B000083071
:1010F000AF007730890B7A28AF0B7A28B00B7A28AB
:10110000003040018C180130AB0000300C19013068
:10111000AC0000308C190130AD000C0801398A3167
:10112000ED2288314001B1009A1331080800F30024
:10113000A2280A30F400B5280C30F400B5280B3092
:10114000F400B5287308F100F2017208003A03199F
:10115000AA28BC287108013A03199928033A0319EF
:101160009C28013A03199F28BC2874089331152341
:1011700088319231F9228831080040015D08031955
:10118000C228C328D7284301630864040319C92867
:10119000CA28D7280130E3020030E43B6308640426
:1011A000031DD328D428D72801304201E30043018E
:1011B000610862040319DD28DE28E2280130E1021B
:1011C0000030E23B0800FF304001B300FF30B400C4
:1011D000B501FE283408AC003308AB0031083507F0
:1011E000860087010108AD00893130218831400136
:1011F0002C08B4002B08B3000130B50732083502C3
:10120000031C03290429EA283408B2003308B1007A
:1012100008007208F300F4017308F0067408F10680
:10122000F501701C1429152922297108F400700891
:10123000F300F436F30C08307306F00084307406C3
:10124000F10027290130F136F00C890B23290130F8
:10125000F50708307502031C2E292F2911290800D3
:1012600040012D08AE00AF012E08AB062F08AC06DA
:10127000B0012B1C3C293D294A292C08AF002B0822
:10128000AE00AF36AE0C08302E06AB0084302F0611
:10129000AC004F290130AC36AB0C890B4B29013027
:1012A000B00708303002031C562957293929080095
:1012B000410119195C295D29622940012B084C0163
:1012C0008D007E2940015C080319672968297E2961
:1012D00041016C08203E86000330870040012B0846
:1012E000810041016C08013E3F394001AC002C08EF
:1012F0004101EC00191101304001DC0241011915D6
:10130000080088310420893140012C08BE002B08D8
:10131000BD003D083E0403198E298F29A9290130FB
:10132000BA003B30AB000030AC003E08AE003D08D8
:10133000AD009431522489313A304001B60000307A
:10134000B7000330B800B901B90A81308E31F126F7
:1013500089310800400130080319AF29B029D2298A
:101360003108860001308700053001020318B929D1
:10137000BA29D7293108860001308700013081075A
:10138000310886000130870005300106031DC92998
:10139000CA29D7292F08AC002E08AB009431D724D6
:1013A0008931D72931088600013087008101080082
:1013B0007A01A6138430A600A7011830A8001030C7
:1013C000A9000F30AD00AE01AF01B0018C018D015D
:1013D0008E018F01920193019801970196019E0160
:1013E0009D0199019A01A3019F01A101A201A401FC
:1013F000A5010330AB00AC01AA014401C501C6013F
:10140000C301C401410190119A1110121A128430C3
:101410007A01A60008004001B3001030330203181F
:10142000122A132A3D2A3308B100B2013108AB0059
:101430003208AC000330AD000030AE009731BD275C
:101440008A31303040012B07840010302C3D803829
:101450008500003FB400013FB500023FB6003508EB
:10146000873137278A3140013408873137278A315D
:1014700040013608873137278A31080000304001A3
:10148000B6000030B5000030B4000030B3002B1CB3
:101490004A2A4B2A532A2F08B3073008B43D310893
:1014A000B53D3208B63D0130AF35B00DB10DB20DCE
:1014B000890B542A0130AE36AD0CAC0CAB0C890B49
:1014C0005B2A2E082D042C042B04031D682A692A8C
:1014D000472A3608AE003508AD003408AC003308A2
:1014E000AB00080041304001AB004330AC00453058
:1014F000AD00973102278A3102304001BA003B30FB
:10150000AB000030AC004208AE004108AD009431A1
:1015100052248A313D304001AB000030AC00440819
:10152000AE004308AD00943152248A313F3040016F
:10153000AB000030AC004608AE004508AD00943169
:1015400052248A313A304001B6000030B7000730EB
:10155000B800B90181308E31F1268A31080040018E
:101560009801990110309A009C01FF309200DC3004
:1015700093002B309400083096007D018C011C30C4
:1015800096000330A0008D01C0309700A101B50185
:101590008E019801A201FF308F00FF309900FF30CB
:1015A000A300FF309000FF309A00FF30A400083005
:1015B000B80013307C01C1000E307B01A0007D011A
:1015C0009101920193019B019C019D01A501A6013E
:1015D000A701B901BA01BB0108004001AE002E0805
:1015E000031DF32AF42A052B2B08031DF82AF92AD8
:1015F000052B2C08031DFD2AFE2A052B2D08031D93
:10160000022B032B052B64302A2B2B08031D092BDF
:101610000A2B162B2C08031D0E2B0F2B162B2D0817
:10162000031D132B142B162B4B302A2B2C08031DB8
:101630001A2B1B2B222B2D08031D1F2B202B222B9B
:1016400032302A2B2D08031D262B272B292B19304E
:101650002A2B003008004201D80041016508013EF4
:101660004001BA00003003180130BB0000303B02DB
:10167000393003193A02031C3E2B3F2B422B3730E3
:101680004101E50042015808A000D901592B590831
:10169000013E203E86000130870059084101630762
:1016A00084000030643D8500000881000130420163
:1016B000D9074101650842015902031C602B612BC7
:1016C000472B20304001B6000130B70041016508CA
:1016D000013E4001B800B901B90AF0308E31F1265F
:1016E0008B31080041016608860067088700413198
:1016F000010303197C2B7D2B8A2B02304001BA0099
:101700004101660886006708870001089431C424F7
:101710008B31BA2B660886006708870042315A3041
:1017200001060319942B952BA22B04304001BA001B
:101730004101660886006708870001089431C424C7
:101740008B31BA2B0030E300E400E5016608860027
:101750006708870001088B312B238B31D030400183
:10176000BE00C930890BB22BBE0BB22B00329431B4
:10177000EB248B31080096316F268B3171084001C4
:10178000A1007008A000F12B21084401B200400123
:1017900020084401B10002304001E30002308831EA
:1017A00097208B31042C21084401B6004001200809
:1017B0004401B50003304001E30003308831972035
:1017C0008B31042C21084401B4004001200844015D
:1017D000B3004001E30101304101ED00042CE301BD
:1017E000042C6308FB00FC017C08003A0319F92B68
:1017F000EF2B7B08013A0319C42B033A0319D32BAF
:10180000013A0319E22BEF2B08004101660886001C
:10181000670887004131023001060319102C112C92
:101820001E2C02304001BA0041016608860067089C
:10183000870001089431C4248C314F2C6608023E85
:101840004001AB0000304101673D4001AC009531E3
:10185000A9258C3140012C08B1002B08B00097312C
:101860003F278C313E304001AF00943143248C310E
:1018700040012C08B1002B08B0009331BA238C3101
:101880003E304101E3000030E4000230E50066082C
:1018900086006708870001088B312B238C310800F4
:1018A000410166088600670887004131010303197A
:1018B0005A2C5B2C682C02304001BA0041016608AA
:1018C00086006708870001089431C4248C319D2C60
:1018D0006608860067088700423102300102031C57
:1018E000722C732C802C04304001BA004101660830
:1018F00086006708870001089431C4248C319D2C30
:101900006608860067088700423101089331D223B8
:101910008C3193311A238C314001BE003E3041019D
:10192000E3000030E400E501E50A66088600670888
:10193000870001088B312B238C3108004101660898
:10194000860067088700413101030319A82CA92CE0
:10195000B62C02304001BA004101660886006708D3
:10196000870001089431C4248C31F32C660886006A
:1019700067088700423101084001C3000330430279
:10198000031CC32CC42CD02C0430BA0041016608BF
:1019900086006708870001089431C4248C31F32C39
:1019A00043089331C6238C3140012F08C2002E0812
:1019B000C1004308BE003F30AF004208B1004108FB
:1019C000B0009331BA238C313E304101E300003046
:1019D000E4000330E5006608860067088700010818
:1019E0008B312B238C31080040016108031DF92C39
:1019F000FA2C052D42016D088A310B228C314201EF
:101A00006B088A310B228C313F2D610842016C0634
:101A1000031D0B2D0C2D1D2D4001610842016A068E
:101A2000031D132D142D1D2D0F308A310B228C31E7
:101A30000F308A310B228C313F2D40016108420169
:101A40006C06031D242D252D2F2D0F308A310B22DE
:101A50008C3142016B088A310B228C313F2D4001C1
:101A6000610842016A06031D362D372D3F2D6D0892
:101A70008A310B228C310F308A310B228C310A30A3
:101A8000400161020318452D462D492D0130E10723
:101A90004A2DE101080000304001C2000030C100C1
:101AA0000030C0000030BF003A0839043804370461
:101AB00003195B2D5C2D9B2D0130C300682D013077
:101AC000B735B80DB90DBA0D890B602D0130C307BC
:101AD000BA1F6B2D6C2D5F2D0130BF35C00DC10DB0
:101AE000C20D890B6D2D3A083E02031D812D390868
:101AF0003D02031D812D38083C02031D812D37084E
:101B00003B02031C842D852D8E2D3708BB0238081F
:101B1000BC3B3908BD3B3A08BE3B3F140130BA36E6
:101B2000B90CB80CB70C890B8F2D0130C302031D03
:101B30009A2D9B2D6C2D4208BA004108B90040082F
:101B4000B8003F08B7000800410166088600670832
:101B50008700413101030319AE2DAF2DBC2D02309A
:101B60004001BA0041016608860067088700010845
:101B70009431C4248D31032E6608860067088700DF
:101B8000423102300102031CC62DC72DD42D043072
:101B90004001BA0041016608860067088700010815
:101BA0009431C4248D31032E6608860067088700AF
:101BB00042310108883128208D31410166088600B4
:101BC0006708870042310103031DE72DE82DEC2D46
:101BD000933197238D31EF2D93311F238D31933125
:101BE00067238D314001BE003E304101E3000030EB
:101BF000E400E501E50A6608860067088700010839
:101C00008B312B238D31080041016608860067085F
:101C1000870041310330010603190F2E102E1D2EAF
:101C200002304001BA00410166088600670887005B
:101C300001089431C4248E31772E66088600670827
:101C40008700423101084001C0004101660886005A
:101C500067088700433101084001BE004101660862
:101C6000860067088700443101084001BF00400832
:101C700003193B2E3C2E4E2E033040020318412EFA
:101C8000422E4E2E10303E020318472E482E4E2E66
:101C90000B303F02031C4D2E4E2E5A2E0430BA003C
:101CA0004101660886006708870001089431C42452
:101CB0008E31772E3E08AB003F08AC0040089631CD
:101CC0008C268E3108304001AB000730AC009331D8
:101CD00070238E3100304101E300E400E501660825
:101CE00086006708870001088B312B238E3108009E
:101CF00040015B35FC3E860087012630873D5B3521
:101D00000030873D0030C03FC13F4C01901C892E00
:101D10008A2EA72E40015B08A500A601A535A60DB9
:101D2000FC30A7002630A8002508270786002608D3
:101D3000283D870001154401370838040319A12EF6
:101D4000A22EA72E38088A0037080A008E314C01CF
:101D5000101DAB2EAC2EC92E40015B08A500A601BC
:101D6000A535A60DFC30A7002630A80025082707BA
:101D700086002608283D87008114440139083A046A
:101D80000319C32EC42EC92E3A088A0039080A0046
:101D90008E314C010C084001A9005B08013E3F391F
:101DA000AA002A087D06031DD62ED72ED82EE42E93
:101DB0005B08A03E860003308700290881002A08BE
:101DC000DB0001304101EA0744013B083C040319F0
:101DD000EA2EEB2EF02E3C088A003B080A008E31DA
:101DE00008004101DE00393040013802031CF92EA1
:101DF000FA2EFC2E0030702FAA304101A0005E08A0
:101E0000A100400138084101A200E201182F620838
:101E1000033EA03E86008701620840013607840029
:101E20000030373D85000008810001304101E207A4
:101E30004001380841016202031C1F2F202F072F89
:101E4000A1304001B1003808023EB2008831E320E1
:101E50008E31400132084101E10040013108410169
:101E6000E00040013808033EA03E860087014101A2
:101E70006008810040013808043EA03E86008701CA
:101E800041016108810040013808053E4101DF0041
:101E900040013908031D4D2F4E2F572F93315E23DC
:101EA0008E31003A031D552F562F572FFA2E410120
:101EB000E201692F4001AD01AD0A41016208A03E77
:101EC00086008701010897315E278E31013041017C
:101ED000E2075F086202031C6E2F6F2F5A2F01303A
:101EE00008004001BB018B13420166080319792FDA
:101EF0007A2FFC2F40015E08BC00310886003208B2
:101F000087003C08B300B4013308AB003408AC00D0
:101F10003A30AD000030AE009731BD278F317C30B4
:101F20004001B5002730B6002B08350784002C0887
:101F3000363D8500000881003108860032088700A0
:101F400041313C08B300B4013308AB003408AC00A5
:101F50003A30AD000030AE009731BD278F317D3073
:101F60004001B5002730B6002B08350784002C0847
:101F7000363D850000088100BD01EC2F3D0831078A
:101F8000B3000030323DB4003308860034088700C7
:101F900042313C08B500B6013508AB003608AC004C
:101FA0003A30AD000030AE009731BD278F317E3022
:101FB0004001B7002730B8002B083707B9002C08BC
:101FC000383DBA003D083907840000303A3D8500AD
:101FD000000881000130BD07310886003208870003
:101FE000413101083D02031CF62FF72FBE2F42019D
:101FF000E60101304001BB008B1740013B0808009F
:10200000C934073400340034ED34153458340934FD
:102010003A3413345E341334003400340034003462
:102020000034003400340034003400340034003410
:102030000034003400340034003400340034003400
:10204000003400340034003461341434003400347B
:10205000253414343434143400340034003400345F
:10206000FF34003400340034FF34003400340034D2
:10207000FF34FF34FF340034FF340034FF340034C5
:10208000FF34FF34FF34FF34FF3480340034003435
:1020900000348034003400340034803480348034A0
:1020A0000034803400348034003480348034C034D0
:1020B000C034C03480348034803400340034003480
:1025F00008007A01261408004101101208004C015D
:102600009017080041019A15080041019011080037
:1026100042016208080042016F08080042016E088A
:1026200008004C01101210160800F00070087A0122
:102630009F0008004001190E890C013908008B1316
:102640004001E2018B1708004201DC01DD018B1320
:102650008B1708007408F1007308F000943170249F
:102660009331080044018F019101053093009201DC
:102670009401080041016A08031D3F2B412B0130E2
:10268000422B0030080040012C084401C2004001E8
:102690002B084401C100080040012C084401CE0071
:1026A00040012B084401CD00080040012C084401E2
:1026B000C60040012B084401C500080040015C0829
:1026C000031D632B652B0130662B0030080043018E
:1026D0006A08031D6C2B6E2B01306F2B0030080035
:1026E00040012C084301E60040012B084301E500AE
:1026F00008008B134001DD0158304301E100023036
:10270000E2008B170800430165086604031D892B4E
:102710008B2B01308C2B00300800400193101310DC
:10272000931294139910191099129A1308008B138D
:1027300001304001E2002C304201DE000130DF00B8
:102740008B1708004301650866040319A82BA92B01
:10275000AD2B0130E5020030E63B080041010C10D2
:102760000B1400304001AB000030AC009331432328
:102770009331080040012F0886008701300881004E
:102780002F0A860087013108810008004001B0004F
:10279000300895310025933140012C08AF002B08FB
:1027A000AE0008004001AB002B030319D82BDB2B34
:1027B00040019916DD2B4001991208006400800148
:1027C00001310130FE020030FF3B7F087E04031D13
:1027D000DF2B0034400163080319EF2BF02BF12BA2
:1027E000F72B0130E3000130883197209331080046
:1027F000410190114401450846040319002C012CA5
:10280000062C46088A0045080A00943108004C014D
:10281000101210164201E9014001DF010030F300FF
:102820000230F40093312A239431080044014D080A
:102830004E0403191C2C1D2C222C4E088A004D0816
:102840000A00943141018C12080040012B082C042D
:1028500003192B2C2C2C332C2C084401BA004001DA
:102860002B084401B900080040012B082C0403196F
:102870003A2C3B2C422C2C084401B80040012B0878
:102880004401B70008008B13410169084001AE0004
:10289000410168084001AD008B172E08AC002D08DF
:1028A000AB00080040012B0886002C0887002D088B
:1028B00081002B0886002C08870041312E088100FA
:1028C000080040012B082C040319672C682C6F2C7E
:1028D0002C084401BC0040012B084401BB00080047
:1028E0000B0D0B0D0139F2008B1370084101E80448
:1028F0007108E904720C031C8B1303188B17080072
:102900004001DD014301E301E401E101E201420193
:10291000E3014301E90164304201EF00E2010800F4
:1029200095316925943100304101E300E400E5016F
:10293000660886006708870001088B312B239431D5
:10294000080093317923943100304101E300E40021
:10295000E501660886006708870001088B312B2394
:1029600094310800C23043019D009C0159309F0002
:1029700002304401CD000030CE0041018C12961689
:10298000873043019E0008004001BB003B08BC00AB
:102990003A08BD003C30B6000030B7000230B80045
:1029A000B901B90AF1308E31F126943108000B0DCE
:1029B0000B0D01394001AD008B132B084101E804D8
:1029C00040012C084101E90440012D0C031C8B132C
:1029D00003188B1708008B1379011017F0308D0046
:1029E0008C01A5308E00101555309100AA30910051
:1029F00090149018FC2CFD2CF92C101101000800EB
:102A00004001AD0003302D020318072D082D122DB3
:102A10002D352B3E860002308700403FAB00413F02
:102A2000AC00142DAB01AC01080093316723953144
:102A30004001BC003C304101E3000030E400E5010E
:102A4000E50A660886006708870001088B312B239A
:102A50009531080093311A2395314001BC003C3078
:102A60004101E3000030E400E501E50A6608860064
:102A70006708870001088B312B23953108009331BB
:102A8000082395314001BC003C304101E300003097
:102A9000E400E501E50A660886006708870001088A
:102AA0008B312B239531080093310B239531400155
:102AB000BC003C304101E3000030E400E501E50AE0
:102AC000660886006708870001088B312B23953143
:102AD00008008B1340015D08031D6F2D702D752DAF
:102AE0000130DD004301E101E20164304301E30014
:102AF0000030E4004201E3018B170800023040017E
:102B0000BC00BD01BE013C304101E3000030E400E7
:102B10000330E500660886006708870001088B31EE
:102B20002B23953108009331322395318A31AF221E
:102B300095318931D82195319431B224953187313D
:102B4000C92795318831002095319331AE239531D5
:102B5000080040012B0886002C088700413101083D
:102B6000AD00AE012D08AE00AD012B0886002C088B
:102B700087002D080104AB002E08AC000800CD2D05
:102B80009531ED259531FC0001304401CB07003033
:102B9000CC3D7C0882311522953193313A23953111
:102BA000003A031DD42DD52DC02D08004101660823
:102BB000023EE3000030673DE400660886006708D7
:102BC000870041310108E500660886006708870034
:102BD00001088B312B23953108007D08A03E86002B
:102BE000033087000108F1007D08013E3F39F00005
:102BF0007008FD00410199116A080319002E012E89
:102C0000032E0130EA029915710808004001AC0159
:102C10008B134201650803190E2E0F2E1B2E400147
:102C20002B08860001308700420164088100E5011D
:102C300001304001AC008B1740012C080800933193
:102C4000A22396318831BD20963197317D27963168
:102C500001304201E10705306102031C302E312EA4
:102C6000352EE1019331EA23963101304201E00033
:102C700008004001E3014101ED014401AB01AC0159
:102C8000AD01AE01AF01B001BB304001AB000B3074
:102C9000AC0093315523963193310523963193310E
:102CA00002239631080040304001B1000030B200EC
:102CB0008531F22596314001D00040304101E300DA
:102CC0000030E400400150084101E500660886003C
:102CD0006708870001088B312B23963108007A01A1
:102CE0001D08F200F3017208F5007308F6001E08D3
:102CF000F200F3017208F300F2017208F7007308A2
:102D0000F80075087704F90076087804FA007A0864
:102D1000F1007908F00008004001AD002D03031D0B
:102D2000922E932E9B2E2B084201ED0040012C0881
:102D30004201EC00A82E02302D06031DA02EA12E6C
:102D4000A82E2B084201EB0040012C084201EA00AA
:102D500008004201E9014001DF014201E601E5010D
:102D60004001DE014C0110121016BF304001AB00D3
:102D70001530AC0094316124963107304001AB002E
:102D80001430AC00943134249631080040304001B6
:102D90005C020318CC2ECD2EE12E41016B08203EA3
:102DA00086000330870001084C018D0041016B084B
:102DB000013E3F39F0007008EB0001304001DC07B4
:102DC000E32E4101191108003C304001AF0094315D
:102DD0004324963140012C08B1002B08B0009331F8
:102DE000BA2396313C304101E3000030E400023068
:102DF000E500660886006708870001088B312B23F1
:102E0000963108008B1340012B088600870144018E
:102E10004B08C03F4C08C13F40012C088600870189
:102E200044014908C03F4A08C13F40012D088600BF
:102E3000870144014708C03F4808C13F8B1708007D
:102E4000F401F501701C252F262F2A2F7208F40794
:102E50007308F53D0130F235F30D890B2B2F01304E
:102E6000F136F00C890B302F70087104031D392FD7
:102E70003A2F222F7508F1007408F00008008B1318
:102E800040013108B3003008B200B209B30932087A
:102E90004101E805400133084101E90540013108DD
:102EA000B3003008B200B209B30932084301E705A4
:102EB000400133084301E8058B1708004001AE00CC
:102EC0002D080319642F652F742F93315E239731DA
:102ED000003A03196C2F6D2F652F40012E08AB00AF
:102EE0008931582197317C2F93315E239731003AF5
:102EF000031D7B2F7C2F6D2F0800400162080319F2
:102F0000822F832F8E2F42015E085F040319892FC1
:102F10008A2F8E2F0130DE020030DF3B003042016D
:102F20005D02323003195C020318972F982F9C2FF3
:102F30000130DC070030DD3D080043010E0842018E
:102F4000EE003F3043018E004101E801E9014301F9
:102F5000E701E801EF01EE01ED01EC01EB014001B9
:102F6000E2014201DE01DF01DC01DD016E18B92F53
:102F7000BA2FBC2F4101691508004001AF01B00113
:102F80002B1CC32FC42FC82F2D08AF072E08B03D10
:102F90000130AD35AE0D890BC92F0130AC36AB0C0D
:102FA000890BCE2F2B082C04031DD72FD82FC02F11
:102FB0003008AC002F08AB0008000B0D0B0D0139D9
:102FC0004001AF008B132B0879018C0040012C08C5
:102FD00079018D00101710140000000079010F080E
:102FE0004001AE0079010E084001AD002F0C031C1A
:102FF0008B1303188B172E08AC002D08AB000800AC
:0E3000004F344634463400344F344E340034DE
:047FFC00FF34FF341B
:020000040001F9
:04000E008C3FE53D01
:04001400F43FFF3F77
:00000001FF
