:1000000080315228080064347E148031003086002C
:10001000003087000B1F0D280E28502841019A1D23
:10002000122813281B28901D162817281B289431E6
:100030001D24803150281A1E1E281F282728101E14
:100040002228232827289331362380315028191D50
:100050002A282B2836280F1D2E282F283628440121
:1000600050088A004F080A0080315028991D39280D
:100070003A2845288F1D3D283E28452844014E0832
:100080008A004D080A0080315028961E48284928C9
:1000900050288C1E4C284D28502894313B24803108
:1000A0007E100900803154284201803103208031C4
:1000B000EF00FC30840026308500F430FE00003074
:1000C000FF008731F4278031FD0159308400003072
:1000D00085000B30FE000030FF008731F4278031AF
:1000E0004101E801E901EA01EB01EC01ED015C30BD
:1000F0008400013085001330FE000030FF0087319E
:10010000F4278031DF308400013085001030FE009C
:100110000030FF008731F427803120308400023026
:1001200085002B30FE000030FF008731F42780313E
:10013000A0308400023085003830FE000030FF001F
:100140008731F4278031203084000330850040302F
:10015000FE000030FF008731F4278031A03084009A
:10016000033085004030FE000030FF008731F42767
:1001700080317E1040018131F1294001A400D32952
:10018000AA3040012406031DC628C728F029FF30E5
:10019000D900FF30DA00DF0101304201E900F02927
:1001A000400124084201E80040015A08F1005908C2
:1001B000F0002408F20089313221803171084001B9
:1001C000DA007008D90002304201E900F029393024
:1001D00040012402031CED28EE28F1284201E90128
:1001E000F0292408E0005A08F1005908F00024081A
:1001F000F20089313221803171084001DA00700843
:10020000D9006008031D052906290A290530420185
:10021000E900F02904304201E900F02940015F08BB
:10022000A03E860002308700240881000130DF07ED
:100230005A08F1005908F0002408F20089313221EF
:10024000803171084001DA007008D90060085F024F
:10025000031C2B292C29F0290629400124084201DE
:10026000E7000630E900F02940012408F600F70114
:100270007608F700F6017608420167044001A00005
:100280007708A1005A082106031D482959082006AD
:10029000031D4B294C29C1295E08013AA3002308FC
:1002A000F600F7017608F0007708F1003A30F20026
:1002B0000030F3009731632780317C30F80027301D
:1002C000F9007008780786007108793D87004201BF
:1002D0006808810040012308F600F7017608F00065
:1002E0007708F1003A30F2000030F30097316327CD
:1002F00080317D30F8002730F900700878078600DB
:100300007108793D8700400160088100A201B02991
:100310002308F600F7017608F0007708F1003A307C
:10032000F2000030F3009731632780317E30F8000F
:100330002730F90070087807FA007108793DFB0052
:10034000400122087A07860000307B3D87002208A2
:10035000A03E840002308500000881000130A20721
:1003600060082202031CB529B62988292308DE006B
:1003700001304201E60001304401C9070030CA3DA6
:10038000EE2801304201E5000130E4000030F300C6
:100390000130F40093316523803101304401C707F7
:1003A0000030C83DEE2842016908F600F7017708E1
:1003B000003A0319DC29EE287608003A0319C02810
:1003C000013A0319D028033A0319E728063A03191A
:1003D0000E29013A03192D29033A03193429EE286D
:1003E000080001304301A2000130A3009531B82577
:1003F0008131883100208131400113179317141186
:10040000141393313923813196315E26813196312F
:10041000CE2681319731272781319431A52481312E
:1004200044304001AB001630AC009331872381315A
:100430008B170B1764304001AB000030AC009331D8
:10044000AB2381310C304001AB000530AC000130F2
:100450009631B12681310C304001AB000530AC0043
:1004600002309631B126813140011A170230400125
:10047000D8000430D700BA30890B3C2AD70B3C2A6D
:10048000D80B3C2A000040011A1302304001D8006A
:100490000430D700BA30890B4B2AD70B4B2AD80B24
:1004A0004B2A0000A5304001B1000130B2008F316D
:1004B00071278131003A03195E2A5F2A672AA53025
:1004C0004201DA000130DB0084311C248131A43088
:1004D0004001AB0096312B268131003A0319712A75
:1004E000722A7A2A430124084001BA00FF3094316D
:1004F000E924813140010D1B7E2A7F2A942A430181
:100500002203031D842A852A942AA20193315523AC
:100510008131003A03198D2A8F2A0130902A003048
:100520009431032481319C2A40010D1F982A992A75
:100530009C2A01304301A20040018D1BA02AA12A60
:10054000C02A43012303031DA62AA72AC02AA30108
:100550009331A2238131003A031DAF2AB02AB82A71
:1005600001308831512081319331C8238131C82A2B
:10057000003088315120813193315A238131C82A8A
:1005800040018D1FC42AC52AC82A01304301A30097
:100590008531122581318331142381314201600874
:1005A0000319D32AD42AD82AE0018D315425813168
:1005B0009331BE238131003A031DDF2AE02A0E2B3E
:1005C0009331A2238131013A0319E72AE82AEC2A60
:1005D0000F304301A000EF2A01304301A0002008A2
:1005E0004001AB00AC0101309631B126813193312D
:1005F00055238131003A031DFE2AFF2A032B0F30B9
:100600004301A100062B01304301A1002108400154
:10061000AB00AC0102309631B126813186316226C1
:100620008131522A8031522800309331F7238331AF
:1006300040012F08BD002E08BC0002309331F72383
:10064000833140012F08B8002E08B70001309331E4
:10065000F723833140012F08BA002E08B9009331E7
:10066000452383314001B20093314223833140015D
:10067000BB009331A22383314001B300B4013C0895
:100680003D040319442B452B502B2E303D021830CE
:1006900003193C0203184D2B4E2B502B0130B40094
:1006A0000230AE000030AF003408031D582B5A2B27
:1006B00001305B2B0030B0006E30B1008931D321A6
:1006C00083314001B501370838040319682B692BC1
:1006D000742B2A303802F830031937020318712BB3
:1006E000722B742B0130B5000430AE000030AF0027
:1006F0003508031D7C2B7E2B01307F2B0030B00092
:10070000EE30B1008931D32183314001B60133038A
:10071000031D8B2B8C2B9D2B39083A040319912B2D
:10072000922B9D2B2A303A02F83003193902031814
:100730009A2B9B2B9D2B0130B6000830AE00003069
:10074000AF003608031DA52BA72B0130A82B0030C6
:10075000B000ED30B1008931D32183311030400138
:10076000AE000030AF001A303202031CB82BBA2B97
:100770000130BB2B0030B000EC30B1008931D32107
:10078000833120304001AE000030AF004B303B02DF
:100790000318CB2BCD2B0130CE2B0030B000EB302B
:1007A000B1008931D3218331643040013B02031C05
:1007B000DA2BDB2BE22B4030AB000030AC00943165
:1007C000FC248331400162080319E72BE82B092C34
:1007D00023303D02293003193C02031CF02BF12B7E
:1007E000F52B93315A238331092C42015E085F04B3
:1007F000031DFB2BFC2B092C003088315120833149
:1008000001304001AB000030AC009431FC24833156
:10081000F12B003042015D02323003195C02031CEF
:10082000122C132C1B2C80304001AB000030AC008C
:100830009431FC2483310800DA2C5B084101E70085
:1008400042015A084101E60095313A258431112DC3
:100850005B084101E70042015A084101E600953179
:100860004F258431112D5B084101E70042015A08F0
:100870004101E6008C31FE248431112D5B084101D9
:10088000E70042015A084101E6009531792584319B
:10089000112D5B084101E70042015A084101E600C1
:1008A000953164258431112D5B084101E700420137
:1008B0005A084101E600963178268431112D5B08F3
:1008C0004101E70042015A084101E60087319427BF
:1008D0008431112D5B084101E70042015A084101B2
:1008E000E6008C31B0248431112D5B084101E70012
:1008F00042015A084101E6008E3104268431112D4F
:100900005B084101E70042015A084101E6009431C9
:10091000B5248431112D5B084101E70042015A08DA
:100920004101E6009431C6248431112D5B08410158
:10093000E70042015A084101E6008B31D22384319D
:10094000112D5B084101E70042015A084101E60010
:100950009531FB258431112D5B084101E7004201EF
:100960005A084101E6009531A3258431112D5B0819
:100970004101E70042015A084101E6009731092789
:100980008431112D5B084101E70042015A08410101
:10099000E6008C3165248431112D03304001BA000A
:1009A00042015A0886005B08870001089431E92457
:1009B0008431112D42015A0886005B088700010826
:1009C000103A03191D2C013A0319282C033A031974
:1009D000332C013A03193E2C073A0319492C013AEA
:1009E0000319542C353A03195F2C013A03196A2C68
:1009F000033A0319752C123A0319802C023A031991
:100A00008B2C723A0319962C013A0319A12C033A44
:100A10000319AC2C013A0319B72C073A0319C22C5D
:100A2000CD2C08008B1341016D08031D182D192DC5
:100A30001B2D8B17BC2D440132084001D10044010D
:100A400031084001D000440134084001D300440182
:100A500033084001D200440136084001D50044016A
:100A600035084001D4004101ED018B171A304001D7
:100A7000AB008130AC0088310A20853140012C0860
:100A8000CF002B08CE00D6010030BA000030B900EC
:100A90000330B800FF30B7005635503E860087015E
:100AA000403FC400413FC5004408AB004508AC00CE
:100AB000AD01AE014E08AF004F08B000B101B20168
:100AC0008A316722853140012E08BE002D08BD0005
:100AD0002C08BC002B08BB008D31AB2585314001B3
:100AE0003A08C9003908C8003808C7003708C600E6
:100AF0000030BA000030B9000F30B8003C30B70009
:100B00004908AE004808AD004708AC004608AB00F5
:100B10000030B2000030B1003630B0004C30AF00D1
:100B20008A316722853140012E08BE002D08BD00A4
:100B30002C08BC002B08BB008D31AB258531400152
:100B40003A08CD003908CC003808CB003708CA0075
:100B500056352B3E8600023087004A08C03F4B08BE
:100B6000C13F0130D60703305602031CB82DB92D02
:100B7000442D93315F238531080000309331F723F2
:100B8000853140012F08B4002E08B30001309331A5
:100B9000F723853140012F08B6002E08B50002303A
:100BA0009331F723853140012F08B8002E08B70094
:100BB00042016F084001B900420162084001BA00D9
:100BC0009331A22385314001BB00933155238531F8
:100BD0004001BC0094316824853140012C08BE00DE
:100BE0002B08BD00BF013B03031DF72DF82DF92D88
:100BF0003F143C080319FD2DFE2DFF2D3F150D1F41
:100C0000022E032E042EBF158D1F072E082E092E2F
:100C10003F163D083E0403190E2E0F2E102E3F17CF
:100C20005D080319142E152E162EBF173208AC00BE
:100C30003108AB003408AE003308AD00943177249E
:100C4000853140013108023EAB000030323DAC003E
:100C50003608AE003508AD00943177248531400167
:100C60003108043EAB000030323DAC003808AE0025
:100C70003708AD0094317724853140013108860072
:100C80003208870046313908810031088600320871
:100C9000870047313A088100310886003208870012
:100CA00048313F0881003108093EAB000030323D39
:100CB000AC003E08AE003D08AD009431772485318C
:100CC0000B3008008B1342016308AB00E3018B1764
:100CD0002B0803196C2E6D2E762E8B134001DD012F
:100CE00058304301DF000230E0008B178931AA2120
:100CF000863143015F086004031D7F2E802E012F83
:100D00004201AC0185311225863188319B20863124
:100D10004201EF008831762086314201E200203026
:100D20004001B1000130B2008531BD25863143015B
:100D3000690803199C2E9D2EAF2E4201AD012D088E
:100D4000203E8600023087002D08203E84000130BE
:100D50008500000801060319AE2EAF2EB32E013018
:100D60004201AC00BB2E0130AD070B302D02031C3D
:100D7000BA2EBB2E9F2E2C080319BF2EC02EC12EBB
:100D8000A8168A31D222863120304001B6000130C7
:100D9000B7000B30B800B90180308E31F1268631B2
:100DA000003A0319D42ED52EEE2E4201AD012D08A6
:100DB000203E8600023087002D08203E840001304E
:100DC0008500000881000130AD070B302D02031CA7
:100DD000EA2EEB2ED72E01304301E9008B134001A0
:100DE0005D08031DF42EF52EFB2E58304301DF0065
:100DF0000230E000002F0A304301DF000030E00045
:100E00008B1708004001AB00AB1F072F082F0F2FD7
:100E10001A1500000000000040011A11152F1A15C4
:100E2000000040011A110000000040012B1F192F83
:100E30001A2F212F1A1500000000000040011A117E
:100E4000272F1A15000040011A1100000000400170
:100E5000AB1E2B2F2C2F332F1A1500000000000083
:100E600040011A11392F1A15000040011A11000013
:100E7000000040012B1E3D2F3E2F452F1A1500006C
:100E80000000000040011A114B2F1A15000040010C
:100E90001A11000000004001AB1D4F2F502F572F9B
:100EA0001A1500000000000040011A115D2F1A15EC
:100EB000000040011A110000000040012B1D612FAD
:100EC000622F692F1A1500000000000040011A115E
:100ED0006F2F1A15000040011A1100000000400198
:100EE000AB1C732F742F7B2F1A150000000000001D
:100EF00040011A11812F1A15000040011A1100003B
:100F0000000040012B1C852F862F8D2F1A15000005
:100F10000000000040011A11932F1A150000400133
:100F20001A110000000008004101660886006708E9
:100F300087004131010303199E2F9F2FAC2F0230F0
:100F40004001BA0041016608860067088700010871
:100F50009431E9248731F32F6608860067088700FB
:100F6000423102300102031CB62FB72FC42F0430C8
:100F70004001BA0041016608860067088700010841
:100F80009431E9248731F32F6608860067088700CB
:100F900042310108883151208731410166088600BD
:100FA0006708870042310103031DD72FD82FDC2F9C
:100FB0009331C8238731DF2F93315A2387319331FF
:100FC000A22387314001BE003E304101E3000030E2
:100FD000E400E501E50A6608860067088700010865
:100FE0008B318B238731080064008001013101308F
:100FF000FE020030FF3B7F087E04031DF52F003406
:101000004001931013109312941399101910991210
:101010009A1308000B0D0B0D01394001AF008B1323
:101020002B0879018C0040012C0879018D001017E4
:1010300010140000000079010F084001AE00790192
:101040000E084001AD002F0C031C8B1303188B17E7
:101050002E08AC002D08AB0008008B134301680874
:101060004001AE00430167084001AD00AD09AE0983
:101070004101680840012D05AF00410169084001A8
:101080002E05B000410169084301E80041016808EC
:101090004301E7008B1740013008AC002F08AB007C
:1010A00008004001AC002C084301EA0040012C0379
:1010B000031D5B285C286928991468304001AB0047
:1010C000E430890B6128AB0B6128000040019910C6
:1010D0007528191468304001AB00E430890B6E2884
:1010E000AB0B6E28000040011910080040019A1750
:1010F00003304001B0000830AF007730890B7E2804
:10110000AF0B7E28B00B7E28003040018C1A0130D6
:10111000AB0000308C1B0130AC0000300C1B0130E8
:10112000AD000C0E01398B314D2388314001B100E7
:101130009A133108080040019A1703304001B000AB
:101140000830AF007730890BA328AF0BA328B00B72
:10115000A328003040018C180130AB0000300C197E
:101160000130AC0000308C190130AD000C080139A1
:101170008B314D2388314001B1009A1331080800AA
:10118000F300CB280A30F400DE280C30F400DE280F
:101190000B30F400DE287308F100F2017208003A07
:1011A0000319D328E5287108013A0319C228033A24
:1011B0000319C528013A0319C828E5287408933192
:1011C00050238831933133238831080040015D0872
:1011D0000319EB28EC280029430161086204031974
:1011E000F228F32800290130E1020030E23B6108D7
:1011F0006204031DFC28FD28002901304201E300A0
:1012000043015F0860040319062907290B290130EF
:10121000DF020030E03B0800FF304001B300FF3048
:10122000B400B50127293408AC003308AB003108FD
:101230003507860087010108AD00893159218931C0
:1012400040012C08B4002B08B3000130B507320868
:101250003502031C2C292D2913293408B200330828
:10126000B10008007208F300F4017308F006740876
:10127000F106F501701C3D293E294B297108F40047
:101280007008F300F436F30C08307306F000843075
:101290007406F10050290130F136F00C890B4C290D
:1012A0000130F50708307502031C572958293A29DF
:1012B000080040012D08AE00AF012E08AB062F0834
:1012C000AC06B0012B1C6529662973292C08AF00D8
:1012D0002B08AE00AF36AE0C08302E06AB008430C3
:1012E0002F06AC0078290130AC36AB0C890B742981
:1012F0000130B00708303002031C7F2980296229A1
:10130000080041011919852986298B2940012B08DC
:101310004C018D00A72940015C08031990299129EF
:10132000A72941016C08203E860003308700400158
:101330002B08810041016C08013E3F394001AC009F
:101340002C084101EC00191101304001DC0241017F
:101350001915080088312D20893140012C08BE0064
:101360002B08BD003D083E040319B729B829D2292E
:101370000130BA003B30AB000030AC003E08AE009C
:101380003D08AD009431772489313A304001B600F0
:101390000030B7000330B800B901B90A81308E318E
:1013A000F12689310800400130080319D829D929CC
:1013B000FB2931088600013087000530010203183F
:1013C000E229E329002A3108860001308700013034
:1013D0008107310886000130870005300106031DB2
:1013E000F229F329002A2F08AC002E08AB00943113
:1013F000FC248931002A31088600013087008101F0
:1014000008007A01A6138430A600A7011830A800AE
:101410001030A9000F30AD00AE01AF01B0018C015A
:101420008D018E018F019201930198019701960120
:101430009E019D0199019A01A3019F01A101A201B1
:10144000A401A5010330AB00AC01AA014401C50110
:10145000C601C301C401410190119A1110121A1260
:1014600084307A01A60008004001B3001030330236
:1014700003183B2A3C2A662A3308B100B20131081E
:10148000AB003208AC000330AD000030AE00973145
:10149000E0278A31303040012B07840010302C3D8A
:1014A00080388500003FB400013FB500023FB60020
:1014B0003508873102278A314001340887310227F5
:1014C0008A3140013608873102278A31080000300E
:1014D0004001B6000030B5000030B4000030B30069
:1014E0002B1C732A742A7C2A2F08B3073008B43DBA
:1014F0003108B53D3208B63D0130AF35B00DB10D04
:10150000B20D890B7D2A0130AE36AD0CAC0CAB0CA4
:10151000890B842A2E082D042C042B04031D912AE8
:10152000922A702A3608AE003508AD003408AC00A7
:101530003308AB0008004101991178304401CD0017
:101540000E30CE0041011911EB304401CF001630AE
:10155000D00048304C01920090309000263091002D
:1015600044308E008F0132304001AB001330AC00AC
:1015700094314A248A3148304001AB001330AC002A
:10158000943159248A314401BF01C0014101EC0169
:10159000EB0140304001DC00DB01FD014101EA01CB
:1015A0009915080041304001AB004330AC00453094
:1015B000AD00973145278A3102304001BA003B30F7
:1015C000AB000030AC004208AE004108AD009431E1
:1015D00077248A313D304001AB000030AC00440834
:1015E000AE004308AD00943177248A313F3040018A
:1015F000AB000030AC004608AE004508AD009431A9
:1016000077248A313A304001B6000030B700073005
:10161000B800B90181308E31F1268A3108004001CD
:101620009801990110309A009C01FF309200DC3043
:1016300093002B309400083096007D018C011C3003
:1016400096000330A0008D01C0309700A101B501C4
:101650008E019801A201FF308F00FF309900FF300A
:10166000A300FF309000FF309A00FF30A400083044
:10167000B80013307C01C1000E307B01A0007D0159
:101680009101920193019B019C019D01A501A6017D
:10169000A701B901BA01BB0108004001AE002E0844
:1016A000031D532B542B652B2B08031D582B592B33
:1016B000652B2C08031D5D2B5E2B652B2D08031D50
:1016C000622B632B652B64308A2B2B08031D692B3F
:1016D0006A2B762B2C08031D6E2B6F2B762B2D0877
:1016E000031D732B742B762B4B308A2B2C08031D78
:1016F0007A2B7B2B822B2D08031D7F2B802B822B9B
:1017000032308A2B2D08031D862B872B892B19300D
:101710008A2B003008004201D80041016508013ED3
:101720004001BA00003003180130BB0000303B021A
:10173000393003193A02031C9E2B9F2BA22B373002
:101740004101E50042015808A000D901B92B590810
:10175000013E203E860001308700590841016307A1
:1017600084000030643D85000008810001304201A2
:10177000D9074101650842015902031CC02BC12B46
:10178000A72B20304001B6000130B70041016508A9
:10179000013E4001B800B901B90AF0308E31F1269E
:1017A0008B310800410166088600670887004131D7
:1017B00001030319DC2BDD2BEA2B02304001BA00B8
:1017C0004101660886006708870001089431E92412
:1017D0008B311A2C660886006708870042315A3020
:1017E00001060319F42BF52B022C04304001BA003A
:1017F0004101660886006708870001089431E924E2
:101800008B311A2C0030E300E400E5016608860005
:101810006708870001088B318B238B31D030400162
:10182000BE00C930890B122CBE0B122C0032953130
:1018300010258B310800963194268C3171084001B7
:10184000A1007008A000512C21084401B200400101
:1018500020084401B10002304001E3000230883129
:10186000C0208C31642C21084401B60040012008BE
:101870004401B50003304001E30003308831C0204B
:101880008C31642C21084401B4004001200844013B
:10189000B3004001E30101304101ED00642CE3019C
:1018A000642C6308FB00FC017C08003A0319592CE6
:1018B0004F2C7B08013A0319242C033A0319332CCB
:1018C000013A0319422C4F2C08004101660886009A
:1018D000670887004131023001060319702C712C12
:1018E0007E2C02304001BA0041016608860067087C
:1018F000870001089431E9248C31AF2C6608023E40
:101900004001AB0000304101673D4001AC00953122
:10191000CE258C3140012C08B1002B08B000973146
:1019200082278C313E304001AF00943168248C31E5
:1019300040012C08B1002B08B0009331EB238C310F
:101940003E304101E3000030E4000230E50066086B
:1019500086006708870001088B318B238C310800D3
:1019600041016608860067088700413101030319B9
:10197000BA2CBB2CC82C02304001BA0041016608C9
:1019800086006708870001089431E9248C31FD2C1A
:101990006608860067088700423102300102031C96
:1019A000D22CD32CE02C04304001BA00410166084F
:1019B00086006708870001089431E9248C31FD2CEA
:1019C00066088600670887004231010894310324C5
:1019D0008C31933155238C314001BE003E304101A2
:1019E000E3000030E400E501E50A660886006708C8
:1019F000870001088B318B238C3108004101660878
:101A0000860067088700413101030319082D092D5D
:101A1000162D02304001BA004101660886006708B1
:101A2000870001089431E9248C31532D6608860023
:101A300067088700423101084001C30003304302B8
:101A4000031C232D242D302D0430BA0041016608DB
:101A500086006708870001089431E9248C31532DF2
:101A600043089331F7238C3140012F08C2002E0820
:101A7000C1004308BE003F30AF004208B10041083A
:101A8000B0009331EB238C313E304101E300003054
:101A9000E4000330E5006608860067088700010857
:101AA0008B318B238C31080040016108031D592DB7
:101AB0005A2D652D42016D088A3134228D31420143
:101AC0006B088A3134228D319F2D610842016C06EA
:101AD000031D6B2D6C2D7D2D4001610842016A06AE
:101AE000031D732D742D7D2D0F308A3134228D31DD
:101AF0000F308A3134228D319F2D4001610842011F
:101B00006C06031D842D852D8F2D0F308A313422D4
:101B10008D3142016B088A3134228D319F2D400175
:101B2000610842016A06031D962D972D9F2D6D08B1
:101B30008A3134228D310F308A3134228D310A308E
:101B4000400161020318A52DA62DA92D0130E10742
:101B5000AA2DE101080000304001C2000030C100A0
:101B60000030C0000030BF003A08390438043704A0
:101B70000319BB2DBC2DFB2D0130C300C82D013036
:101B8000B735B80DB90DBA0D890BC02D0130C3079B
:101B9000BA1FCB2DCC2DBF2D0130BF35C00DC10DCF
:101BA000C20D890BCD2D3A083E02031DE12D3908E7
:101BB0003D02031DE12D38083C02031DE12D3708CD
:101BC0003B02031CE42DE52DEE2D3708BB0238083F
:101BD000BC3B3908BD3B3A08BE3B3F140130BA3626
:101BE000B90CB80CB70C890BEF2D0130C302031DE3
:101BF000FA2DFB2DCC2D4208BA004108B90040084F
:101C0000B8003F08B7000800410166088600670871
:101C1000870041310330010603190F2E102E1D2EAF
:101C200002304001BA00410166088600670887005B
:101C300001089431E9248E31772E66088600670802
:101C40008700423101084001C0004101660886005A
:101C500067088700433101084001BE004101660862
:101C6000860067088700443101084001BF00400832
:101C700003193B2E3C2E4E2E033040020318412EFA
:101C8000422E4E2E10303E020318472E482E4E2E66
:101C90000B303F02031C4D2E4E2E5A2E0430BA003C
:101CA0004101660886006708870001089431E9242D
:101CB0008E31772E3E08AB003F08AC0040089631CD
:101CC000B1268E3108304001AB000730AC009331B3
:101CD000AB238E3100304101E300E400E5016608EA
:101CE00086006708870001088B318B238E3108003E
:101CF00040015B35FC3E860087012630873D5B3521
:101D00000030873D0030C03FC13F4C01901C892E00
:101D10008A2EA72E40015B08A500A601A535A60DB9
:101D2000FC30A7002630A8002508270786002608D3
:101D3000283D870001154401370838040319A12EF6
:101D4000A22EA72E38088A0037080A008E314C01CF
:101D5000101DAB2EAC2EC92E40015B08A500A601BC
:101D6000A535A60DFC30A7002630A80025082707BA
:101D700086002608283D87008114440139083A046A
:101D80000319C32EC42EC92E3A088A0039080A0046
:101D90008E314C010C084001A9005B08013E3F391F
:101DA000AA002A087D06031DD62ED72ED82EE42E93
:101DB0005B08A03E860003308700290881002A08BE
:101DC000DB0001304101EA0744013B083C040319F0
:101DD000EA2EEB2EF02E3C088A003B080A008E31DA
:101DE00008004101DE00393040013802031CF92EA1
:101DF000FA2EFC2E0030702FAA304101A0005E08A0
:101E0000A100400138084101A200E201182F620838
:101E1000033EA03E86008701620840013607840029
:101E20000030373D85000008810001304101E207A4
:101E30004001380841016202031C1F2F202F072F89
:101E4000A1304001B1003808023EB20089310C21B6
:101E50008E31400132084101E10040013108410169
:101E6000E00040013808033EA03E860087014101A2
:101E70006008810040013808043EA03E86008701CA
:101E800041016108810040013808053E4101DF0041
:101E900040013908031D4D2F4E2F572F93319923A1
:101EA0008E31003A031D552F562F572FFA2E410120
:101EB000E201692F4001AD01AD0A41016208A03E77
:101EC0008600870101089731A1278E310130410139
:101ED000E2075F086202031C6E2F6F2F5A2F01303A
:101EE00008004001BB018B13420166080319792FDA
:101EF0007A2FFC2F40015E08BC00310886003208B2
:101F000087003C08B300B4013308AB003408AC00D0
:101F10003A30AD000030AE009731E0278F317C3091
:101F20004001B5002730B6002B08350784002C0887
:101F3000363D8500000881003108860032088700A0
:101F400041313C08B300B4013308AB003408AC00A5
:101F50003A30AD000030AE009731E0278F317D3050
:101F60004001B5002730B6002B08350784002C0847
:101F7000363D850000088100BD01EC2F3D0831078A
:101F8000B3000030323DB4003308860034088700C7
:101F900042313C08B500B6013508AB003608AC004C
:101FA0003A30AD000030AE009731E0278F317E30FF
:101FB0004001B7002730B8002B083707B9002C08BC
:101FC000383DBA003D083907840000303A3D8500AD
:101FD000000881000130BD07310886003208870003
:101FE000413101083D02031CF62FF72FBE2F42019D
:101FF000E60101304001BB008B1740013B0808009F
:102000009B340A34003400341234163481340934D9
:1020100075341334993413340034003400340034EC
:102020000034003400340034003400340034003410
:102030000034003400340034003400340034003400
:102040000034003400340034863414340034003456
:102050004A34143459341434003400340034003415
:10206000FF34003400340034FF34003400340034D2
:10207000FF34FF34FF340034FF340034FF340034C5
:10208000FF34FF34FF34FF34FF3480340034003435
:1020900000348034003400340034803480348034A0
:1020A0000034803400348034003480348034C034D0
:1020B000C034C03480348034803400340034003480
:1026640008007A01261408004101101208004C01E8
:102674009017080041019A150800410190110800C3
:1026840042016208080042016F0808004C01101260
:1026940010160800FB3060018C000800F000700880
:1026A4007A019F0008004001190E890C01390800C5
:1026B4008B134001E2018B1708004201DC01DD01AC
:1026C4008B138B1708007408F1007308F000943121
:1026D40095249331080044018F0191010530930042
:1026E40092019401080041016A08031D7A2B7C2B96
:1026F40001307D2B0030080040012C084401C20049
:1027040040012B084401C100080040012C08440189
:10271400CC0040012B084401CB00080040012C08E8
:102724004401C60040012B084401C50008004001D3
:102734005C08031D9E2BA02B0130A12B0030080048
:1027440043016A08031DA72BA92B0130AA2B0030D3
:10275400080040012C084301E60040012B08430116
:10276400E50008008B134001DD0158304301DF0010
:102774000230E0008B170800430165086604031D5E
:10278400C42BC62B0130C72B003008008B1301303B
:102794004001E2002C304201DE000130DF008B17E3
:1027A40008004301650866040319D92BDA2BDE2BD4
:1027B4000130E5020030E63B080041010C100B1427
:1027C40000304001AB000030AC0093317E239331E4
:1027D400080040012F0886008701300881002F0A75
:1027E400860087013108810008004001B0003008EC
:1027F40095312525933140012C08AF002B08AE00FC
:1028040008004001AB002B030319092C0C2C4001D8
:1028140099160E2C4001991208004001630803190F
:10282400142C152C162C1C2C0130E300013088319B
:10283400C020943108004101901144014508460428
:102844000319252C262C2B2C46088A0045080A003F
:10285400943108004C01101210164201E9014001A4
:10286400DF010030F3000230F4009331652394312A
:10287400080044014B084C040319412C422C472CFA
:102884004C088A004B080A00943141018C1208005C
:1028940040012B082C040319502C512C582C2C08C3
:1028A4004401BA0040012B084401B900080040016A
:1028B4002B082C0403195F2C602C672C2C08440172
:1028C400B80040012B084401B70008008B134101F4
:1028D40069084001AE00410168084001AD008B1752
:1028E4002E08AC002D08AB00080040012B08860020
:1028F4002C0887002D0881002B0886002C088700EF
:1029040041312E088100080040012B082C040319D2
:102914008C2C8D2C942C2C084401BC0040012B08D9
:102924004401BB0008000B0D0B0D0139F2008B13A1
:1029340070084101E8047108E904720C031C8B134C
:1029440003188B1708004001DD014301E101E20196
:10295400DF01E0014201E3014301E9016430420186
:10296400EF00E201080095318E25943100304101D9
:10297400E300E400E50166088600670887000108B3
:102984008B318B23943108009331B423943100307C
:102994004101E300E400E50166088600670887005A
:1029A40001088B318B2394310800C23043019D0010
:1029B4009C0159309F0002304401CB000030CC0010
:1029C40041018C129616873043019E000800400195
:1029D400BB003B08BC003A08BD003C30B6000030E8
:1029E400B7000230B800B901B90AF1308E31F126CE
:1029F400943108000B0D0B0D01394001AD008B1310
:102A04002B084101E80440012C084101E90440017C
:102A14002D0C031C8B1303188B1708008B137901DF
:102A24001017F0308D008C01A5308E001015553034
:102A34009100AA30910090149018212D222D1E2D62
:102A44001011010008004001AD0003302D020318ED
:102A54002C2D2D2D372D2D352B3E86000230870051
:102A6400403FAB00413FAC00392DAB01AC01080045
:102A74009331A22395314001BC003C304101E30075
:102A84000030E400E501E50A66088600670887006F
:102A940001088B318B2395310800933155239531EF
:102AA4004001BC003C304101E3000030E400E5019A
:102AB400E50A660886006708870001088B318B23C6
:102AC400953108009331422395314001BC003C30DC
:102AD4004101E3000030E400E501E50A66088600F0
:102AE4006708870001088B318B23953108009331E7
:102AF400452395314001BC003C304101E3000030E6
:102B0400E400E501E50A6608860067088700010815
:102B14008B318B23953108008B1340015D08031D15
:102B2400942D952D9A2D0130DD004301DF01E00144
:102B340064304301E1000030E2004201E3018B17FD
:102B4400080002304001BC00BD01BE013C3041011F
:102B5400E3000030E4000330E500660886006708FF
:102B6400870001088B318B239531080093316D2345
:102B740095318B310F2395318A310122953194316E
:102B8400D72495318A319B22953193314C23953149
:102B94009331DF239531080040012B0886002C086F
:102BA400870041310108AD00AE012D08AE00AD0132
:102BB4002B0886002C0887002D080104AB002E0882
:102BC400AC000800F22D963112269531FC0001303C
:102BD4004301E3070030E43D7C088031BD2095319A
:102BE400933175239531003A031DF92DFA2DE52D06
:102BF400080041016608023EE3000030673DE4003E
:102C0400660886006708870041310108E500660808
:102C140086006708870001088B318B2395310800F3
:102C24007D08A03E8600033087000108F1007D087E
:102C3400013E3F39F0007008FD00410199116A0816
:102C44000319252E262E282E0130EA029915710823
:102C540008004001AC018B13420165080319332EAF
:102C6400342E402E40012B0886000130870042019B
:102C740064088100E50101304001AC008B1740017C
:102C84002C0808009331D32396318831E6209631FD
:102C94009731C027963101304201E10705306102C6
:102CA400031C552E562E5A2EE10194310F249631D1
:102CB40001304201E00008004001E3014101ED015F
:102CC4004401AB01AC01AD01AE01AF01B0011B3059
:102CD4004001AB000C30AC0093319023963193311A
:102CE4003F23963193313C23963108004030400114
:102CF400B1000030B2008531BD2596314001D000CD
:102D040040304101E3000030E4004001500841013B
:102D1400E500660886006708870001088B318B236D
:102D2400963108007A011D08F200F3017208F500DB
:102D34007308F6001E08F200F3017208F300F201B2
:102D44007208F7007308F80075087704F90076082C
:102D54007804FA007A08F1007908F00008004001CC
:102D6400AD002D03031DB72EB82EC02E2B08420133
:102D7400ED0040012C084201EC00CD2E02302D065E
:102D8400031DC52EC62ECD2E2B084201EB0040019B
:102D94002C084201EA0008004201E9014001DF0178
:102DA4004201E601E5014001DE014C01101210165A
:102DB400E4304001AB001530AC00943186249631E8
:102DC4002C304001AB001430AC00943159249631BE
:102DD4000800403040015C020318F12EF22E062F49
:102DE40041016B08203E86000330870001084C0136
:102DF4008D0041016B08013E3F39F0007008EB0083
:102E040001304001DC07082F4101191108003C3052
:102E14004001AF0094316824973140012C08B1007F
:102E24002B08B0009331EB2397313C304101E30090
:102E34000030E4000230E500660886006708870079
:102E440001088B318B23973108004101E801E90126
:102E54004301E701E8014201EE014301EE01ED0106
:102E6400EC01EB014001E2014201DE01DF01DC0182
:102E7400DD0143010E183F2F402F442F41016915F6
:102E840043010E1408008B1340012B0886008701B0
:102E940043016308C03F6408C13F40012C08860019
:102EA400870144014908C03F4A08C13F40012D0839
:102EB4008600870144014708C03F4808C13F8B177B
:102EC4000800F401F501701C682F692F6D2F72083A
:102ED400F4077308F53D0130F235F30D890B6E2FBD
:102EE4000130F136F00C890B732F70087104031D47
:102EF4007C2F7D2F652F7508F1007408F000080001
:102F04008B1340013108B3003008B200B209B30991
:102F140032084101E805400133084101E905400157
:102F24003108B3003008B200B209B30932084301D2
:102F3400E705400133084301E8058B170800400109
:102F4400AE002D080319A72FA82FB72F933199236B
:102F54009731003A0319AF2FB02FA82F40012E0844
:102F6400AB00893181219731BF2F93319923973158
:102F7400003A031DBE2FBF2FB02F08004001620886
:102F84000319C52FC62FD12F42015E085F04031910
:102F9400CC2FCD2FD12F0130DE020030DF3B0030AB
:102FA40042015D02323003195C020318DA2FDB2F71
:102FB400DF2F0130DC070030DD3D08004001AF01A8
:102FC400B0012B1CE62FE72FEB2F2D08AF072E089F
:102FD400B03D0130AD35AE0D890BEC2F0130AC3670
:102FE400AB0C890BF12F2B082C04031DFA2FFB2F9C
:102FF400E32F3008AC002F08AB0008004F344634F0
:0A300400463400344F344E340034DB
:047FFC00FF34FF341B
:020000040001F9
:04000E008C3FE53D01
:04001400F43FFF3F77
:00000001FF
