:0400000080314F28D4
:100008007E1480310B1F09280A284D2841019A1DAA
:100018000E280F281728901D122813281728943106
:10002800122480314D281A1E1A281B282328101E36
:100038001E281F2823289331032380314D28191D9A
:100048002628272832280F1D2A282B283228440141
:1000580046088A0045080A0080314D28991D352830
:10006800362841288F1D39283A2841284401440858
:100078008A0043080A0080314D28961E44284528E6
:100088004D288C1E482849284D2894313024803129
:100098004D287E10090080315128FC30840026301C
:1000A8008500F430FE000030FF009331EB238031EF
:1000B80050308400003085001130FE000030FF0011
:1000C8009331EB2380314101E801E901EA01EB01B9
:1000D800EC01ED01EE01EF015C3084000130850098
:1000E8001430FE000030FF009331EB238031B33031
:1000F8008400013085001130FE000030FF0093318C
:10010800EB23803120308400023085002130FE004E
:100118000030FF009331EB238031A030840002309F
:1001280085003830FE000030FF009331EB2380312A
:1001380020308400033085004030FE000030FF008E
:100148009331EB238031A0308400033085004030A8
:10015800FE000030FF009331EB2380317E10400118
:100168008131FA29FA00DB29AA307A06031DBD2855
:10017800BE28F929FF30D000FF30D100DC01013062
:100188004101EA00F9297A084101E90040015108D2
:10019800F1005008F0007A08F2008831F12080312F
:1001A80071084001D1007008D00002304101EA0016
:1001B800F92939307A02031CE228E328E6284101AC
:1001C800EA01F9297A08DD005108F1005008F00029
:1001D8007A08F2008831F120803171084001D1009D
:1001E8007008D0005D08031DFA28FB28FF28053099
:1001F8004101EA00F92904304101EA00F9295C08C3
:10020800A03E8600023087007A0881000130A000F5
:100218002008DC075108F1005008F0007A08F200C5
:100228008831F120803171084001D1007008D00078
:100238005D085C02031C21292229F929FB287A0878
:100248004101E8000630EA00F9297A08A000A10176
:100258002008A100A001200841016804F60040011F
:100268002108F70051087706031D3C295008760637
:10027800031D3F294029C9295B08013AF90079087B
:10028800A000A1012008F0002108F1003A30F20096
:100298000030F3009731222780317C304001A200E2
:1002A8002730A30070082207A4007108233DA50089
:1002B800240886002508870041016908810079081B
:1002C8004001A000A1012008F0002108F1003A3007
:1002D800F2000030F3009731222780317D30400151
:1002E800A2002730A30070082207A4007108233D4C
:1002F800A50024088600250887005D088100F8010C
:10030800B8297808A03E8600023087000108A000BE
:100318007808A100A2017908A300A4012308F0002D
:100328002408F1003A30F2000030F3009731222718
:1003380080317E304001A5002730A60070082507CF
:10034800A7007108263DA80021082707A900220850
:10035800283DAA00290886002A088700200881006D
:100368000130A0002008F8075D087802031CBD29A9
:10037800BE2985297908DB0001304201EA000130F5
:100388004301BB070030BC3DE32801304201E900CE
:100398000130E8000030F3000130F40093312C23E1
:1003A800803101304301B9070030BA3DE3284101EB
:1003B8006A084001A000A1012108003A0319E529B3
:1003C800E3282008003A0319B828013A0319C72876
:1003D800033A0319DD28063A03190329013A0319D8
:1003E8002329033A03192929E32808004801A2010F
:1003F800A20AA301A30A95317C25813193318F2369
:1004080081314001131793171411141393310623E4
:1004180081319531ED2581319631E726813196314B
:10042800CA2681319331A423813158304001AF006D
:100438001630B00093314E2381318B170B1764307F
:100448004001AF000030B0009331722381310C308D
:100458004001AF000530B00001309631AD26813142
:100468000C304001AF000530B00002309631AD26A7
:10047800813140011A1702304301B2000430B10043
:10048800BA30890B452AB10B452AB20B452A000020
:1004980040011A1302304301B2000430B100BA30EF
:1004A800890B542AB10B542AB20B542A0000253068
:1004B8004001B5000430B6008531E8258131003AA5
:1004C8000319672A682A702A25304201DA000430A5
:1004D800DB00843123248131243096310726813191
:1004E800003A0319782A792A812A48012408410107
:1004F800E300FF309431D424813140010D1B852A5B
:10050800862A9B2A48012203031D8B2A8C2A9B2AB0
:10051800A20193311C238131003A0319942A962AA7
:100528000130972A00309331DF238131A32A40011B
:100538000D1F9F2AA02AA32A4801A201A20A40014E
:100548008D1BA72AA82AC72A48012303031DAD2A01
:10055800AE2AC72AA301933169238131003A031DCA
:10056800B62AB72ABF2A01308831A62081319331B3
:1005780099238131CF2A00308831A62081319331E7
:1005880021238131CF2A40018D1FCB2ACC2ACF2AA3
:100598004801A301A30A85311925813183311B2321
:1005A8008131430141080319DA2ADB2ADF2AC10114
:1005B8008C31E4248131933185238131003A031D44
:1005C800E62AE72A152B933169238131013A031969
:1005D800EE2AEF2AF32A0F304801A000F62A480134
:1005E800A001A00A20084001AF00B00101309631F7
:1005F800AD26813193311C238131003A031D052B2F
:10060800062B0A2B0F304801A1000D2B4801A10130
:10061800A10A21084001AF00B00102309631AD2691
:1006280081318731352781315B2A80314F2800306D
:100638009331D323833140013308C2003208C1000B
:1006480002309331D323833140013308BD0032088F
:10065800BC0001309331D323833140013308BF00FC
:100668003208BE008831172083314001B700973126
:10067800DE2783314001C000933169238331400173
:10068800B800B9014108420403194B2B4C2B572BD6
:100698002E3042021830031941020318542B552BEF
:1006A800572BB901B90A0230B2000030B30039083B
:1006B800031D5F2B612B0130622B0030B4006F30BB
:1006C800B5008731CE2783314001BA013C083D048B
:1006D80003196F2B702B7B2B2A303D02F83003193E
:1006E8003C020318782B792B7B2BBA01BA0A043009
:1006F800B2000030B3003A08031D832B852B01306C
:10070800862B0030B4006E30B5008731CE27833198
:100718004001BB013803031D922B932BA42B3E08E9
:100728003F040319982B992BA42B2A303F02F83049
:1007380003193E020318A12BA22BA42BBB01BB0A51
:100748000830B2000030B3003B08031DAC2BAE2BC1
:100758000130AF2B0030B4006D30B5008731CE27A3
:10076800833110304001B2000030B3001A30370234
:10077800031CBF2BC12B0130C22B0030B4006C30DE
:10078800B5008731CE27833120304001B2000030D8
:10079800B3004B3040020318D22BD42B0130D52B99
:1007A8000030B4006B30B5008731CE278331643018
:1007B80040014002031CE12BE22BE92B4030AF0043
:1007C8000030B00094317C24833140015F08031964
:1007D800EE2BEF2B102C2330420229300319410253
:1007E800031CF72BF82BFC2B933121238331102C7E
:1007F800420164086504031D022C032C102C0030F0
:100808008831A620833101304001AF000030B000AC
:1008180094317C248331F82B00304201630232305A
:1008280003196202031C192C1A2C222C8030400157
:10083800AF000030B00094317C2483310800E12CF3
:100848005B084101E70042015A084101E600953181
:1008580013258431182D5B084101E70042015A082D
:100868004101E600953128258431182D5B084101A6
:10087800E70042015A084101E6008C319124843195
:10088800182D5B084101E70042015A084101E600C2
:10089800953152258431182D5B084101E70042014A
:1008A8005A084101E60095313D258431182D5B0831
:1008B8004101E70042015A084101E6009531D5257A
:1008C8008431182D5B084101E70042015A084101B3
:1008D800E6008D3199258431182D5B084101E70028
:1008E80042015A084101E6008B31F7238431182D63
:1008F8005B084101E70042015A084101E6008D31D9
:10090800F5258431182D5B084101E70042015A089A
:100918004101E60094318C248431182D5B08410193
:10092800E70042015A084101E60094319D248431D0
:10093800182D5B084101E70042015A084101E60011
:100948008B3121238431182D5B084101E7004201D6
:100958005A084101E600883100208431182D5B08CF
:100968004101E70042015A084101E6009531672537
:100978008431182D5B084101E70042015A08410102
:10098800E600963174268431182D5B084101E70092
:1009980042015A084101E6008B3166238431182D43
:1009A80003304101E30042015A0886005B088700D2
:1009B80001089431D4248431182D42015A08860044
:1009C8005B0887000108103A0319242C013A03191F
:1009D8002F2C033A03193A2C013A0319452C073AEC
:1009E8000319502C013A03195B2C353A0319662C6C
:1009F800013A0319712C033A03197C2C123A031992
:100A0800872C023A0319922C723A03199D2C013A49
:100A18000319A82C033A0319B32C013A0319BE2C65
:100A2800073A0319C92CD42C08008B1341016F080D
:100A3800031D1F2D202D222D8B17E72D4401320871
:100A48004101AB00440131084101AA0044013408C6
:100A58004101AD00440133084101AC0044013608AE
:100A68004101AF00440135084101AE00EF018B1789
:100A78001A304001AF008130B0008831392085310B
:100A8800400130084101A90040012F084101A80098
:100A9800B00100304001BE000030BD000330BC0092
:100AA800FF30BB0041013035AA3E86008701403F38
:100AB8004001C900413FCA004908AF004A08B000D8
:100AC800B101B201410128084001B30041012908E0
:100AD8004001B400B501B6018931FF2185314001DB
:100AE8003208C2003108C1003008C0002F08BF001A
:100AF8008D313E25853140013E084101A30040016A
:100B08003D084101A20040013C084101A10040010B
:100B18003B084101A00000304001BE000030BD008C
:100B28000F30BC003C30BB00410123084001B2003B
:100B3800410122084001B100410121084001B000F3
:100B4800410120084001AF000030B6000030B50078
:100B58003630B4004C30B3008931FF218531400173
:100B68003208C2003108C1003008C0002F08BF0099
:100B78008D313E25853140013E084101A7004001E5
:100B88003D084101A60040013C084101A500400183
:100B98003B084101A40030352B3E86000230870017
:100BA8002408C03F2508C13F01304001C900490859
:100BB8004101B00703303002031CE32DE42D4D2D15
:100BC80093312623853108004001C6018B13420169
:100BD8006A080319F02DF12D8B2E40015B08C70020
:100BE8004708B700B8013708AF003808B0003A30F6
:100BF800B1000030B2009731BE2785317C3040010A
:100C0800B9002730BA002F083907860030083A3D66
:100C180087000108BB0035088600360887003B08B6
:100C280081004708B700B8013708AF003808B0009E
:100C38003A30B1000030B2009731BE2785317D309F
:100C48004001B9002730BA002F083907860030085C
:100C58003A3D87000108BB003508013EBC00003062
:100C6800363DBD003C0886003D0887003B088100F2
:100C7800C8017B2E4808B700B8014708B900BA0177
:100C88003908AF003A08B0003A30B1000030B2007D
:100C98009731BE2785317E304001BB002730BC002C
:100CA8002F083B07BD0030083C3DBE0037083D0714
:100CB800860038083E3D87000108BF004808C0008C
:100CC800C10140083507C2004108363DC30042084B
:100CD800023EC4000030433DC50044088600450874
:100CE80087003F0881000130B7003708C80735087A
:100CF800860036088700413101084802031C852E0A
:100D0800862E3E2E4201EA014001C601C60A8B1713
:100D18004001460808004001C30000309331D32346
:100D2800863140013308B7003208B60001309331EC
:100D3800D323863140013308B9003208B8000230A5
:100D48009331D323863140013308BB003208BA00FF
:100D58008831172086314001BC009731DE27863163
:100D68004001BD009331692386314001BE009331B3
:100D78001C2386314001BF009331C72386314001CF
:100D88003008C1002F08C000C2013E03031DCD2E4C
:100D9800CE2ECF2E42143F080319D32ED42ED52E93
:100DA80042150D1FD82ED92EDA2EC2158D1FDD2E15
:100DB800DE2EDF2E4216400841040319E42EE52EEC
:100DC800E62E42175A080319EA2EEB2EEC2EC2170C
:100DD8004308AF000130B0003708B2003608B10050
:100DE8009531A825863140014308023EAF00013005
:100DF800B0003908B2003808B1009531A82586310D
:100E080040014308043EAF000130B0003B08B20087
:100E18003A08B1009531A825863140014308063EBD
:100E28008600013087003C0881004308073E8600A1
:100E3800013087003D0881004308083E86000130E4
:100E48008700420881004308093EAF000130B00026
:100E58004108B2004008B1009531A82586310B3011
:100E680008008B1342016708AB00E7018B172B08BA
:100E780003193F2F402F492F8B134001DA015830B7
:100E88004201DC000230DD008B1789311A218731DD
:100E980042015C085D04031D522F532FCD2FAC0176
:100EA800853119258731203086318F2687314301D6
:100EB80042080319602F612F732F4201AD012D08DD
:100EC800203E8600023087002D08203E8400013035
:100ED8008500000801060319722F732F772F42012E
:100EE800AC01AC0A832F01304001CF004F0842010A
:100EF800AD070B302D02031C822F832F632F2C0884
:100F08000319872F882F892FA8168A3169228731DC
:100F180020304001BC000130BD000B30BE00BF01D5
:100F280080308E31E7268731003A03199C2F9D2F98
:100F3800BA2F4201AD012D08203E860002308700FD
:100F48002D08203E84000130850000088100013012
:100F58004001CF004F084201AD070B302D02031CA2
:100F6800B62FB72F9F2F4301C201C20A8B1340012E
:100F78005A08031DC02FC12FC72F58304201DC006B
:100F88000230DD00CC2F0A304201DC000030DD00E9
:100F98008B170800400134080319D32FD42FF82FDA
:100FA8003508860001308700053001020318DD2F5F
:100FB800DE2FFD2F0130B60035088600013087008E
:100FC800360881073508860001308700053001069C
:100FD800031DEF2FF02FFD2F3308B0003208AF00AC
:100FE80094317C248731FD2F350886000130870035
:100FF800810108000800080041016608023EE3007C
:101008000030673DE40066088600670887004131C4
:101018000108E500660886006708870001088C312A
:1010280041248831080040019A1768304001B30014
:10103800E430890B1D28B30B1D2800000030400147
:101048008C180130AF0000300C190130B0000030AE
:101058008C190130B1000C0801398A31E32288313A
:101068004001B4009A133408080000308B1B01308B
:101078004001B3008B132F0879018C004001300820
:1010880079018D00101710140000000079010F0875
:101098004001B20079010E084001B100330C031C75
:1010A8008B1303188B173208B0003108AF00080003
:1010B80040015A08031961286228752842015E0810
:1010C8005F0403196828692875280130DE0200309A
:1010D800DF3B5E085F04031D722873287528013002
:1010E800E70042015C085D0403197B287C288028FE
:1010F8000130DC020030DD3B080041011919852868
:1011080086288B2840012F084C018D00A328400118
:101118005708031990289128A3285908203E8600CB
:10112800033087002F0881005908013E3F39B0007D
:101138003008D9004101191101304001D70241019D
:10114800191508004001B00030084301C3004001F0
:101158003003031DB028B128BE2899146830400117
:10116800AF00E430890BB628AF0BB6280000400169
:101178009910CA28191468304001AF00E430890B6F
:10118800C328AF0BC3280000400119100800F30062
:10119800D6280A30F400E9280C30F400E9280B308E
:1011A800F400E9287308F100F2017208003A031903
:1011B800DE28F0287108013A0319CD28033A0319EB
:1011C800D028013A0319D328F0287408933117233B
:1011D800883193310023883108007208F300F40144
:1011E8007308F0067408F106F501701CFC28FD2848
:1011F8000A297108F4007008F300F436F30C08307B
:101208007306F00084307406F1000F290130F136BE
:10121800F00C890B0B290130F3007308F50708302F
:101228007502031C18291929F92808009731602725
:10123800893140013008C6002F08C500450846041A
:101248000319272928294229C201C20A4330AF00BD
:101258000030B0004608B2004508B1009531A82515
:10126800893142304001BC000030BD000330BE006F
:10127800BF01BF0A81308E31E7268931080040015D
:101288003108B200B3013208AF063308B006B40122
:101298002F1C4F2950295D293008B3002F08B200B0
:1012A800B336B20C08303206AF0084303306B000D3
:1012B80062290130B036AF0C890B5E290130B200CB
:1012C8003208B40708303402031C6B296C294C29F6
:1012D80008004001B800FF30B900FF30BA00BB0178
:1012E8008D293A08B0003908AF003B083807B70025
:1012F8003708860087010108B10089314321893107
:1013080040013008BA002F08B9000130B70037088B
:10131800BB0735083B02031C9229932975293A0813
:10132800B6003908B50008004001B7001030370290
:1013380003189F29A029CA293708B500B60135081E
:10134800AF003608B0000330B1000030B20097316A
:10135800BE278931303040012F0784001030303DDE
:1013680080388500003FB800013FB900023FBA004D
:1013780039088F316E278931400138088F316E273F
:10138800893140013A088F316E27893108007A0186
:10139800A6138430A600A7011830A8001030A900B1
:1013A8000F30AD00AE01AF01B0018C018D018E018F
:1013B8008F01920193019801970196019E019D0169
:1013C80099019A01A3019F01A101A201A401A5010C
:1013D8000330AB00AC01AA014301B701B8014401D5
:1013E800BF01C001410190119A1110121A128430E4
:1013F8007A01A600080000304001BA000030B900A8
:101408000030B8000030B7002F1C0B2A0C2A142A11
:101418003308B7073408B83D3508B93D3608BA3D32
:101428000130B335B40DB50DB60D890B152A013051
:10143800B236B10CB00CAF0C890B1C2A320831043F
:1014480030042F04031D292A2A2A082A3A08B20040
:101458003908B1003808B0003708AF00080041016A
:10146800991167304401C3000E30C40041011911BD
:1014780004304401C5001730C60048304C019200C2
:10148800903090002630910044308E008F01FF305C
:101498004001AF000730B00094313F248A310F304B
:1014A8004001AF001330B00094314E248A3144011A
:1014B800BD01BE014001D901D8014030D700D60195
:1014C800D501D4014101991508004B304001AF0006
:1014D8004D30B000493097317F278A3102304001C2
:1014E800C2004330AF000030B0004A08B2004908DB
:1014F800B1009531A8258A3145304001AF00003050
:10150800B0004C08B2004B08B1009531A8258A31CB
:1015180047304001AF000030B0004E08B2004D081F
:10152800B1009531A8258A3142304001BC00003015
:10153800BD000730BE00BF0181308E31E7268A31F9
:10154800080040019801990110309A009C01FF3071
:101558009200DC3093002B309400083096007D0117
:101568008C011C3096000330A0008D01C03097001C
:10157800A101B5018E019801A201FF308F00FF3053
:101588009900FF30A300FF309000FF309A00FF3031
:10159800A4000830B80013307C01C1000E307B0174
:1015A800A0007D019101920193019B019C019D0185
:1015B800A501A601A701B901BA01BB0108004001B4
:1015C800B2003208031DE92AEA2AFB2A2F08031D64
:1015D800EE2AEF2AFB2A3008031DF32AF42AFB2AF5
:1015E8003108031DF82AF92AFB2A6430202B2F081A
:1015F800031DFF2A002B0C2B3008031D042B052B81
:101608000C2B3108031D092B0A2B0C2B4B30202BDC
:101618003008031D102B112B182B3108031D152B17
:10162800162B182B3230202B3108031D1C2B1D2B99
:101638001F2B1930202B0030080041016608860056
:10164800670887004131010303192B2B2C2B372BFB
:101658000230E300660886006708870001089431B5
:10166800D4248B31652B66088600670887004231D1
:101678005A3001060319412B422B4D2B0430E3004D
:10168800660886006708870001089431D4248B31E6
:10169800652B0030E300E400E50166088600670872
:1016A800870001088C3141248B31D0304001C500BE
:1016B800C930890B5D2BC50B5D2B00329431E924B1
:1016C8008B310800410166088600670887004131B0
:1016D800023001060319712B722B7D2B0230E300B7
:1016E800660886006708870001089431D4248B3186
:1016F800AC2B6608023E4001AF0000304101673D57
:101708004001B000953192258B3140013008B50079
:101718002F08B400963121268B319331C7238B31A2
:1017280040013008B4002F08B30045309331F72347
:101738008B3145304101E3000030E4000230E50020
:10174800660886006708870001088C3141248B31C0
:101758000800963190268B3171084001A10070086D
:10176800A000E32B21084401B200400120084401F5
:10177800B10002304001E00002308831CB208B31CB
:10178800F62B21084401B600400120084401B500A9
:1017980003304001E00003308831CB208B31F62B39
:1017A80021084401B400400120084401B30040016D
:1017B800E00101304101EF00F62BE001F62B600853
:1017C800FB00FC017C08003A0319EB2BE12B7B089A
:1017D800013A0319B62B033A0319C52B013A031929
:1017E800D42BE12B080041016608860067088700B2
:1017F800413101030319012C022C0D2C0230E300A6
:10180800660886006708870001089431D4248B3164
:10181800402C6608860067088700423102300102C2
:10182800031C172C182C232C0430E30066088600B0
:101838006708870001089431D4248B31402C66084E
:10184800860067088700423101089331DF238B3116
:1018580093311C238B314001C50045304101E30021
:101868000030E400E501E50A66088600670887009D
:1018780001088C3141248B3108004201D800410114
:101888006508013E4001C200003003180130C30062
:1018980000304302393003194202031C542C552CE2
:1018A800582C37304101E50042015808A000D90101
:1018B800782C5908013E203E8600013087005908DF
:1018C8004001C200C301420841016307840040018E
:1018D80043084101643D8500000881000130400152
:1018E800C20042084201D907410165084201590274
:1018F800031C7F2C802C5D2C20304001BC00013063
:10190800BD0041016508013E4001BE00BF01BF0A9C
:10191800F0308E31E7268C310800410166088600D8
:10192800670887004131010303199B2C9C2CA72CC5
:101938000230E300660886006708870001089431D2
:10194800D4248C31E32C660886006708870042316E
:1019580001084001CA0003304A02031CB42CB52C0C
:10196800C12C04304101E30066088600670887003F
:1019780001089431D4248C31E32C4A089331D323C1
:101988008C3140013308C9003208C8004A08C50034
:101998004908B4004808B30046309331F7238C3126
:1019A80045304101E3000030E4000330E5006608FB
:1019B80086006708870001088C3141248C310800B3
:1019C80040015E08031DE92CEA2CF52C41016E0844
:1019D800893198218C3141016C08893198218C31E9
:1019E800302D5E0841016D06031DFB2CFC2C0D2DCE
:1019F80040015E0841016B06031D032D042D0D2DCA
:101A08000F30893198218C310F30893198218C31F0
:101A1800302D40015E0841016D06031D142D152D62
:101A28001F2D0F30893198218C3141016C08893183
:101A380098218C31302D40015E0841016B06031D51
:101A4800262D272D302D6E08893198218C310F30A5
:101A5800893198218C31302D0A3040015E020318FB
:101A6800362D372D3C2D0130BB003B08DE073D2DC0
:101A7800DE01080000304001C7000030C600003019
:101A8800C5000030C4003E083D043C043B04031973
:101A98004E2D4F2D902DC801C80A5D2D0130BB3544
:101AA800BC0DBD0DBE0D890B532D0130C30043087D
:101AB800C807BE1F602D612D522D0130C435C50DDC
:101AC800C60DC70D890B622D3E084202031D762DF7
:101AD8003D084102031D762D3C084002031D762D6A
:101AE8003B083F02031C792D7A2D832D3B08BF024A
:101AF8003C08C03B3D08C13B3E08C23B4414013092
:101B0800BE36BD0CBC0CBB0C890B842D0130C80241
:101B1800031D8F2D902D612D4708BE004608BD007E
:101B28004508BC004408BB0008004101660886005F
:101B380067088700413101030319A32DA42DAF2D98
:101B48000230E300660886006708870001089431C0
:101B5800D4248D31F42D6608860067088700423149
:101B680002300102031CB92DBA2DC52D0430E30043
:101B7800660886006708870001089431D4248D31EF
:101B8800F42D66088600670887004231010888310D
:101B9800A6208D314101660886006708870042311A
:101BA8000103031DD82DD92DDD2D933199238D31B6
:101BB800E02D933121238D31933169238D314001FB
:101BC800C50045304101E3000030E400E501E50AC5
:101BD800660886006708870001088C3141248D312A
:101BE8000800410166088600670887004131033014
:101BF80001060319002E012E0C2E0230E3006608A0
:101C080086006708870001089431D4248D31662E38
:101C18006608860067088700423101084001C7004E
:101C280041016608860067088700433101084001C2
:101C3800C50041016608860067088700443101082D
:101C48004001C600470803192A2E2B2E3D2E0330CB
:101C580047020318302E312E3D2E1030450203184E
:101C6800362E372E3D2E0B304602031C3C2E3D2EC1
:101C7800492E04304101E3006608860067088700A2
:101C880001089431D4248D31662E4508AF004608EA
:101C9800B00047089631AD268D3108304001AF00BD
:101CA8000730B000933172238D3100304101E300D9
:101CB800E400E501660886006708870001088C31A2
:101CC80041248D31080040015608AB00AC01AB350A
:101CD800AC0DFC30AD002630AE002B082D07860079
:101CE8002C082E3D87000030C03FC13F4C01901C9E
:101CF8007E2E7F2E9C2E40015608AB00AC01AB35E2
:101D0800AC0DFC30AD002630AE002B082D07860048
:101D18002C082E3D870001154401370838040319A3
:101D2800962E972E9C2E38088A0037080A008E3186
:101D38004C01101DA02EA12EBE2E40015608AB004E
:101D4800AC01AB35AC0DFC30AD002630AE002B0835
:101D58002D0786002C082E3D870081144401390880
:101D68003A040319B82EB92EBE2E3A088A0039084B
:101D78000A008E314C010C08FC0040015608013E57
:101D88003F39FD007D085506031DCB2ECC2ECD2EE8
:101D9800DA2E5608A03E8600033087007C088100B2
:101DA8007D08D6000130AB002B08D4074301330867
:101DB80034040319E02EE12EE62E34088A00330895
:101DC8000A008E3108004101DE00393040013E0230
:101DD800031CEF2EF02EF22E00306D2FAA30410199
:101DE800A0005E08A10040013E084101A200E201F6
:101DF800132F6208033EA03E860087016208400157
:101E0800C000C10140083C07840041083D3D8500F1
:101E1800000881000130C00040084101E20740018C
:101E28003E0841016202031C1A2F1B2FFD2E4001A0
:101E38003E08023EB500A13089316D218E31400146
:101E480036084101E100400135084101E000400148
:101E58003E08033EA03E86008701410160088100DC
:101E680040013E08043EA03E86008701410161080A
:101E7800810040013E08053E4101DF0040013F0866
:101E8800031D472F482F512F933160238E31003A7D
:101E9800031D4F2F502F512FF02E4101E201662FC5
:101EA8004001B101B10A41016208A03E86008701E4
:101EB8000108973141278E3101304001C0004008A8
:101EC8004101E2075F086202031C6B2F6C2F542F3D
:101ED800013008004001AF00AF1F732F742F7B2F14
:101EE8001A1500000000000040011A11812F1A1570
:101EF800000040011A110000000040012F1F852F2B
:101F0800862F8D2F1A1500000000000040011A11BD
:101F1800932F1A15000040011A110000000040011B
:101F2800AF1E972F982F9F2F1A1500000000000052
:101F380040011A11A52F1A15000040011A110000BE
:101F4800000040012F1EA92FAA2FB12F1A1500003B
:101F58000000000040011A11B72F1A1500004001B7
:101F68001A11000000004001AF1DBB2FBC2FC32F6A
:101F78001A1500000000000040011A11C92F1A1597
:101F8800000040011A110000000040012F1DCD2F54
:101F9800CE2FD52F1A1500000000000040011A119D
:101FA800DB2F1A15000040011A1100000000400143
:101FB800AF1CDF2FE02FE72F1A15000000000000EC
:101FC80040011A11ED2F1A15000040011A110000E6
:101FD800000040012F1CF12FF22FF92F1A150000D5
:101FE8000000000040011A11FF2F1A1500004001DF
:101FF8001A1100000000080033340A340034003499
:102008003C341634813408343C341334603413348B
:102018000034003400340034003400340034003418
:102028000034003400340034003400340034003408
:1020380000340034003400340034003400340034F8
:102048005D341434003400343F3414344E341434C2
:102058000034003400340034FF34003400340034D9
:10206800FF34003400340034FF34FF34FF340034CC
:10207800FF340034FF340034FF34FF34FF34FF34BE
:10208800FF348034003400340034803400340034A9
:102098000034803480348034003480340034803418
:1020A800003480348034C034C034C0348034803448
:0820B8008034003400340034D0
:102600007A01261408004101101208004C019017AD
:10261000080041019A1508004101901108004C0181
:10262000101210160800FB3060018C000800F0004A
:1026300070087A019F0008004001190E890C0139C9
:1026400008008B134001DF018B1708004201E201F3
:10265000E3018B138B1708007408F1007308F00076
:1026600094316C249331080044018F0191010530AD
:10267000930092019401080040015408031D412B6E
:10268000432B0130442B0030080040013008430147
:10269000B60040012F084301B50008004001300892
:1026A0004401C20040012F084401C100080040015C
:1026B00030084301B80040012F084301B70008006B
:1026C00040015708031D652B672B0130682B003034
:1026D000080043014308031D6E2B702B0130712B42
:1026E00000300800400130084201E10040012F089D
:1026F0004201E00008008B134001DA01583042012A
:10270000DC000230DD008B17080042016008610424
:10271000031D8B2B8D2B01308E2B003008004001C8
:1027200093101310931294139910191099129A136D
:1027300008008B1301304001DF002C304201E4001F
:102740000130E5008B1708004001DA014201DE018B
:10275000DF01DC01DD01E7014301C20108004201A4
:10276000600861040319B52BB62BBA2B0130E002C7
:102770000030E13B080041010C100B140030400117
:10278000AF000030B00093314523933108008B1324
:1027900040015308B2005208B1008B173208B00054
:1027A0003108AF0008004001B40034089431FE2421
:1027B000933140013008B3002F08B20008004001F7
:1027C000AF002F030319E52BE82B40019916EA2BE4
:1027D0004001991208006400800101310130FE02BD
:1027E0000030FF3B7F087E04031DEC2B00344001CA
:1027F000B50035088600870133088100350A860058
:102800008701340881000800400160080319092C81
:102810000A2C0B2C112C0130E00001308831CB2028
:10282000943108004101901143013708380403191D
:102830001A2C1B2C202C38088A0037080A009431E7
:1028400008004C01101210164101EA014001DC01A0
:102850000030F3000230F40093312C23943108004F
:102860004401410842040319362C372C3C2C420801
:102870008A0041080A00943141018C12080040018D
:102880002F0830040319452C462C4D2C30084401E8
:10289000BA0040012F084401B900080040012F0888
:1028A00030040319542C552C5C2C30084401B8001A
:1028B00040012F084401B700080040012F083004F0
:1028C0000319632C642C6B2C30084301B4004001C5
:1028D0002F084301B300080000308B1B0130F200C9
:1028E0008B1370084001D2047108D304720C031CCE
:1028F0008B1303188B17080000308B1B013040012D
:10290000B1008B132F08D2043008D304310C031C00
:102910008B1303188B1708009431C02494310030B6
:102920004101E300E400E5016608860067088700CE
:1029300001088C3141249431080093317B23943178
:1029400000304101E300E400E50166088600670805
:10295000870001088C31412494310800C2304301C2
:102960009D009C0159309F00FE304401C10007309A
:10297000C20041018C129616873043019E00080068
:102980008B1340015A08031DC62CC72CCC2C0130D8
:10299000DA004201DC01DD0164304201DE0000307A
:1029A000DF00E7018B1708004001C2004208C300A6
:1029B000410163084001C4004330BC000030BD0049
:1029C0000230BE00BF01BF0AF1308E31E7269431DC
:1029D00008008B1379011017F0308D008C01A530A1
:1029E0008E00101555309100AA3091009014901867
:1029F000FA2CFB2CF72C1011010008004001B1004B
:102A0000033031020318052D062D102D31352B3ED4
:102A1000860002308700403FAF00413FB000122DDA
:102A2000AF01B00108009331692395314001C40022
:102A300044304101E3000030E400E501E50A6608A6
:102A400086006708870001088C3141249531080011
:102A500093311C2395314001C40044304101E3000F
:102A60000030E400E501E50A660886006708870093
:102A700001088C314124953108009731DE279531CA
:102A80004001C40044304101E3000030E400E501AE
:102A9000E50A660886006708870001088C31412432
:102AA000953108008831172095314001C400443029
:102AB0004101E3000030E400E501E50A6608860014
:102AC0006708870001088C314124953108000230E5
:102AD0004001C400C501C60144304101E30000309B
:102AE000E4000330E50066088600670887000108F7
:102AF0008C314124953108009331342395318A314A
:102B0000A52295318931CB2195319431AE2495316F
:102B10008A31332295319331132395319331BB237D
:102B20009531080040012F088600300887004131A8
:102B30000108B100B2013108B200B1012F088600CE
:102B40003008870031080104AF003208B0000800E7
:102B500040012F08860030088700310881003208C4
:102B6000B3002F08013EB4000030303DB5003408FA
:102B7000860035088700330881000800CC2D963187
:102B80003C269531FB0001304301BD070030BE3DBE
:102B90007B088031B620953193313C239531003A42
:102BA000031DD32DD42DBF2D0800A03086318F26D4
:102BB00095314301B000A0304101E3000130E40051
:102BC000430130084101E500660886006708870078
:102BD00001088C314124953108004001E001410198
:102BE000EF014401AB01AC01AD01AE01AF01B00199
:102BF000AD304001AF000B30B00093315723953119
:102C000093310C239531933109239531080040010C
:102C1000AF00B0018B13420169080319102E112E69
:102C20001D2E40012F0886000430870042016808ED
:102C30008100E9014001B001B00A8B174001300862
:102C400008008B1340013508B7003408B600B609F8
:102C5000B7093608D2053708D3053508B700340858
:102C6000B600B609B70936084301BF054001370869
:102C70004301C0058B17080040015508A03E86009F
:102C8000033087000108F1005508013E3F39F0008C
:102C90007008D50041019911400154080319512EC3
:102CA000522E542E0130D4024101991571080800AA
:102CB0009331AF23963188315C20963197319E272E
:102CC00096310130F50075084201E60705306602CD
:102CD000031C6B2E6C2E702EE60194310424963169
:102CE00001304301C10008009331C72396314001F0
:102CF0003008B4002F08B30044309331F7239631E5
:102D000044304101E3000030E4000230E500660891
:102D100086006708870001088C314124963108003D
:102D20007A011D08F200F3017208F5007308F6003D
:102D30001E08F200F3017208F300F2017208F700B6
:102D40007308F80075087704F90076087804FA002B
:102D50007A08F1007908F00008004001B100310361
:102D6000031DB32EB42EBC2E2F084101EE004001EE
:102D700030084101ED00C92E02303106031DC12E7D
:102D8000C22EC92E2F084101EC004001300841013C
:102D9000EB0008004001D201D3014301BF01C00193
:102DA0004201EF01EE01ED01EC01EB014001DF0119
:102DB0004201E401E501E201E30143010E18E12EC5
:102DC000E22EE62E4001531543010E140800410186
:102DD000EA014001DC014201EA01E9014001DB01B5
:102DE0004C0110121016BE304001AF001530B0007B
:102DF00094315D24963121304001AF001430B00091
:102E000094314E2496310800403040015702031897
:102E10000A2F0B2F1F2F5808203E860003308700F3
:102E200001084C018D0040015808013E3F39F10076
:102E30007108D8000130F0007008D707212F410138
:102E400019110800F401F501701C272F282F2C2FD1
:102E50007208F4077308F53D0130F235F30D890B64
:102E60002D2F0130F136F00C890B322F70087104D0
:102E7000031D3B2F3C2F242F7508F1007408F00030
:102E800008004001B20031080319472F482F572F7F
:102E9000933160239731003A03194F2F502F482F59
:102EA00040013208AF008831812097315F2F933184
:102EB00060239731003A031D5E2F5F2F502F0800CB
:102EC0008B13430140084001B20043013F08400119
:102ED000B100B109B20952083105B30053083205F7
:102EE000B40053084301C000400152084301BF0031
:102EF0008B1740013408B0003308AF0008004001D0
:102F0000B1008B1331088600870143013D08C03FA3
:102F10003E08C13F40012F088600870143013B085E
:102F2000C03F3C08C13F4001300886008701430193
:102F30003908C03F3A08C13F8B17080040015F08BD
:102F40000319A32FA42FAF2F4201640865040319AE
:102F5000AA2FAB2FAF2F0130E4020030E53B003049
:102F6000420163023230031962020318B82FB92FED
:102F7000BD2F0130E2070030E33D08004001B301FE
:102F8000B4012F1CC42FC52FC92F3108B307320835
:102F9000B43D0130B135B20D890BCA2F0130B036C6
:102FA000AF0C890BCF2F2F083004031DD82FD92F3A
:102FB000C12F3408B0003308AF00080040019A1751
:102FC00068304001B300E430890BE42FB30BE42FE9
:102FD0000000003040018C1A0130AF0000308C1B23
:102FE0000130B00000300C1B0130B1000C0E013973
:102FF0008A31E32297314001B4009A133408080063
:0E3000004F344634463400344F344E340034DE
:047FFC00FF34FF341B
:020000040001F9
:04000E008C3FE53D01
:04001400F43FFF3F77
:00000001FF
